:020000040800F2
:1000000068040020B10100087D1400086F11000889
:100010005D130008E9020008151800080000000040
:100020000000000000000000000000008114000833
:10003000EB020008000000007F1400088314000891
:10004000CB010008CB010008CB010008CB01000860
:10005000CB010008CB010008CB010008CB01000850
:10006000CB010008CB010008CB010008CB01000840
:10007000CB010008CB010008CB010008CB01000830
:10008000CB010008CB010008CB01000800000000F4
:10009000000000000000000000000000CB0100088C
:1000A000CB010008CB010008CB010008CB01000800
:1000B000CB010008CB010008CB010008CB010008F0
:1000C000CB010008CB010008CB010008CB010008E0
:1000D000CB01000809180008CB010008000000004F
:1000E000CB010008CB010008CB0100080000000094
:1000F000000000000000000000000000CB0100082C
:1001000000000000CB010008CB010008CB01000873
:1001100000000000000000000000000000000000DF
:10012000CB010008CB010008CB010008CB0100087F
:10013000CB010008000000000000000000000000EB
:10014000000000000000000000000000CB010008DB
:10015000CB010008CB010008CB010008CB0100084F
:10016000CB010008CB0100080000000000000000E7
:10017000000000000000000000000000000000007F
:1001800000000000CB01000800000000000000009B
:10019000CB010008CB010008DFF810D000F092F886
:1001A00000480047D51B0008AFF30080680400201A
:1001B0000648804706480047FEE7FEE7FEE7FEE701
:1001C000FEE7FEE7FEE7FEE7FEE7FEE7191500089B
:1001D000990100082DE9F05F0546002092469B46F4
:1001E00088460646814640241BE02846414647464D
:1001F000224600F057F853465A46C01A914110D390
:1002000011461846224600F03EF82D1A67EB010809
:100210004F4622460120002100F035F817EB000977
:100220004E41201EA4F10104DFDC484631462A4637
:100230004346BDE8F09FD2B201E000F8012B491E11
:10024000FBD270470022F6E710B513460A46044673
:100250001946FFF7F0FF204610BD30B50B460146AA
:1002600000202022012409E021FA02F59D4205D355
:1002700003FA02F5491B04FA02F52844151EA2F1FF
:100280000102F1DC30BD202A04DB203A00FA02F141
:10029000002070479140C2F1200320FA03F3194374
:1002A00090407047202A04DB203A21FA02F0002116
:1002B000704721FA02F3D040C2F120029140084376
:1002C00019467047064C074D06E0E06840F0010310
:1002D00094E8070098471034AC42F6D3FFF760FF6C
:1002E000081D0008281D0008FEE7704700EBC0004D
:1002F000C1004FF0E02041610021816105210161D1
:100300000169C903FCD50421016170472DE9F04161
:100310000446876D00F062F9064694F83500002522
:10032000022806D08020606584F834500120BDE8A2
:10033000F0812068016821F01601016020684169A0
:1003400021F080014161206C08B9A06C20B12068C7
:10035000016821F0080101602068016821F00101B5
:1003600001600CE000F03AF9801B052807D9202035
:100370006065032084F8350084F83450D7E720689E
:100380000068C007EED194F85C103F208840B86048
:10039000012084F8350084F834500020C7E790F835
:1003A0003510022903D080214165012070470521C5
:1003B00080F835100068016821F00101016000201B
:1003C0007047000070B5044600F008F90546601C4F
:1003D00002D004480078044400F000F9401BA04219
:1003E000FAD370BD100000202DE9F84FDFF8B8A156
:1003F0000022012403254FF00F090AF1040BAAF192
:10040000040E00BF0B6804FA02F63340B34273D106
:100410000F7907F00307012F01D0022F16D187684B
:100420004FEA420805FA08FC27EA0C07D1F80CC08D
:100430000CFA08FC4CEA070CC0F808C04768B74340
:100440000E79C6F3001696403E4346600E79F64399
:10045000B6070DD0C768560005FA06FC27EA0C0758
:10046000D1F808C00CFA06FC4CEA070CC0F80CC026
:100470000E7906F00306022E10D1D60800EB86088E
:10048000D8F8206057074FEAD76C09FA0CF7BE433B
:100490000F6907FA0CF73743C8F8207006684FEA6F
:1004A000420C05FA0CF7BE430F7907F0030707FA71
:1004B0000CF7374307604E6816F4403F6DD03B4E53
:1004C000376847F480473760366822F0030706F440
:1004D00080460096364E07EB060CDCF80868970756
:1004E0003F0F09FA07F826EA0806DFF8C8804045FA
:1004F00003D14FF000081EE04FE0DFF8BC8040451C
:1005000002D14FF0010816E0DFF8B080404502D17B
:100510004FF002080FE0DFF8A880404502D14FF00D
:10052000030808E0DFF89C80404502D14FF0040842
:1005300001E04FF0070808FA07F848EA0608CCF887
:100540000888DAF800605746D1F804C09E435FEA95
:10055000CC2C00D51E433E60DBF800605F46D1F82E
:1005600004C09E435FEA8C2C00D51E433E60DEF83B
:1005700000607746D1F804C09E435FEA8C3C00D50A
:100580001E433E60084F083F3E68D1F804C09E43BA
:100590005FEACC3C00D51E433E60521C102AFFF49B
:1005A00031AFBDE8F88F0000083C014044380240FC
:1005B00000300140000002400004024000080240F8
:1005C000000C0240001002400069084000D00120E9
:1005D00070470AB1816170470904FBE701488068F0
:1005E0007047000010000020024881680278114422
:1005F00081607047100000200B4810B5016841F47D
:1006000000710160016841F480610160016841F49A
:1006100080710160032000F06FF80F2000F006F8F1
:1006200000F024F8002010BD003C024070B50D4DD4
:1006300004464FF47A712878B1FBF0F00A49096852
:10064000B1FBF0F000F00AFB48B9102C07D20022F1
:100650002146501E00F030F800206C6070BD012073
:1006600070BD0000100000201C0000200A4808B5E2
:10067000016841F480410160006800F4804000900E
:100680000548001F016841F080510160006800F0DA
:100690008050009008BD000044380240002809DB6B
:1006A00000F01F02012191404009800000F1E0208C
:1006B000C0F8001170470000F0B40E4B1B680C46E8
:1006C000C3F30223C3F10705042D00D90425191D26
:1006D000072901D2002300E0DB1E012606FA05F1FE
:1006E000491E214099409E40761E16403143F0BC81
:1006F00001F0A2B80CED00E0064900F0070208681E
:100700004FF6FF03184040EA0220034A10430860F6
:10071000704700000CED00E00000FA052DE9F047FD
:100720000E46050065D0DFF81481D8F80000F7B256
:1007300000F00700B04207D288F80070D8F8000037
:1007400000F00700B04254D128683D4C810712D513
:10075000400703D5206840F4E05020602878000767
:1007600003D5206840F4604020602068A96820F02C
:10077000F000084320602878C0072DD03049686811
:100780000839012812D0022813D0032811D0096893
:10079000890700292DDA216821F003010143216036
:1007A000FFF71CFF814641F2883A0EE00968890391
:1007B000EFE709688901ECE7FFF710FFA0EB0901FB
:1007C000514502D90320BDE8F0872068696800F030
:1007D0000C00B0EB810FEFD1D8F80010404601F0CB
:1007E0000701B14207D90770006800F00700B04266
:1007F00001D00120E7E72878400705D52068E9689F
:1008000020F4E050084320602878000706D52068CF
:10081000296920F4604040EAC100206000F038F807
:100820002168084AC1F30311515CC84006490860B9
:1008300006480068FFF7FAFE0020C4E7003C0240CB
:1008400008380240F01C00081C00002014000020A2
:100850000448054900680968044AC1F38221515CD3
:10086000C84070471C00002008380240001D0008E6
:100870000448054900680968044AC1F34231515CE3
:10088000C84070471C00002008380240001D0008C6
:10089000154810B5006810F00C02144813D0411030
:1008A000042A0FD0082A0ED10F4C241F2268236877
:1008B00002F03F025B0207D52068C0F38810A0FB5E
:1008C000010106E0084610BD2168C1F38811A1FBB3
:1008D00000010023FFF77EFC2168C1F30141491CA0
:1008E0004900B0FBF1F010BD083802400024F400CC
:1008F0002DE9F84F04006ED02078DFF84C93C00744
:10090000A9F104054AD009F104000168C1F381018D
:10091000012908D00068C0F3810002280AD1D9F863
:100920000000400206D52868800337D5606800289B
:10093000E1D033E06068B0F5803F10D0B0F5A02F73
:10094000286810D020F480302860286820F48020A7
:1009500028606068A8B1FFF741FE06460DE02868F0
:1009600040F48030F4E740F480202860F7E700BFCF
:10097000FFF734FE801B642873D828688003F7D5FE
:100980000CE0FFF72BFE064605E000BFFFF726FE52
:10099000801B6428F0D828688003F7D42078DFF81B
:1009A000AC8280074FF0000A3ED5A748001D0168C1
:1009B00011F00C0F08D00068C0F3810002280BD1A1
:1009C000D9F80000400207D42868800716D5E068EF
:1009D000012800D112E033E1E068B8B10120C8F885
:1009E0000000FFF7FBFD064605E000BFFFF7F6FD40
:1009F000801B0228C0D828688007F7D5286821699D
:100A000020F0F80040EAC10028600DE0C8F800A01E
:100A1000FFF7E4FD064604E0FFF7E0FD801B022837
:100A20001FD828688007F7D42078000722D5864F82
:100A300087486169703771B101210160FFF7CEFD10
:100A4000064604E0FFF7CAFD801B022809D8386873
:100A50008007F7D50EE0C0F800A0FFF7BFFD0646FF
:100A600005E082E0FFF7BAFD801B02287DD83868D8
:100A70008007F7D42078400768D5DFF8CCB100278D
:100A80000BF13C0BDBF80000C0000BD4DBF80010CE
:100A900041F08051CBF80010DBF80000012700F096
:100AA000805000906B4E3068C00510D4306840F420
:100AB00080703060FFF792FD009005E0FFF78EFD3B
:100AC0000099401A022850D83068C005F6D55E4E0D
:100AD000A0686C3601280FD00528306810D020F0AF
:100AE00001003060306820F004003060A068B8B1C8
:100AF000FFF774FD00900FE0306840F00100F4E76C
:100B000040F004003060F7E7FFF768FD0099411AF4
:100B100041F28830814266D830688007F4D50EE013
:100B2000FFF75CFD009007E0FFF758FD0099411AC0
:100B300041F28830814256D830688007F4D42FB112
:100B4000DBF8001021F08051CBF80010A069C8B389
:100B50003D49091D0968C1F3810102294AD00228D3
:100B6000504607D0C8F8600000E03CE0FFF736FDD3
:100B700004463BE04746C8F86000FFF72FFD0646F5
:100B800005E000BFFFF72AFD801B02282BD828684C
:100B90008001F7D4D4E907010843A16A2E4A490825
:100BA00002EB0141626A41EA8211084394F82C1079
:100BB00040EA0161C9F8001001203866FFF70EFD18
:100BC000044606E03EE000BFFFF708FD001B0228D8
:100BD00009D828688001F7D534E000BFFFF7FEFC94
:100BE000001B022802D90320BDE8F88F2868800185
:100BF000F4D427E00128F7D0D9F80000E26900F426
:100C0000800191421CD1226A00F03F01914217D12C
:100C100047F6C071626A0140B1EB821F10D1A26A2F
:100C20004FF0FF3300F4403103EB5202B1EB024FBF
:100C300006D194F82C1000F07060B0EB016F01D079
:100C40000120D1E70020CFE70438024000004742EE
:100C5000800E4742007000400000FFFF10B5401EAC
:100C6000B0F1807F01D3012010BD4FF0E02460611E
:100C70000F21601700F0E0FD0020A0610720206137
:100C8000002010BD70477047F8B501680446086839
:100C9000CA684B6910F00F0F4FF0000559D003F0F0
:100CA000010602F49077374365D0C10705D0D1051E
:100CB00003D5216C41F001012164410705D5D90715
:100CC00003D0216C41F002012164810705D5D907C9
:100CD00003D0216C41F004012164010707D502F023
:100CE0002001314303D0216C41F008012164216CC3
:100CF00000293AD0800604D5900602D5204600F09F
:100D000042FC20684069216CC0F38010090700D4C0
:100D100060B3204600F010FC20684069400621D5F1
:100D20002068143050E8001F21F0400140E8001214
:100D3000002AF5D1A06BA8B16C490165A06BFFF743
:100D40002EFB002811D0A06B016D01B0BDE8F04072
:100D5000084783060FD593060DD52046BDE8F84019
:100D600000F011BC2046FFF78EFFF8BD2046FFF7CC
:100D70008AFF2564F8BD266B2023012E79D1C60693
:100D800077D5D60675D5086848680090486940064A
:100D900040D5A16B086840680004000CEAD0A28D21
:100DA0008242E7D9E085C869B0F5807F2DD0206800
:100DB0000C3050E8001F21F4807140E80012002A36
:100DC000F5D12068143050E8001F21F0010140E8FF
:100DD0000012002AF5D12068143050E8001F21F0DD
:100DE000400140E80012002AF5D184F83E30256326
:100DF00020680C3050E8001F21F0100140E800127C
:100E0000002AF5D1A06BFFF781FAA08DE18D401A81
:100E100081B229E0A08DE18D401A81B2E08D0028D9
:100E2000A8D00029A6D020680C3050E8002F22F46A
:100E3000907240E80026002EF5D12068143050E86A
:100E4000002F22F0010240E80026002EF5D184F8A0
:100E50003E30256320680C3050E8002F22F010024D
:100E600040E80023002BF5D12046FFF70BFFF8BD2B
:100E7000FFE705062BD5150629D594F83D00212856
:100E8000F5D1A068B0F5805F01D12069B0B1206ACA
:100E9000411C2162216800784860E08C401E0004FB
:100EA000000CE084E3D12068C16821F08001C160BA
:100EB0002068C16841F04001C160D8E7206A00881D
:100EC000C0F308004860206A801C2062E5E7400605
:100ED000CDD55006CBD5CA68204622F04002CA6064
:100EE00084F83D3000F042F9C1E700002915000800
:100EF00070B5040004D094F83D00002510B106E060
:100F0000012070BD84F83C50204600F023F82420D6
:100F100084F83D002068C16821F40051C16020467A
:100F200000F092FB2068016921F490410161206882
:100F3000416921F02A0141612068C16841F40051F2
:100F4000C1602564202084F83D0084F83E00002024
:100F500070BD000010B586B0044614216846FFF746
:100F600071F918492068884229D117480021026880
:100F700042F010020260006800F010000590124874
:100F80001438026842F001020260006800F00100BB
:100F900005904FF4C06000900220CDE901010320CC
:100FA00003900720049069460848FFF71DFA0022C5
:100FB00011462520FFF780FB2520FFF76FFB06B0C9
:100FC00010BD000000100140443802400000024003
:100FD00090F83E30202B0ED159B152B190F83C30F0
:100FE000012B08D0012380F83C300023036300F07C
:100FF000B1BB0120704702207047000070B5006847
:101000001A4988422AD1022219491A4800F08FF859
:10101000174C194D2078612809D10022012128465A
:10102000FFF7D7FA022221461248FFF7D1FF2078B6
:10103000622809D1012211462846FFF7CAFA022286
:101040000B490C48FFF7C4FF2078632806D100F055
:101050008FF8022206490748FFF7BAFFBDE8704043
:10106000022203490348FFF7B3BF0000001001400C
:101070000E00002024000020000802402DE9F84363
:10108000044690F83D001F4616460D4620284CD1D8
:10109000C5B1BEB194F83C00012846D0012084F8C7
:1010A0003C004FF00008C4F84080212084F83D0047
:1010B000FFF794FAA6848146E684A068B0F5805FC5
:1010C00003D004E00120BDE8F883206928B12E4652
:1010D0005FF0000584F83C800EE00026FAE78021EE
:1010E000204600F054FBA0B9AEB116F8010B216800
:1010F0004860E08C401EE084E08C4B464FF00002DC
:1011000000970028EBD14FF04001204600F03FFB54
:1011100030B10320D7E735F8020BC0F30800E6E74B
:10112000202084F83D000020CDE70220CBE790F896
:101130003D30202B18D1A9B1A2B190F83C30012B41
:1011400012D001628284C28400210164212280F8CD
:101150003D2080F83C100068C16841F08001C1600A
:101160000020704701207047022070477047FEE75B
:1011700010B5094C002201212046FFF72AFA64200D
:10118000FFF720F9012211462046FFF722FABDE8B9
:1011900010406420FFF716B9000802402DE9F0471F
:1011A0000746DDE9089A1D4690460E463B2000F0B2
:1011B0005CF804463C2000F058F840EA04203880EF
:1011C0003D2000F052F804463E2000F04EF840EA80
:1011D000042030803F2000F048F80446402000F012
:1011E00044F840EA0420A8F80000432000F03DF84D
:1011F0000446442000F039F840EA042028804520C5
:1012000000F033F80446462000F02FF840EA0420AE
:10121000A9F80000472000F028F80446482000F014
:1012200024F840EA0420AAF80000BDE8F087752001
:1012300000F01BB810B501216B2000F035F800213B
:101240006C2000F031F80921192000F02DF806215A
:101250001A2000F029F818211B2000F025F8182189
:10126000BDE810401C2000F01FB810B5044600F087
:10127000CDF8D02000F0B6F800F080F8204600F05D
:10128000B1F800F07BF800F0C1F8D12000F0AAF826
:1012900000F074F800F081F80446012000F097F89F
:1012A00000F0C3F8204610BD70B50D46044600F0AE
:1012B000ADF8D02000F096F800F060F8204600F07D
:1012C00091F800F05BF8284600F08CF800F056F832
:1012D000BDE8704000F0A9B8F0B587B014216846A9
:1012E000FEF7B0FF1B480026016841F004010160D1
:1012F000016801F004010591016841F0800101607D
:10130000016801F080010591016841F0010101606F
:101310000068114F00F001000590012240F20331F6
:101320003846FFF756F901240320CDE900040225D1
:1013300069463846CDE90245FFF756F84FF440704C
:1013400003958DE8510069463846FFF74DF807B020
:10135000F0BD00003038024000080240FEE7000007
:1013600010B54FF400710448FFF72EF902460A2029
:10137000FEF7BCFF104610BD0008024010B501206A
:1013800000F06EF8012000F05DF8FFF7E9FF044679
:10139000002000F057F8204610BD70B50025012050
:1013A00000F05EF800248026012000F04BF8FFF7E3
:1013B000D7FF012802D126FA04F00543002000F0EF
:1013C00041F8641CE4B2082CEED3284670BD10B579
:1013D00000F046F8012000F035F8BDE8104000208C
:1013E00000F030B870B500240546802626FA04F0D7
:1013F000284000F035F8012000F024F8002000F02B
:1014000021F8641CE4B2082CF0D370BD10B50120A3
:1014100000F026F8012000F015F8002000F020F878
:10142000BDE81040002000F00DB810B5002000F01D
:1014300017F8012000F006F8BDE81040012000F088
:101440000FB8000010B502464FF480710348FFF753
:10145000C0F8BDE810400A20FEF748BF000802406F
:1014600010B502464FF400710348FFF7B2F8BDE82B
:1014700010400A20FEF73ABF00080240FEE770471E
:101480007047FFF7B1B8000030B593B0302168461F
:10149000FEF7D8FE14210CA8FEF7D4FE1C48002548
:1014A000016841F080510160006800F080501190A7
:1014B0001848016841F4404101600068022400F4CA
:1014C0004040119001200090000401908001CDE97E
:1014D000064008AA0420482182E813000B906846C1
:1014E000FFF706FA08B172B6FEE70CA90F2081E8F3
:1014F00031004FF48050CDE90F0502210CA8FFF711
:101500000DF9002801D072B6FEE713B030BD00001F
:1015100040380240007000400248016841F4700108
:101520000160704788ED00E010B5806B0021C18537
:10153000C184FFF7A8FB10BD01680C3151E8002FF2
:1015400022F4907241E80023002BF5D10168143198
:1015500051E8002F22F0010241E80023002BF5D1D1
:10156000016B012909D101680C3151E8002F22F0EB
:10157000100241E80023002BF5D1202180F83E1015
:1015800000210163704708B590F83E10222901D070
:10159000022008BD82684FF480539A4201D101694C
:1015A00021B1816A9A421BD04AB10AE00268816A7D
:1015B0005268C2F308020A80816A891C08E0026945
:1015C00072B10268526802F07F020A70816A491C97
:1015D0008162C18D491E0904090CC18503D019E03F
:1015E00002685268F1E70168CA6822F02002CA6006
:1015F0000168CA6822F48072CA6001684A6922F0F0
:1016000001024A61202180F83E10016B012903D0BC
:10161000FFF7F4FC002008BD0021016301680C31D4
:1016200051E8002F22F0100241E80023002BF5D1F1
:1016300001680A68D20602D50A6849680091818D5E
:10164000FFF720FBE6E7000070B50446006801697B
:10165000E26821F44051114301612169A068E26907
:1016600008436169114308432168CA6849F20C6361
:101670009A430243CA6020684169A26921F440711B
:101680001143416131492068884202D03049884283
:1016900002D1FFF7EDF801E0FFF7DAF8E269002385
:1016A000192164253226B2F5004F626828D0A0FBCC
:1016B0000101930F9200FEF78DFD0146B0FBF5F09E
:1016C0006FF01802504301EB800006EB0010B0FBF6
:1016D000F5F000F0F002B1FBF5F002EB0012B1FB07
:1016E000F5F06FF01803584301EB800006EB001093
:1016F000B0FBF5F000F00F0021681044886070BD69
:10170000A0FB010192185B41FEF764FD0146B0FBAE
:10171000F5F00201B1FBF5F06FF01803584301EB4F
:10172000800006EBC000B0FBF5F000F0F80002EB23
:101730004002B1FBF5F0584301EB800006EBC0001E
:10174000B0FBF5F000F00700D6E700000010014004
:101750000014014081628285C28500210164222239
:1017600080F83E2080F83C10016921B10168CA6808
:1017700042F48072CA6001684A6942F001024A611B
:101780000068C16841F02001C160002070472DE968
:10179000F041984617460E460446069D27E0681C11
:1017A00025D02DB1FEF71AFFA0EB0800A8421ED9E4
:1017B00020680C3050E8001F21F4D07140E800127E
:1017C000002AF5D12068143050E8001F21F00101F3
:1017D00040E80012002AF5D1202084F83D0084F86A
:1017E0003E00002084F83C000320BDE8F081206822
:1017F000006836EA000004D00020B842CFD00020B4
:10180000F3E70120F9E700000148FFF73DBA0000C7
:1018100024000020FEE700000FB4054B10B503A91B
:10182000044A029800F028F810BC5DF814FB000090
:10183000BD1B0008200000200907090E002804DB5A
:1018400000F1E02080F80014704700F00F0000F174
:10185000E02080F8141D704702E008C8121F08C17C
:10186000002AFAD170477047002001E001C1121F21
:10187000002AFBD1704700002DE9FF4F8BB088464E
:101880000546002606E025280BD0DDE90D1290471D
:101890006D1C761C28780028F5D10FB03046BDE8C5
:1018A000F08F0024A146A2460122AE4900E0044385
:1018B00015F8013F203B02FA03F00842F7D12878DF
:1018C0002A2810D06FF02F022878A0F130010929C2
:1018D00015D809EB890102EB410144F0020400EB49
:1018E00001096D1CF0E758F8041B5FEA010903D5F4
:1018F00044F40054C9F1000944F002046D1C287836
:101900002E2817D115F8010F44F004042A280ED010
:101910006FF02F022878A0F1300109290AD80AEBCC
:101920008A0102EB410100EB010A6D1CF2E758F855
:1019300004AB6D1C28786C280FD006DC4C2817D01F
:1019400068280DD06A2814D104E0742810D07A28B1
:101950000FD10DE044F400140AE044F4801401E0D7
:1019600044F440146978814202D104F580146D1C5E
:101970006D1C2878692865D006DC00288DD0632886
:1019800027D0642806D15DE06E2808D073282AD0BD
:10199000752877D0DDE90D129047761CE0E0C4F39E
:1019A0000250022809D003280DD0D8F800100428CE
:1019B0000DD00E6008F10408D2E0D8F80010F2173C
:1019C000C1E90062F6E7D8F800100E80F2E70E7069
:1019D000F0E718F8041B8DF8001000208DF80100C6
:1019E000EB46012003E058F804BB4FF0FF306107DD
:1019F0004FF0000701D40AE07F1C57450DDA8742FB
:101A0000FADB1BF807100029F6D106E07F1C87429D
:101A1000FCDB1BF807100029F8D1DDE90D23A9EB49
:101A200007008146214600F0B1F83044C61904E0B1
:101A3000DDE90D121BF8010B90477F1EF8D22146FD
:101A4000484688E058F8040BC4F302514FF00A0BE3
:101A5000032900D100B2042900D140B2002802DAE3
:101A600040422D2102E0210505D52B218DF82410BF
:101A7000012104E006E0E10710D02021F6E708AFDD
:101A8000089113E058F8040BC4F302514FF00A0B0D
:101A9000032900D180B2042900D1C0B20021EEE7B1
:101AA0005946FEF7DAFB303107F8011D0028F7D15F
:101AB000ADEB070000F1200B600702D524F4803461
:101AC00001E04FF0010ADA4502DDAAEB0B0000E06D
:101AD0000020824600EB0B0108980144A9EB0100AD
:101AE0000A90E00306D4DDE90D2321460A9800F0B0
:101AF0004DF806444FF0000908E009A911F8090063
:101B0000DDE90D12904709F10109761C0899894514
:101B1000F3DBE0030CD5DDE90D2321460A9800F044
:101B200035F8064404E0DDE90D1230209047761CBC
:101B3000BAF10001AAF1010AF5DC05E0DDE90D12B8
:101B400017F8010B9047761CBBF10001ABF1010BBC
:101B5000F4DC0A982146DDE90D2300F005F806447F
:101B60006D1C97E6092801002DE9F0410446002587
:101B70001E461746880404D405E039462020B047A5
:101B80006D1C641EF9D52846BDE8F0812DE9F041B1
:101B9000044600251E469046C80301D5302700E0C4
:101BA0002027880404D505E041463846B0476D1C1F
:101BB000641EF9D52846BDE8F081000013B54FF644
:101BC000FF73012269460248FFF758FA00981CBDCE
:101BD000240000201CB5FEF70FFDFFF755FCFFF7B2
:101BE0007BFB2A4828490C2201604FF4E131416017
:101BF00000218160C160C0E904128161C161FFF709
:101C000077F908B172B6FEE7FFF714FBFFF70FFB99
:101C10001F4C022204F10E0120701C48FFF7D8F976
:101C2000002202211B48FEF7D4FC1BA0FFF7F4FDA5
:101C300004F10C05AE1E164BCDE9006508339A1E63
:101C4000911E881EFFF7AAFAB4F9021016A0FFF73A
:101C5000E3FDB4F9041017A0FFF7DEFDB4F9061098
:101C600017A0FFF7D9FDB4F9081018A0FFF7D4FDAD
:101C7000B4F90A1018A0FFF7CFFDB4F90C1019A0A1
:101C8000FFF7CAFDD7E70000001001402400002044
:101C9000000000200008024073746D333220697325
:101CA000206F6B0A0000000041583A202535640A75
:101CB0000000000041593A202535640A0000000068
:101CC000415A3A202535640A0000000047583A205E
:101CD0002535640A0000000047593A202535640A7A
:101CE00000000000475A3A202535640A0000000031
:101CF00000000000000000000102030406070809BC
:101D00000000000001020304281D0008000000205C
:101D100024000000581800084C1D00082400002072
:101D200044040000681800080000000000000000E3
:101D30000000000000000000010000001000000092
:0C1D4000000000000024F400000000007F
:040000050800019955
:00000001FF
