:020000040800F2
:10000000D8070020390200082D1600089B140008AC
:1000100029160008D5030008A11D000800000000F3
:100020000000000000000000000000006B16000847
:10003000D9030008000000006916000849170008ED
:10004000530200085302000853020008530200083C
:10005000530200085302000853020008530200082C
:10006000530200085302000853020008530200081C
:10007000530200085302000853020008530200080C
:100080005302000853020008530200080000000059
:100090000000000000000000000000005302000803
:1000A00053020008530200085302000853020008DC
:1000B00053020008B5170008530200085302000855
:1000C00053020008530200085302000853020008BC
:1000D00053020008611D00085302000800000000E0
:1000E00053020008530200085302000800000000F9
:1000F00000000000000000000000000053020008A3
:1001000000000000530200085302000853020008D8
:1001100000000000000000000000000000000000DF
:10012000530200085302000853020008530200085B
:100130005302000800000000000000000000000062
:100140000000000000000000000000005302000852
:10015000530200085302000853020008530200082B
:1001600053020008530200080000000000000000D5
:10017000000000000000000000000000000000007F
:100180000000000053020008000000000000000012
:10019000530200085302000800F002F800F03CF897
:1001A0000AA090E8000C82448344AAF10107DA45D2
:1001B00001D100F031F8AFF2090EBAE80F0013F0E8
:1001C000010F18BFFB1A43F001031847C81C0000B9
:1001D000E81C0000103A24BF78C878C1FAD852074A
:1001E00024BF30C830C144BF04680C6070470000B1
:1001F0000023002400250026103A28BF78C1FBD830
:10020000520728BF30C148BF0B6070471FB501F0CF
:100210002FFE1FBD10B510BD00F0AAF81146FFF764
:10022000F5FF01F0EFFD00F0C8F803B4FFF7F2FFAF
:1002300003BC01F0B7FD00000948804709480047AA
:10024000FEE7FEE7FEE7FEE7FEE7FEE7FEE7FEE786
:10025000FEE7FEE704480549054A064B70470000E3
:100260005117000899010008D8010020D807002084
:10027000D8030020D8030020704753EA020C00F096
:1002800069802DE9F04B4FF00006002B1FBFB3FA39
:1002900083F503FA05F424FA05F65E4012BF16430F
:1002A000B2FA82F502FA05F4C5F120051EBF22FA62
:1002B00005FC44EA0C04203556EA044C4FEA144489
:1002C00018BF641C4FF000084FF00009904271EB1A
:1002D000030C39D3002919BFB1FA81F701FA07F6E7
:1002E000B0FA80F700FA07F6C7F120071EBF20FA20
:1002F00007FC46EA0C062037B6FBF4FCA7EB050723
:10030000103F07F01F0BCBF120060CFA0BFB2CFA69
:1003100006F644BFB3460026202FA4BF5E464FF02A
:10032000000B5BEA060C08BF4FF0010B19EB0B0941
:10033000ABFB027C48EB0608C01B06FB02CC0BFBA8
:1003400003CC71EB0C01C1E70B460246414648461F
:10035000BDE8F08B13B54FF000004FF00001AFF394
:100360000080BDE81C407047704770477047704779
:10037000754600F02BF8AE4605006946534620F05E
:100380000700854618B020B5FFF764FFBDE82040A0
:100390004FF000064FF000074FF000084FF0000B41
:1003A00021F00701AC46ACE8C009ACE8C009ACE8F4
:1003B000C009ACE8C0098D46704710B50446AFF3DC
:1003C00000802046BDE81040FFF72FBF004870476F
:1003D0007801002000BFFEE77047014691F8350024
:1003E000022803D08020486501207047052081F84D
:1003F00035000868006820F001000A6810600020DD
:10040000F3E70000F8B503460A4600250024002063
:100410000021CDE0012606FA01F5166806EA05047A
:10042000AC4273D15668022E02D05668122E13D1F8
:10043000CF0803F1200656F827004E07F70E0F26C7
:10044000BE40B0434F07FF0E1669BE403043CF0891
:1004500003F1200646F8270018684F000326BE4027
:10046000B043167906F003064F00BE4030431860D3
:100470005668012E08D05668022E05D05668112EF7
:1004800002D05668122E13D198684F000326BE4042
:10049000B0434F00D668BE4030439860586801268C
:1004A0008E40B0431679C6F300168E403043586034
:1004B000D8684F000326BE40B0434F009668BE4048
:1004C0003043D860566806F08056B6F1805F6ED132
:1004D00000BF00260096384E366846F48046364FF8
:1004E0003E603E46366806F48046009600BF00BF78
:1004F000324E8F0856F827008E07370F0F26BE4062
:10050000B0432F4EB34202D1002615E04FE02D4EEE
:10051000B34201D101260FE02B4EB34201D1022696
:100520000AE02A4EB34201D1032605E0284EB34229
:1005300001D1042600E007268F073F0FBE4030435D
:100540001E4E8F0846F82700224E3068A04356689A
:1005500006F48036B6F5803F00D120431D4E306052
:10056000361D3068A043566806F40036B6F5003FE5
:1005700000D12043174E361D3060361D3068A04331
:10058000566806F48016B6F5801F00D12043114E40
:1005900008363060361D3068A043566806F40016F1
:1005A000B6F5001F00D120430A4E0C363060491CBE
:1005B0001029FFF42FAFF8BD44380240083801403D
:1005C000000002400004024000080240000C02400B
:1005D00000100240003C01400AB1816101E00B04BF
:1005E00083617047014800687047000028000020C0
:1005F00003480068034909780844014908607047C6
:10060000280000203000002010B50D48006840F49C
:1006100000700B4908600846006840F4806008607C
:100620000846006840F480700860032000F07CF801
:100630000F2000F007F800F02BF8002010BD00009C
:10064000003C024070B504460E4800784FF47A71C1
:10065000B1FBF0F00C490968B1FBF0F5284600F059
:10066000EDFB08B1012070BD102C07D200222146FD
:10067000501E00F01BF80548046001E00120F2E77D
:100680000020F0E730000020180000202C0000209F
:10069000704700BF00F01F02012191404209920003
:1006A00002F1E022C2F8001100BF70472DE9F05FAF
:1006B00080460D461646002700F0BAFF0746394629
:1006C0002A46334601F00700C0F1070ABAF1040FC9
:1006D00002D94FF0040A01E0C0F1070AD14600F147
:1006E000040ABAF1070F02D24FF0000A01E0A0F1AC
:1006F000030AD4464FF0010A0AFA09FAAAF1010ADC
:100700000AEA020A0AFA0CFA4FF0010B0BFA0CFB88
:10071000ABF1010B0BEA030B4AEA0B0421464046FE
:1007200000F08EFFBDE8F09F00BF00F00702064B0F
:1007300019684FF6FF031940044B0B4343EA0221AB
:10074000014B196000BF70470CED00E00000FA0596
:1007500070B504460D460CB9012070BD58480068BC
:1007600000F00F00A84209D255490D7008460068F4
:1007700000F00F00A84201D00120EEE7207800F041
:10078000020002281DD1207800F00400042805D1C1
:100790004C48006840F4E0504A490860207800F076
:1007A0000800082805D14748006840F460404549E2
:1007B00008604448006820F0F000A16808434149FF
:1007C0000860207800F00100A8B36068012807D114
:1007D0003C4808380068C0F34040B8B90120BCE785
:1007E0006068022802D06068032807D135480838BD
:1007F0000068C0F3406048B90120AEE731480838CE
:100800000068C0F3400008B90120A6E72D48006841
:1008100020F00300616808432A490860FFF7E2FE00
:10082000064609E0FFF7DEFE801B41F28831884270
:1008300002D9032091E707E02248006800F00C008D
:100840006168B0EB810FEDD11D48006800F00F002A
:10085000A84209D91A490D700846006800F00F0037
:10086000A84201D0012078E7207800F00400042895
:1008700007D11448006820F4E050E16808431149AA
:100880000860207800F00800082808D10D480068AA
:1008900020F46040216940EAC1000A49086000F084
:1008A0003DF808490968C1F30311074A515CC84083
:1008B000064908600F20FFF7C5FE00204DE7000045
:1008C000003C0240083802407A1E00081800002050
:1008D00001480068704700001800002000B5FFF7CD
:1008E000F7FF04490968C1F38221034A515CC840FB
:1008F00000BD0000083802408A1E000800B5FFF75E
:10090000E7FF04490968C1F34231034A515CC8401A
:1009100000BD0000083802408A1E00082DE9F0479B
:10092000002400250026A1462548006800F00C00A0
:1009300020B1042805D008283AD105E0DFF88490DA
:1009400039E0DFF8849036E01D48001F006800F0B1
:100950003F041B48001F006800F4800078B11A486B
:100960001749091F0968C1F38811A0FB01700146EE
:10097000224600233846FFF780FC05460EE011486A
:100980000F49091F0968C1F38811A0FB01700146D6
:10099000224600233846FFF770FC05460848001F32
:1009A0000068C0F30140401C4600B5FBF6F902E0C8
:1009B000DFF8109000BF00BF4846BDE8F087000098
:1009C000083802400024F40000127A00F8B504460A
:1009D0000CB90120F8BD207800F00100002874D087
:1009E000F948006800F00C0004280DD0F6480068B3
:1009F00000F00C00082813D1F348001F006800F431
:100A00008000B0F5800F0BD1EF4808380068C0F3C4
:100A10004040002859D06068002856D10120D9E70D
:100A200000BF6068B0F5803F08D1E748083800682B
:100A300040F48030E449083908601EE06068B0F591
:100A4000A02F0DD1E0480838006840F48020DE492E
:100A5000083908600846006840F4803008600CE0FF
:100A6000D9480838006820F48030D7490839086030
:100A70000846006820F48020086000BF606890B1DC
:100A8000FFF7B0FD054606E0FFF7ACFD401B64280C
:100A900001D903209EE7CC4808380068C0F34040E5
:100AA0000028F1D011E0FFF79DFD054606E0FFF7B5
:100AB00099FD401B642801D903208BE7C248083800
:100AC0000068C0F340400028F1D1207800F0020017
:100AD00002285FD1BC48006800F00C0058B1BA4849
:100AE000006800F00C0008281CD1B748001F0068FF
:100AF00000F48000B0B9B44808380068C0F3400082
:100B000020B1E068012801D0012063E7AE48083831
:100B1000006820F0F800216940EAC100AA490839BC
:100B2000086037E0E06800B30120A8490860FFF7DB
:100B300059FD054606E0FFF755FD401B022801D987
:100B4000032047E7A04808380068C0F340000028A9
:100B5000F1D09D480838006820F0F800216940EA8B
:100B6000C10099490839086014E0002097490860DD
:100B7000FFF738FD054606E0FFF734FD401B02286D
:100B800001D9032026E7904808380068C0F34000E8
:100B90000028F1D1207800F0080008282CD16069E5
:100BA000A8B101208A490860FFF71CFD054606E050
:100BB000FFF718FD401B022801D903200AE78248ED
:100BC0006C300068C0F340000028F1D014E0002031
:100BD0007F490860FFF706FD054606E0FFF702FDC6
:100BE000401B022801D90320F4E677486C300068E6
:100BF000C0F340000028F1D1207800F00400042860
:100C000070D1002670483830006800F0805090B9EC
:100C100000BF002000906C483830006840F08050E1
:100C20006949383108600846006800F0805000903B
:100C300000BF00BF01266748006800F48070B0B9AB
:100C40006448006840F4807062490860FFF7CAFC9D
:100C5000054606E0FFF7C6FC401B022801D9032029
:100C6000B8E65C48006800F480700028F2D000BF4D
:100C7000A068012808D154486830006840F001009D
:100C80005149683108601DE0A06805280DD14E4823
:100C90006830006840F004004B496831086008463D
:100CA000006840F0010008600CE0474868300068C8
:100CB00020F001004449683108600846006820F0CF
:100CC0000400086000BFA068A8B1FFF78BFC0546D0
:100CD00009E0FFF787FC401B41F28831884202D9C6
:100CE000032077E626E0384868300068C0F340000B
:100CF0000028EED013E0FFF775FC054608E0FFF78B
:100D000071FC401B41F28831884201D9032061E621
:100D10002D4868300068C0F340000028EFD1012E54
:100D200007D129483830006820F0805026493831F2
:100D3000086000BFA069B8B32348006800F00C0049
:100D400008285ED0A069022846D100201F49086605
:100D5000FFF748FC054606E0FFF744FC401B02286D
:100D600001D9032036E6184808380068C0F340600F
:100D70000028F1D1D4E907010843616A40EA8111F2
:100D80000122A06AC2EB500041EA00412C20005D24
:100D900041EA00600C49091F086001200B49086600
:100DA000FFF720FC054607E02DE0FFF71BFC401B8A
:100DB000022801D903200DE6034808380068C0F373
:100DC00040600028F1D01EE0083802400000474291
:100DD000800E47420070004000200C490866FFF773
:100DE00001FC054606E0FFF7FDFB401B022801D988
:100DF0000320EFE506480068C0F340600028F2D108
:100E000001E00120E6E50020E4E5000000004742A3
:100E100000380240042808D14FF0E021096941F070
:100E200004014FF0E022116107E04FF0E021096971
:100E300021F004014FF0E0221161704770B50446C3
:100E40002546681EB0F1807F01D301200FE0681EA7
:100E50004FF0E02148610F214FF0FF3000F0F0FB30
:100E600000204FF0E021886107200861002070BD5C
:100E70007047704710B504460CB9012010BD94F8B6
:100E8000390028B9002084F83800204600F00CF81A
:100E9000022084F83900211D206800F0A9FC0120FF
:100EA00084F839000020E9E738B504460E49206887
:100EB000884217D100BF002000900C48006840F025
:100EC00002000A4908600846006800F0020000902D
:100ED00000BF00BF032201211D20FFF7E7FB1D20FB
:100EE000FFF7D7FB38BD0000000400404038024047
:100EF00001460868C06840F001000A68D0600868D0
:100F0000006840F001000A681060002070477047D8
:100F100010B5044620680069C0F34000D8B12068CD
:100F2000C068C0F34000B0B16FF0020021680861F2
:100F3000012020762068806900F0030018B1204667
:100F4000FFF7E5FF05E0204600F0ADF8204600F091
:100F5000ABF80020207620680069C0F38000D8B18B
:100F60002068C068C0F38000B0B16FF00400216851
:100F70000861022020762068806900F4407018B172
:100F80002046FFF7C4FF05E0204600F08CF820461D
:100F900000F08AF80020207620680069C0F3C000C5
:100FA000D8B12068C068C0F3C000B0B16FF00800CD
:100FB00021680861042020762068C06900F00300E1
:100FC00018B12046FFF7A3FF05E0204600F06BF8BC
:100FD000204600F069F80020207620680069C0F300
:100FE0000010D8B12068C068C0F30010B0B16FF035
:100FF000100021680861082020762068C06900F48C
:10100000407018B12046FFF782FF05E0204600F04F
:101010004AF8204600F048F8002020762068006951
:1010200000F0010058B12068C06800F0010030B144
:101030006FF0010021680861204600F037F8206851
:101040000069C0F3C01058B12068C068C0F3C01078
:1010500030B16FF08000216808612046FFF708FF7B
:1010600020680069C0F3801058B12068C068C0F3E0
:10107000801030B16FF0400021680861204600F018
:101080005BF820680069C0F3401058B12068C06860
:10109000C0F3401030B16FF0200021680861204695
:1010A000FFF7E7FE10BD70477047000010B504461B
:1010B0001B48844233D11B491B4A1278885C1B4968
:1010C000097800F08FFA00F013FA18480078401CF5
:1010D0001649087008460078082801D100200870D9
:1010E00013480088401C1249088008460088B0F563
:1010F000FA7F14D1002008800E48006808B901204A
:1011000000E000200B49086007480078401C0649B1
:10111000087008460078122801D10020087010BD20
:1011200034000020000000201300002012000020E6
:10113000140000208002414270477047014600229F
:10114000002391F8392091F83A3042EA03007047C1
:101150002DE9F0470446206805682068C6682068C5
:1011600047694FF00008C14605F00F08B8F1000FBD
:101170000AD105F0200038B106F0200020B1204649
:1011800000F0B8FBBDE8F087B8F1000F6DD007F0B4
:10119000010018B906F49070002866D005F001002F
:1011A00030B106F4807018B1E06B40F00100E063EC
:1011B00005F0040030B107F0010018B1E06B40F019
:1011C0000200E06305F0020030B107F0010018B141
:1011D000E06B40F00400E06305F0080030B107F078
:1011E000010018B1E06B40F00800E063E06B68B309
:1011F00005F0200028B106F0200010B1204600F0D4
:1012000079FB20684069C0F38019E06B00F00800AA
:1012100010B9B9F1000F22D0204600F04BFB206836
:10122000406900F04000B0B12068406920F0400003
:1012300021684861606B50B11748616B0865606B4D
:10124000FFF7CBF810B1606B016D88470CE02046CA
:10125000FFF773FF08E02046FFF76FFF04E020462A
:10126000FFF76BFF0020E0638CE705F0800030B1F2
:1012700006F0800018B1204600F03EFD82E705F040
:10128000400030B106F0400018B1204600F022FBCB
:1012900078E700BF76E70000A118000810B5044603
:1012A0000CB9012010BDA06900B100E000BF94F8A6
:1012B000390028B9002084F83800204600F028F8CA
:1012C000242084F839002068C06820F40050216888
:1012D000C860204600F05CFB2068006920F4904064
:1012E000216808612068406920F02A00216848616F
:1012F0002068C06840F400502168C8600020E063A6
:10130000202084F8390084F83A000020CAE7000061
:1013100010B586B004462249206888423ED100BFFD
:10132000002000901F48006840F001001D4908603F
:101330000846006800F00100009000BF00BF00BF39
:101340000020009017481430006840F01000154944
:10135000143108600846006800F01000009000BFDB
:1013600000BF481501900220029001200390022046
:1013700004900720059001A90B48FFF743F84FF4AC
:101380008060019001A90848FFF73CF82520FFF78D
:1013900080F9032211462520FFF788F906B010BD19
:1013A00000100140303802400000024010B50346F2
:1013B00093F83A00202829D101B10AB9012010BDC3
:1013C00000BF93F83800012801D10220F7E701207F
:1013D00083F8380000BF99629A85DA850020D863C7
:1013E000222083F83A0000BF002083F8380000BFB5
:1013F0001868406940F001001C6860611868C068A6
:1014000040F490701C68E0600020D8E70220D6E726
:101410001D4A0168914236D11C49098801F40041F6
:1014200089BB1A49098801F4804171B118490978CA
:101430000A2903D00021154A118024E013490988A4
:1014400041F40041114A11801DE0114909780D292C
:1014500006D10E49098841F480410C4A118012E0FE
:101460000B490978094A1288C2F30D02094B9954B5
:1014700006490988491C054A118011460988C7296F
:1014800001DD002111807047001001402400002080
:101490002600002070000020704700BFFEE700001B
:1014A00000B587B000BF002001900F48006840F0F1
:1014B00004000D4908600846006800F0040001902F
:1014C00000BF00BFFF200290012003900490032082
:1014D00005900122FF210548FFF77EF802A9034885
:1014E000FEF790FF07B000BD303802400008024010
:1014F00010B5012004490860052000F05FFC0020C1
:101500000249C1F8900210BD9082404200804042E2
:1015100000B587B000BF002001902548006840F06A
:101520000200234908600846006800F002000190AC
:1015300000BF00BF00BF002001900846006840F0D7
:10154000040008600846006800F00400019000BF35
:1015500000BF3820029001200390049003200590E2
:1015600002A91448FEF74EFF002208211148FFF798
:1015700033F8002220210F48FFF72EF80122102116
:101580000C48FFF729F800224FF480610A48FFF762
:1015900023F800224FF400610748FFF71DF80022EE
:1015A0004FF480510448FFF717F807B000BD000062
:1015B00030380240000402400008024000F00101FF
:1015C000064A1160C0F34001054AC2F8AC12C0F3EC
:1015D0008001024A0832116070470000A8024142AF
:1015E0000000414270B506460D46002412E046FA5E
:1015F00004F000F001000A49086000200949C1F820
:101600009402052000F0DAFB01200549083108604A
:10161000601CC4B2082CEADB2846FFF7CFFF70BD80
:101620008C8240420080404200BFFEE770470000CD
:1016300002480068C0F30220704700000CED00E093
:1016400010B5002807DA0A07140E054A00F00F0348
:101650001B1FD45403E00A07130E024A135410BD93
:1016600018ED00E000E400E0704770472DE9F0431A
:1016700093B004460D4616469846002700BF00204A
:1016800001902F48006840F080502D4908600846BE
:10169000006800F08050019000BF00BF00BF002034
:1016A00001902848006840F44040264908600846F8
:1016B000006800F44040019000BF00BF0120079087
:1016C0000004089002200D9041050E910F95109492
:1016D0001196CDF8488007A8FFF778F907460FB1B3
:1016E00000BFFEE70F20029002200390002004902C
:1016F0004FF48050059000200690032102A8FFF7C8
:1017000027F807460FB100BFFEE7FFF7E1F84FF4F7
:101710007A71B0FBF1F94846FFF790FBFFF7D8F874
:101720004FF47A71B0FBF1F94846FFF787FB0022CE
:101730001146501EFEF7BAFF13B0BDE8F08300005B
:10174000403802400070004010B5FEF751FF10BD58
:101750001448006840F4700012490860124800689C
:1017600040F001001049086000200F49083108606E
:101770000D4800680D4908400B4908600C48091DD8
:101780000860081F006820F48020091F08600020FE
:1017900005490C3108604FF000600249803908604B
:1017A0007047000088ED00E000380240FFFFF6FEC1
:1017B0001030002410B50248FFF7AAFB10BD00004E
:1017C0003400002070B505460C46074807490860FC
:1017D0000846446000218160C5600161FFF74AFB53
:1017E0000248FFF785FB70BD000400403400002074
:1017F00000220268234B98420BD0B0F1804F08D0F2
:10180000214B984205D0214B984202D0204B984260
:1018100001D1012300E000231BB122F070024B68CC
:101820001A43184B984214D0B0F1804F11D0164B88
:1018300098420ED0154B98420BD0154B984208D0C9
:10184000144B984205D0144B984202D0134B984247
:1018500001D1012300E000231BB122F44072CB68C8
:101860001A4302608B68C3620B688362054B98421F
:1018700001D1012300E000230BB10B6903630123B5
:101880004361704700000140000400400008004030
:10189000000C00400040014000440140004801406D
:1018A00070B50546AC6B0020E085E0842046FFF76C
:1018B00044FC70BD0168C96821F490710268D16070
:1018C0000168496921F0010102685161202180F815
:1018D0003A10704710B504462068C06820F04000F8
:1018E0002168C860202084F839002046FFF7D4FD25
:1018F000002010BD70B5044694F83A00222844D167
:10190000A068B0F5805F13D1A56A206940B920684E
:101910004068C0F308002880A06A801CA06219E01B
:1019200020684068C0B22880A06A401CA06211E014
:10193000206938B920684068C1B2A26A501CA06210
:10194000117007E02068406800F07F01A26A501C17
:10195000A0621170E08D401E80B2E08598B92068C9
:10196000C06820F490702168C8602068406920F049
:10197000010021684861202084F83A002046FFF7E2
:1019800047FD002070BD0020FCE70220FAE70000C0
:101990002DE9F041044600252068056925F44055ED
:1019A000E0680543206805612068C56849F20C605D
:1019B00085432169A068084361690843E1690843D8
:1019C00005432068C5602068456925F44075A06915
:1019D000054320684561E069B0F5004F7ED1C449F8
:1019E0002068884203D0C349206888425DD1FEF751
:1019F00085FF00EBC00101EB001061684900B0FBFE
:101A0000F1F06421B0FBF1F00601FEF777FF00EB87
:101A1000C00101EB001061684900B0FBF1F7FEF76F
:101A20006DFF00EBC00101EB001061684900B0FBE5
:101A3000F1F06421B0FBF1F000EBC00101EB00100C
:101A4000A7EB8000322101EBC0006421B0FBF1F074
:101A500000F0F80006EB4006FEF750FF00EBC00177
:101A600001EB001061684900B0FBF1F7FEF746FF9B
:101A700000EBC00101EB001061684900B0FBF1F020
:101A80006421B0FBF1F000EBC00101EB0010A7EB0B
:101A90008000322101EBC0006421B0FBF1F000F0C6
:101AA000070030442168886020E1FEF717FF00EB53
:101AB000C00101EB001061684900B0FBF1F0642146
:101AC000B0FBF1F00601FEF709FF00EBC00101EBEE
:101AD000001061684900B0FBF1F700E045E0FEF757
:101AE000FDFE00EBC00101EB001061684900B0FB96
:101AF000F1F06421B0FBF1F000EBC00101EB00104C
:101B0000A7EB8000322101EBC0006421B0FBF1F0B3
:101B100000F0F80006EB4006FEF7E0FE00EBC00127
:101B200001EB001061684900B0FBF1F7FEF7D6FE4B
:101B300000EBC00101EB001061684900B0FBF1F05F
:101B40006421B0FBF1F000EBC00101EB0010A7EB4A
:101B50008000322101EBC0006421B0FBF1F000F005
:101B60000700304421688860C0E0614920688842ED
:101B700003D06049206888425CD1FEF7BFFE00EBCD
:101B8000C00101EB001061688900B0FBF1F6FEF7BF
:101B9000B5FE00EBC00101EB001061688900B0FBED
:101BA000F1F06421B0FBF1F000EBC00101EB00109B
:101BB000A6EB8000322101EB00106421B0FBF1F0B4
:101BC00000F0F006FEF79AFE00EBC00101EB0010FA
:101BD00061688900B0FBF1F06421B0FBF1F006EB25
:101BE0000016FEF78BFE00EBC00101EB00106168F0
:101BF0008900B0FBF1F7FEF781FE00EBC00101EBBD
:101C0000001061688900B0FBF1F06421B0FBF1F0D5
:101C100000EBC00101EB0010A7EB8000322101EBCB
:101C200000106421B0FBF1F000F00F003044216897
:101C300088605BE0FEF752FE00EBC00101EB001094
:101C400061688900B0FBF1F6FEF748FE00EBC001C9
:101C500001EB001061688900B0FBF1F06421B0FB7A
:101C6000F1F000EBC00101EB0010A6EB8000322187
:101C700001EB00106421B0FBF1F000F0F006FEF77C
:101C80002DFE00EBC00101EB001061688900B0FB84
:101C9000F1F06421B0FBF1F006EB0016FEF71EFE3A
:101CA00000EBC00101EB001061688900B0FBF1F7A7
:101CB000FEF714FE00EBC00101EB00106168890023
:101CC000B0FBF1F06421B0FBF1F000EBC00101EBDF
:101CD0000010A7EB8000322101EB00106421B0FB63
:101CE000F1F000F00F00304421688860BDE8F08119
:101CF0000010014000140140014691F839002128EC
:101D00002CD18868B0F5805F0FD10A6A1088C0F3C3
:101D100008000B685860086918B9086A801C0862D6
:101D200009E0086A401C086205E00B6A581C08625A
:101D300018780B685860C88C401E80B2C88458B9A7
:101D40000868C06820F080000B68D8600868C06828
:101D500040F040000B68D860002070470220FCE78C
:101D600010B500240C48FFF7F3F900BF01E0641C34
:101D700000BF0948FFF7E2F92028F8D100BF00248E
:101D800001E0641C00BF012204490348FFF70EFB79
:101D90000028F6D100BF10BD380100202600002029
:101DA00000BFFEE700BF704710B504460420FFF7F0
:101DB00031F80148046010BD1C00002070B50346D6
:101DC00000224FF0E02675690D4E366803FB06F4DD
:101DD0004FF0E026B16910E04FF0E026B06988428C
:101DE0000BD0884202D20E1A324402E02E1A0E4460
:101DF00032440146A24200D300E0EDE700BF70BDCF
:101E00001C000020FEF700FC04230222194660207B
:101E1000FFF72CFC6020FFF7C7FF4FF4E13000F024
:101E20000BF8FFF73DFBFFF773FB42F27F511320E6
:101E3000FFF7C8FC00BFFEE710B5044609480A4991
:101E400008600846446000218160C16001618161D1
:101E50000C214161FFF722FA012204490248FFF7F1
:101E6000A5FA10BD00100140380100202600002016
:101E70004FF04070E1EE100A7047000000000000D3
:101E80000000010203040607080900000000010227
:101E900003040000B41E000800000020340000000D
:101EA000D4010008E81E000834000020A407000048
:101EB000F0010008FC60DAF266B6BEE0FEF6EE3E27
:101EC0009C7A9E8E01000000000000000024F400B7
:101ED0000000000000000000000000000000000002
:081EE0001000000001000000E9
:040000050800019955
:00000001FF
