:020000040800F2
:10000000A0090020B101000859270008CB1E0008F4
:1000100039260008A5090008D92C000800000000B6
:10002000000000000000000000000000012900089E
:10003000A7090008000000005B270008032900084A
:10004000CB010008CB010008CB010008CB01000860
:10005000CB010008CB010008CB010008CB01000850
:10006000CB010008CB010008CB010008CB01000840
:10007000CB010008CB010008CB010008CB01000830
:10008000CB010008CB010008CB01000800000000F4
:10009000000000000000000000000000CB0100088C
:1000A000CB010008CB010008CB010008CB01000800
:1000B000CB010008CB010008CB010008CB010008F0
:1000C000CB010008CB010008CB010008CB010008E0
:1000D000CB010008CD2C0008CB0100080000000077
:1000E000CB010008CB010008CB0100080000000094
:1000F000000000000000000000000000CB0100082C
:1001000000000000CB010008CB010008CB01000873
:1001100000000000000000000000000000000000DF
:10012000CB010008CB010008CB010008CB0100087F
:10013000CB010008000000000000000000000000EB
:10014000000000000000000000000000CB010008DB
:10015000CB010008CB010008CB010008CB0100084F
:10016000CB010008CB0100080000000000000000E7
:10017000000000000000000000000000000000007F
:1001800000000000CB01000800000000000000009B
:10019000CB010008CB010008DFF810D000F05CFBB9
:1001A00000480047E1350008AFF30080A0090020B7
:1001B0000648804706480047FEE7FEE7FEE7FEE701
:1001C000FEE7FEE7FEE7FEE7FEE7FEE79929000807
:1001D000990100082DE9F05F0546002092469B46F4
:1001E00088460646814640241BE02846414647464D
:1001F000224600F04BFA53465A46C01A914110D39A
:1002000011461846224600F032FA2D1A67EB010813
:100210004F4622460120002100F029FA17EB000981
:100220004E41201EA4F10104DFDC484631462A4637
:100230004346BDE8F09FD2B201E000F8012B491E11
:10024000FBD270470022F6E710B513460A46044673
:100250001946FFF7F0FF204610BD2DE9FE4F8046FE
:1002600081EA0300C00F0C46009021F0004123F00A
:100270000045B8EB0200A94105D240462146904610
:100280001C460B46024623F00040104347D0270D82
:10029000C7F30A00C3F30A510290401A01904028A4
:1002A0006BDAC3F3130040F4801B0098924620B130
:1002B0000023D2EB030A63EB0B0B01985946C0F104
:1002C0004002504600F0D3F906460D4650465946C6
:1002D000019A00F0EBF910EB08006141002487EA75
:1002E000115284EAE7731A4340D0009A62B3019A2C
:1002F000012A4FEA075215DC001B61EB02014FF0A7
:10030000004202EA0752CDE90042001C41F580118B
:1003100032462B4600F022FA03B0BDE8F08F40468B
:100320002146F9E7001B61EB0201001C41F5801337
:1003300000185B412018A2F5001747EB030140EAC3
:10034000D570B6196D4111E06D084FEA360645EAE1
:10035000C0754FEA0752001B61EB0201001C41F51A
:10036000801149084FEA30000019514132462B46AE
:1003700003B0BDE8F04F00F0E2B900980122400060
:100380000023D0EB020263EBE073009821464FEAB2
:10039000E074B8EB000061EB0401E9E783F000438F
:1003A0005BE781F0004158E72DE9FE4F81EA030445
:1003B00004F0004421F0004100944FF0000B23F0C2
:1003C000004350EA01045ED052EA03045BD0C3F359
:1003D0000A54C1F30A552C44A4F2F3340194A0FB4F
:1003E0000254C1F3130141F48011C3F3130343F426
:1003F000801301FB024400FB034E840A970A44EA7F
:10040000815447EA8357A4FB076802958D0A05FBD0
:1004100007854FEA932C04FB0C542705029D4FEAF5
:10042000065847EA1637B5EB08056EEB070C870E42
:10043000920E47EA811742EA8312A7FB0201B6EB4C
:100440000B0164EB00042B0D43EA0C335E1844EB04
:100450001C50DA465146E7FB0201C5F313044FEA8C
:100460000B3343EA14534FEA0432019C43EA060378
:10047000A4F10C040294009CCDE900B400F06EF9E4
:1004800003B0BDE8F08F00200146F9E72DE9F04DFB
:1004900081EA030404F0004B21F0004514464FF0BC
:1004A000000A23F0004150EA050220D054EA01027C
:1004B0001DD0C5F30A570246C5F31303C1F3130059
:1004C000C1F30A5640F4801543F48013A7EB0608E5
:1004D000101BD64608F2FD3873EB050002D308F175
:1004E000010801E092185B41B8F1000F03DA002027
:1004F0000146BDE8F08D00204FF480110646844689
:100500000EE0171B73EB050705D3121B63EB050306
:1005100006434CEA010C49084FEA300092185B414F
:1005200050EA0107EDD152EA030012D082EA04003A
:1005300083EA0501084305D0101BAB4106D2012216
:10054000002306E000224FF0004302E06FF00102BA
:1005500053101AEB06004CEB085110EB0A0041EB6C
:100560000B01BDE8F04D00F0EAB80EB5C10F80EA0E
:10057000E0700844CA07002140F233438DE80E00C2
:100580000A460B4600F0EAF803B000BD0EB540F293
:10059000334102910021CDE900110A460B4600F0DB
:1005A000DDF803B000BD70B5C1F30A5201F000459B
:1005B0000024C1F3130140F2FF3341F480119A4249
:1005C00001DA002070BD40F233439A42A2F2334276
:1005D00003DC524200F05AF800E090402C43F1D086
:1005E000404270BD00F0004230F000400AD0C10D22
:1005F00001F56071C0F3160042EA0151C2084007DC
:100600001143704700200146704701F0004330B4A9
:1006100021F0004150EA010206D00A0DA2F56072F5
:10062000C1F31301002A02DC30BC00207047440FE4
:1006300044EAC104C100E01830BC00EBC25000F035
:1006400047B830B50B46014600202022012409E0BE
:1006500021FA02F59D4205D303FA02F5491B04FA7B
:1006600002F52844151EA2F10102F1DC30BD202A5A
:1006700004DB203A00FA02F1002070479140C2F1F9
:10068000200320FA03F3194390407047202A04DB2B
:10069000203A21FA02F00021704721FA02F3D040FB
:1006A000C2F120029140084319467047202A06DB18
:1006B000CB17203A41FA02F043EAE07306E041FA30
:1006C00002F3D040C2F1200291400843194670471E
:1006D0000029A8BF7047401C490008BF20F0010056
:1006E000704710B4B0FA80FC00FA0CF050EA010434
:1006F00004BF10BC704749B1CCF1200421FA04F4C6
:1007000011FA0CF118BF012121430843A3EB0C019E
:10071000CB1D4FEA00614FEA102042BF002010BC01
:10072000704700EBC35010440029A4BF10BC7047B1
:10073000401C490008BF20F0010010BC704710B5F4
:10074000141E73F1000408DA401C41F100019218F4
:100750005B411A4301D120F0010010BD2DE9F04D9D
:1007600092469B4611B1B1FA81F202E0B0FA80F2F2
:1007700020329046FFF77BFF04460F4640EA0A000E
:1007800041EA0B0153465A46084313D0114653EA37
:10079000010019D0C8F140025046FFF777FF054627
:1007A0000E46504659464246FFF761FF084305D0C2
:1007B000012004E020463946BDE8F08D00200543C5
:1007C00046EAE0762C4337430A986305E40AA0EB37
:1007D00008000022FD0A44EA47540A3002D50020EE
:1007E0000146E9E7010510196941DDE908450019ED
:1007F0006941BDE8F04DA2E7C1F30A52C1F313010C
:1008000040F2FF3341F480119A4202DA002001469F
:10081000704740F233439A42A2F2334202DC524222
:10082000FFF734BFFFF723BF30B5041E71F100049A
:1008300004DB4FF00044404264EB0101141E73F1ED
:10084000000405DB1C464FF00043524263EB0403F7
:10085000994208BF904230BD064C074D06E0E06863
:1008600040F0010394E8070098471034AC42F6D3F7
:10087000FFF796FCA01E0108C01E0108464910B5EE
:100880004A6822F440324A604A6843681A434A6020
:1008900001684A6822F480724A6001684A68036904
:1008A00042EA03224A6001684A6822F040724A60C4
:1008B00001684A6883681A434A6001688A6822F4BA
:1008C00000628A6001688A68C3681A438A60816A24
:1008D0006FF07062D14201688A6822F070628A60AB
:1008E00001688A680CD0836A1A438A6001688A6842
:1008F00022F040528A6001688A68C36A1A4301E0A4
:1009000022F040528A6001688A6822F002028A60FE
:1009100001688A68037E42EA43028A6090F82010E8
:10092000002901684A680FD042F400624A600168F9
:100930004A6822F460424A6001684A68174C436A78
:1009400004EB43331A4301E022F400624A60016879
:10095000CA6A22F47002CA620168CA6A838B104CA8
:1009600004EB03531A43CA6201688A6822F40072D6
:100970008A6001688A6890F8303042EA43228A60CF
:1009800001688A6822F480628A6001688A68406926
:1009900042EA8020886010BD0023014000E0FFFF94
:1009A0000000F0FFFEE7704700EBC000C1004FF011
:1009B000E020416100218161052101610169C903D4
:1009C000FCD504210161704778B50024009490F8AB
:1009D0003C20012A19D0012280F83C200A68072314
:1009E0000568092A13D9EE680A3A02EB42029340DD
:1009F0009E43EE600B788A680A3B03EB43039A4000
:100A00000368DD682A43DA6010E0022078BD2E69B1
:100A100002EB420293409E432E610B788A6803EBFF
:100A200043039A4003681D692A431A614A681F23D9
:100A3000072A13D205686E6B521E02EB82029340A6
:100A40009E436E630A8893B20A79521E02EB8202B9
:100A500093400268556B2B43536327E005680D2ACA
:100A600012D22E6BD21F02EB820293409E432E6362
:100A70000B790A88DB1F92B203EB83039A40036869
:100A80001D6B2A431A6311E0EE6A0D3A02EB8202F3
:100A900093409E43EE620B790A880D3B92B203EBC2
:100AA00083039A400368DD6A2A43DA621B4B0568B8
:100AB000194A9D420AD10D68122D07D1556825F4B7
:100AC00000055560556845F48005556005689D42F0
:100AD0001DD1134D0B68AB4201D0112B17D15368B8
:100AE00023F480035360536843F4000353600968A0
:100AF000A9420CD10B490C4A0968B1FBF2F101EB98
:100B00008101490000E0491E00910029FBD180F8D5
:100B10003C40002078BD000000230140002001403F
:100B2000120000102C00002040420F000068C06C32
:100B3000704770B504004FF0000503D0206C00260C
:100B400010B107E0012070BD204600F01DF866647A
:100B500084F83C60206CC00610D4206C20F48850CF
:100B600040F0020020642046FFF788FE6664206C97
:100B700020F0020040F00100206400E0012584F82C
:100B80003C60284670BD000010B586B004461421B4
:100B90006846FFF757FB1149206888421CD110486E
:100BA0000021026842F480720260006800F48070E4
:100BB00005900B481438026842F001020260006898
:100BC00000F001000590012000900320CDE9010113
:100BD0006946044800F032F906B010BD002001401B
:100BE00044380240000002402DE9F041044600680C
:100BF0000D4681684FF0000749050BD58068C00598
:100C000008D5206C40F02000206484F83C7001205E
:100C1000BDE8F08100F00CFA064613E0681C11D024
:100C200025B100F005FA801BA8420BD920680068A6
:100C3000800707D4206C40F00400206484F83C70E6
:100C40000320E5E7206800688007E7D521686FF09A
:100C500012000860206C40F40070206420688168F5
:100C600011F0405F13D1217E89B9C16A11F4700F70
:100C700002D0806840050AD4206C20F48070206483
:100C8000206CC00403D4206C40F0010020640020DC
:100C9000BEE7000018B50021009190F83C20012A21
:100CA00007D0012280F83C2002689368DB0702D05D
:100CB00011E0022018BD936843F001039360244AB9
:100CC000244B1268B2FBF3F202EB420200E0521E28
:100CD0000092002AFBD102689368DB072ED0036CD8
:100CE00040F20164A34343F48073036453685B05DB
:100CF00005D5036C23F4005343F480530364036C61
:100D0000DB0404D5436C23F00603436400E0416434
:100D100080F83C1010496FF02203136049680068A6
:100D2000C90602D00D49884210D1816811F0405F98
:100D30000CD1816841F08041816007E0016C41F095
:100D400010010164416C41F001014164002018BDB3
:100D50002C00002040420F000023014000200140F1
:100D60002DE9F0410446876D00F062F9064694F8DB
:100D700035000025022806D08020606584F83450B4
:100D80000120BDE8F0812068016821F016010160B2
:100D90002068416921F080014161206C08B9A06C94
:100DA00020B12068016821F0080101602068016815
:100DB00021F0010101600CE000F03AF9801B0528E8
:100DC00007D920206065032084F8350084F834506A
:100DD000D7E720680068C007EED194F85C103F2088
:100DE0008840B860012084F8350084F83450002031
:100DF000C7E790F83510022903D080214165012012
:100E00007047052180F835100068016821F0010164
:100E1000016000207047000070B5044600F008F93A
:100E20000546601C02D004480078044400F000F934
:100E3000401BA042FAD370BD200000202DE9F84FDE
:100E4000DFF8B8A10022012403254FF00F090AF1B1
:100E5000040BAAF1040E00BF0B6804FA02F633403B
:100E6000B34273D10F7907F00307012F01D0022F8E
:100E700016D187684FEA420805FA08FC27EA0C07F2
:100E8000D1F80CC00CFA08FC4CEA070CC0F808C0FA
:100E90004768B7430E79C6F3001696403E43466056
:100EA0000E79F643B6070DD0C768560005FA06FC62
:100EB00027EA0C07D1F808C00CFA06FC4CEA070C2C
:100EC000C0F80CC00E7906F00306022E10D1D60829
:100ED00000EB8608D8F8206057074FEAD76C09FA6C
:100EE0000CF7BE430F6907FA0CF73743C8F82070B8
:100EF00006684FEA420C05FA0CF7BE430F7907F07B
:100F0000030707FA0CF7374307604E6816F4403FB3
:100F10006DD03B4E376847F480473760366822F023
:100F2000030706F480460096364E07EB060CDCF805
:100F3000086897073F0F09FA07F826EA0806DFF85E
:100F4000C880404503D14FF000081EE04FE0DFF8B5
:100F5000BC80404502D14FF0010816E0DFF8B080B8
:100F6000404502D14FF002080FE0DFF8A88040456D
:100F700002D14FF0030808E0DFF89C80404502D121
:100F80004FF0040801E04FF0070808FA07F848EAB4
:100F90000608CCF80888DAF800605746D1F804C093
:100FA0009E435FEACC2C00D51E433E60DBF8006018
:100FB0005F46D1F804C09E435FEA8C2C00D51E43E7
:100FC0003E60DEF800607746D1F804C09E435FEAD9
:100FD0008C3C00D51E433E60084F083F3E68D1F868
:100FE00004C09E435FEACC3C00D51E433E60521CC9
:100FF000102AFFF431AFBDE8F88F0000083C014033
:101000004438024000300140000002400004024029
:1010100000080240000C0240001002400069084035
:1010200000D0012070470AB1816170470904FBE7D5
:101030000148806870470000200000200248816855
:101040000278114481607047200000200B4810B5E1
:10105000016841F400710160016841F48061016040
:10106000016841F480710160032000F06FF80F20E7
:1010700000F006F800F024F8002010BD003C02400B
:1010800070B50D4D04464FF47A712878B1FBF0F03D
:101090000A490968B1FBF0F000F08DFC48B9102C4A
:1010A00007D200222146501E00F030F800206C606C
:1010B00070BD012070BD0000200000202C00002029
:1010C0000A4808B5016841F480410160006800F4F5
:1010D000804000900548001F016841F08051016088
:1010E000006800F08050009008BD000044380240C5
:1010F000002809DB00F01F02012191404009800017
:1011000000F1E020C0F8001170470000F0B40E4B71
:101110001B680C46C3F30223C3F10705042D00D955
:101120000425191D072901D2002300E0DB1E01263A
:1011300006FA05F1491E214099409E40761E164050
:101140003143F0BC01F0DABD0CED00E0064900F0DF
:10115000070208684FF6FF03184040EA0220034ADE
:1011600010430860704700000CED00E00000FA0535
:101170002DE9F0470E46050065D0DFF81481D8F858
:101180000000F7B200F00700B04207D288F8007004
:10119000D8F8000000F00700B04254D128683D4C58
:1011A000810712D5400703D5206840F4E050206045
:1011B0002878000703D5206840F46040206020684C
:1011C000A96820F0F000084320602878C0072DD0DF
:1011D000304968680839012812D0022813D0032842
:1011E00011D00968890700292DDA216821F003014F
:1011F00001432160FFF71CFF814641F2883A0EE06F
:1012000009688903EFE709688901ECE7FFF710FF38
:10121000A0EB0901514502D90320BDE8F087206801
:10122000696800F00C00B0EB810FEFD1D8F8001026
:10123000404601F00701B14207D90770006800F08D
:101240000700B04201D00120E7E72878400705D524
:101250002068E96820F4E0500843206028780007FF
:1012600006D52068296920F4604040EAC10020606A
:1012700000F038F82168084AC1F30311515CC840F6
:101280000649086006480068FFF7FAFE0020C4E738
:10129000003C024008380240143900082C000020AD
:1012A000240000200448054900680968044AC1F385
:1012B0008221515CC84070472C0000200838024051
:1012C000243900080448054900680968044AC1F344
:1012D0004231515CC84070472C0000200838024061
:1012E00024390008154810B5006810F00C021448A5
:1012F00013D04110042A0FD0082A0ED10F4C241FFE
:101300002268236802F03F025B0207D52068C0F321
:101310008810A0FB010106E0084610BD2168C1F35A
:101320008811A1FB00010023FEF754FF2168C1F3DF
:101330000141491C4900B0FBF1F010BD08380240E2
:101340000024F4002DE9F84F04006ED02078DFF877
:101350004C93C007A9F104054AD009F104000168C3
:10136000C1F38101012908D00068C0F3810002287F
:101370000AD1D9F80000400206D52868800337D585
:1013800060680028E1D033E06068B0F5803F10D09D
:10139000B0F5A02F286810D020F48030286028688D
:1013A00020F4802028606068A8B1FFF741FE06465F
:1013B0000DE0286840F48030F4E740F48020286095
:1013C000F7E700BFFFF734FE801B642873D8286856
:1013D0008003F7D50CE0FFF72BFE064605E000BFC3
:1013E000FFF726FE801B6428F0D828688003F7D416
:1013F0002078DFF8AC8280074FF0000A3ED5A7487E
:10140000001D016811F00C0F08D00068C0F38100C6
:1014100002280BD1D9F80000400207D428688007C1
:1014200016D5E068012800D112E033E1E068B8B1D8
:101430000120C8F80000FFF7FBFD064605E000BFED
:10144000FFF7F6FD801B0228C0D828688007F7D573
:101450002868216920F0F80040EAC10028600DE00A
:10146000C8F800A0FFF7E4FD064604E0FFF7E0FD42
:10147000801B02281FD828688007F7D4207800072F
:1014800022D5864F87486169703771B101210160AB
:10149000FFF7CEFD064604E0FFF7CAFD801B0228D9
:1014A00009D838688007F7D50EE0C0F800A0FFF72C
:1014B000BFFD064605E082E0FFF7BAFD801B02286B
:1014C0007DD838688007F7D42078400768D5DFF8E2
:1014D000CCB100270BF13C0BDBF80000C0000BD4B3
:1014E000DBF8001041F08051CBF80010DBF8000071
:1014F000012700F0805000906B4E3068C00510D47A
:10150000306840F480703060FFF792FD009005E095
:10151000FFF78EFD0099401A022850D83068C005A8
:10152000F6D55E4EA0686C3601280FD005283068CD
:1015300010D020F001003060306820F004003060EE
:10154000A068B8B1FFF774FD00900FE0306840F07C
:101550000100F4E740F004003060F7E7FFF768FDB2
:101560000099411A41F28830814266D8306880077C
:10157000F4D50EE0FFF75CFD009007E0FFF758FDA3
:101580000099411A41F28830814256D8306880076C
:10159000F4D42FB1DBF8001021F08051CBF800100B
:1015A000A069C8B33D49091D0968C1F38101022939
:1015B0004AD00228504607D0C8F8600000E03CE05E
:1015C000FFF736FD04463BE04746C8F86000FFF7EA
:1015D0002FFD064605E000BFFFF72AFD801B02280D
:1015E0002BD828688001F7D4D4E907010843A16A01
:1015F0002E4A490802EB0141626A41EA821108431E
:1016000094F82C1040EA0161C9F8001001203866F6
:10161000FFF70EFD044606E03EE000BFFFF708FDC1
:10162000001B022809D828688001F7D534E000BFE4
:10163000FFF7FEFC001B022802D90320BDE8F88F4B
:1016400028688001F4D427E00128F7D0D9F80000F9
:10165000E26900F4800191421CD1226A00F03F014E
:10166000914217D147F6C071626A0140B1EB821F07
:1016700010D1A26A4FF0FF3300F4403103EB520265
:10168000B1EB024F06D194F82C1000F07060B0EB73
:10169000016F01D00120D1E70020CFE704380240DC
:1016A00000004742800E4742007000400000FFFFEC
:1016B00070B5040009D0606A002540B125616561FC
:1016C000A56294F8510040B10CE0012070BD606843
:1016D000B0F5827FF4D0E561F2E784F850502046FF
:1016E00000F044F8022084F851002068016821F0DD
:1016F00040010160A088218900F4827001F4044156
:101700000843A18901F400610843217C01F0020132
:101710000843217D01F001010843218B01F4007190
:101720000843217F01F03801084394F8201001F0AC
:1017300080010843218D01F40051084321680860AD
:10174000A069042101EA104094F8241001F010016E
:101750000843216848602068C16921F40061C161C3
:101760006565012084F85100002070BD10B586B079
:10177000044614216846FEF765FD13492068884237
:1017800020D11248016841F480510160006800F4E2
:10179000805005900D481438016841F00101016046
:1017A0000068694600F001000590E02000900220EA
:1017B000019001200290032003900520049004482A
:1017C000FFF73CFB06B010BD00300140443802403A
:1017D000000002402DE9F84F044690F85000002721
:1017E0000A9E1D4692468B464FF0010901280ED0F5
:1017F000012084F85000FFF71BFC804694F851004C
:10180000616801280CD0B1F5827F07D102E0022087
:10181000BDE8F88FA16809B9042801D00227C2E009
:10182000BBF1000F27D0BAF1000F24D01DB394F8FC
:101830005100042802D0052084F851000020606582
:10184000C4F838A0E587A587C4F830B0E586A5863A
:101850002064606420680168490603D4016841F08F
:1018600040010160E068B0F5006F606805D0E8B342
:10187000012D46D07FE0012795E008B1012D39D137
:10188000206B21680088C860206B801C2063E08E7C
:10189000401EE0862EE02068816889070FD5E18E22
:1018A00069B1B9F1010F0AD1216B0988C160206BC0
:1018B000801C2063E08E401EE0864FF00009206807
:1018C0008168C9070CD0E18F51B1C068A16B088055
:1018D000A06B801CA063E08F401EE0874FF00109E1
:1018E000FFF7A6FBA0EB0800B04200E009E001D33F
:1018F000701C50D1E08E0028CDD1E08F0028CAD1D5
:101900003FE0206B216800780873206B401C206347
:10191000E08E401EE0862EE02068816889070FD5A2
:10192000E18E69B1B9F1010F0AD1216B0978017318
:10193000206B401C2063E08E401EE0864FF00009C3
:1019400020688168C9070CD0E18F51B1C068A16BD4
:101950000870A06B401CA063E08F401EE0874FF032
:101960000109FFF765FBA0EB0800B04202D3701C31
:1019700001D010E07EB1E08E0028CDD1E08F0028AC
:10198000CAD142463146204600F032FF28B1012735
:101990002020606507E0032705E0A06818B92068EB
:1019A000C16880680090012084F85100002084F80C
:1019B000500038462CE710B5401EB0F1807F01D3AF
:1019C000012010BD4FF0E02460610F21601701F08D
:1019D00095F90020A06107202061002010BD70470C
:1019E00070470000F8B5016804460868CA684B698A
:1019F00010F00F0F4FF0000559D003F0010602F46C
:101A00009077374365D0C10705D0D10503D5216C48
:101A100041F001012164410705D5D90703D0216CAC
:101A200041F002012164810705D5D90703D0216C5B
:101A300041F004012164010707D502F02001314380
:101A400003D0216C41F008012164216C00293AD0B7
:101A5000800604D5900602D5204600F0F6FF2068E7
:101A60004069216CC0F38010090700D460B32046A0
:101A700000F0C4FF20684069400621D5206814307A
:101A800050E8001F21F0400140E80012002AF5D183
:101A9000A06BA8B16C490165A06BFFF7AAF90028FB
:101AA00011D0A06B016D01B0BDE8F040084783067E
:101AB0000FD593060DD52046BDE8F84000F0C5BF10
:101AC0002046FFF78DFFF8BD2046FFF789FF25640C
:101AD000F8BD266B2023012E79D1C60677D5D60610
:101AE00075D50868486800904869400640D5A16BE4
:101AF000086840680004000CEAD0A28D8242E7D951
:101B0000E085C869B0F5807F2DD020680C3050E8A2
:101B1000001F21F4807140E80012002AF5D12068EE
:101B2000143050E8001F21F0010140E80012002AA3
:101B3000F5D12068143050E8001F21F0400140E842
:101B40000012002AF5D184F83E30256320680C305D
:101B500050E8001F21F0100140E80012002AF5D1E2
:101B6000A06BFFF7FDF8A08DE18D401A81B229E04E
:101B7000A08DE18D401A81B2E08D0028A8D0002907
:101B8000A6D020680C3050E8002F22F4907240E874
:101B90000026002EF5D12068143050E8002F22F0E6
:101BA000010240E80026002EF5D184F83E3025637E
:101BB00020680C3050E8002F22F0100240E800238B
:101BC000002BF5D12046FFF70AFFF8BDFFE7050619
:101BD0002BD5150629D594F83D002128F5D1A0680C
:101BE000B0F5805F01D12069B0B1206A411C21624B
:101BF000216800784860E08C401E0004000CE084FE
:101C0000E3D12068C16821F08001C1602068C1680B
:101C100041F04001C160D8E7206A0088C0F30800A5
:101C20004860206A801C2062E5E74006CDD550065A
:101C3000CBD5CA68204622F04002CA6084F83D3005
:101C400000F042F9C1E70000ED29000870B504007A
:101C500004D094F83D00002510B106E0012070BDCD
:101C600084F83C50204600F023F8242084F83D00FE
:101C70002068C16821F40051C160204600F046FF91
:101C80002068016921F4904101612068416921F0D7
:101C90002A0141612068C16841F40051C160256496
:101CA000202084F83D0084F83E00002070BD000034
:101CB00010B586B0044614216846FEF7C3FA1849E9
:101CC0002068884229D117480021026842F010029A
:101CD0000260006800F01000059012481438026895
:101CE00042F001020260006800F0010005904FF42C
:101CF000C06000900220CDE901010320039007207D
:101D0000049069460848FFF799F800220121252030
:101D1000FFF7FCF92520FFF7EBF906B010BD000036
:101D200000100140443802400000024090F83E306C
:101D3000202B0ED159B152B190F83C30012B08D074
:101D4000012380F83C300023036300F065BF0120CD
:101D5000704702207047000070B500681A49884239
:101D60002AD1022219491A4800F08FF8174C194D50
:101D70002078612809D1002201212846FFF753F974
:101D8000022221461248FFF7D1FF2078622809D1AC
:101D9000012211462846FFF746F902220B490C485A
:101DA000FFF7C4FF2078632806D100F01FFB022252
:101DB00006490748FFF7BAFFBDE870400222034911
:101DC0000348FFF7B3BF00000010014010000020DF
:101DD00080000020000802402DE9F843044690F8F6
:101DE0003D001F4616460D4620284CD1C5B1BEB158
:101DF00094F83C00012846D0012084F83C004FF0C4
:101E00000008C4F84080212084F83D00FFF710F955
:101E1000A6848146E684A068B0F5805F03D004E024
:101E20000120BDE8F883206928B12E465FF0000547
:101E300084F83C800EE00026FAE78021204600F07E
:101E400008FFA0B9AEB116F8010B21684860E08C1C
:101E5000401EE084E08C4B464FF0000200970028C3
:101E6000EBD14FF04001204600F0F3FE30B10320EB
:101E7000D7E735F8020BC0F30800E6E7202084F826
:101E80003D000020CDE70220CBE790F83D30202B2D
:101E900018D1A9B1A2B190F83C30012B12D0016247
:101EA0008284C28400210164212280F83D2080F8D0
:101EB0003C100068C16841F08001C160002070479B
:101EC00001207047022070477047FEE72DE9F0417E
:101ED00007461C4615460E462A2000F057FA380AD7
:101EE00000F062FAF8B200F05FFA280A00F05CFA3B
:101EF000E8B200F059FA2B2000F048FA300A00F05E
:101F000053FAF0B200F050FA200A00F04DFAE0B2B5
:101F100000F04AFABDE8F0412C2000F037BA00008A
:101F200070B5040AC5B2EF2300211A460846FFF730
:101F3000CDFF0F4900204FF4107200BF01F8104090
:101F400001EB4003401C80B25D709042F6D3012249
:101F500010210848FFF767F800244FF490652946E0
:101F6000034800F017F9641CA4B2642CF7D370BDC9
:101F70001C01002000000240184810B5016886B01E
:101F800041F0010101600068154C00F0010005906E
:101F90005C2000900120019002900320039069468C
:101FA0002046FEF74BFF002240212046FFF73BF87A
:101FB000002204212046FFF736F80022082120469F
:101FC000FFF731F87820FEF727FF0122082120468D
:101FD000FFF729F800F0C2FB06B010BD3038024010
:101FE0000000024010B5FFF7C7FF7820FEF714FF8E
:101FF000112000F0CBF97820FEF70EFF362000F01C
:10200000C5F9002000F0D0F93A2000F0BFF96520B2
:1020100000F0CAF9B22000F0B9F90C2000F0C4F9C0
:102020000C2000F0C1F9002000F0BEF9332000F0D0
:10203000BBF9332000F0B8F9B72000F0A7F97220FF
:1020400000F0B2F9BB2000F0A1F93D2000F0ACF99E
:10205000C02000F09BF92C2000F0A6F9C22000F06F
:1020600095F9012000F0A0F9C32000F08FF91920A4
:1020700000F09AF9C42000F089F9202000F094F9CA
:10208000C62000F083F90F2000F08EF9D02000F078
:102090007DF9A42000F088F9A12000F085F9E02066
:1020A00000F074F9D02000F07FF9042000F07CF9F2
:1020B0000D2000F079F9112000F076F9132000F0DE
:1020C00073F92B2000F070F93F2000F06DF95420D7
:1020D00000F06AF94C2000F067F9182000F064F96C
:1020E0000D2000F061F90B2000F05EF91F2000F0D8
:1020F0005BF9232000F058F9E12000F047F9D020E7
:1021000000F052F9042000F04FF90C2000F04CF9D7
:10211000112000F049F9132000F046F92C2000F0BE
:1021200043F93F2000F040F9442000F03DF95120F0
:1021300000F03AF92F2000F037F91F2000F034F9B1
:102140001F2000F031F9202000F02EF9232000F0AC
:102150002BF9212000F01AF9292000F017F9EF23BC
:1021600000211A460846FFF7B1FE4FF6FF70FFF751
:10217000D7FE0122BDE8104004210148FEF753BFFD
:10218000000002400246012000E05043491EC9B24F
:10219000FBD2704700F01ABB2DE9F05F203AD7B2AE
:1021A0001C46F022A2EB540282425BD3C4F1F0023F
:1021B0008A4257DB0A19521E93B200EB5402521E98
:1021C00092B2FFF783FE3F4E102C1AD0202C18D06D
:1021D0000C2C49D0182C45D13B4907EB47004FF058
:1021E000300A002401EB00194FEA060819F80460D0
:1021F000E00756D004270025300654D5B8F8000073
:1022000053E0600700D0012000EBD400610810FB10
:1022100001F000F0FF082D48002500EB071A00F53B
:10222000BE5000EBC71BB1461AE0102C09D0202C81
:1022300018D11BF805600027300605D5B9F8000055
:1022400004E01AF80560F6E7B9F8020000F0BAF801
:1022500070067F1C060EFFB2082FEDD36D1CEDB289
:102260004545E2D3BDE8F09F194807EB47014FF021
:102270000C09002400EB8108002518F804703806CA
:1022800001D5308800E0708800F09CF878066D1C5D
:10229000070EEDB2062DF2D3641CE4B24C45EBD32D
:1022A000E0E70827A7E7B8F8020000F08BF870060F
:1022B0006D1C060EEDB2BD429ED3641CE4B25445C3
:1022C00094D3CFE73000002090430008A03D0008E1
:1022D0002C3900082DE9F05F0026DDF828901D4616
:1022E00092468B46804634464FEA590723E0281B26
:1022F000401EC1B20A20FFF745FFBAFBF0F00A21E9
:10230000B0FBF1F201FB120026B9691E8C4201DA22
:1023100038B101263030C2B207FB048080B24B4690
:1023200004E007FB048080B24B4620225946FFF7A9
:1023300033FF641CE4B2AC42D9D3BDE8F09F2DE971
:10234000F047044600F0FF0910190D46DDE908A624
:102350001FFA80F8581987B210E0444503D305EB03
:102360000A004C4685B2BD420DD25346294620464E
:10237000FFF712FF04EB5A0084B2761C3278A2F108
:1023800020005E28E9D9BDE8F087000001B50022F1
:1023900010210448FEF747FE01216846FFF7FAFEC8
:1023A00008BD00000000024001B5012210210448D0
:1023B000FEF739FE01216846FFF7ECFE08BD00007C
:1023C0000000024008B500210091010A8DF80010BC
:1023D0008DF80100012210210348FEF724FE02219E
:1023E0006846FFF7D7FE08BD0000024010B5094C53
:1023F000002201212046FEF716FE6420FEF70CFDA8
:10240000012211462046FEF70EFEBDE81040642072
:10241000FEF702BD000802402DE9F0470746DDE95E
:10242000089A1D4690460E463B2000F05CF8044694
:102430003C2000F058F840EA042038803D2000F0AD
:1024400052F804463E2000F04EF840EA0420308066
:102450003F2000F048F80446402000F044F840EAED
:102460000420A8F80000432000F03DF80446442072
:1024700000F039F840EA04202880452000F033F8C5
:102480000446462000F02FF840EA0420A9F8000096
:10249000472000F028F80446482000F024F840EADD
:1024A0000420AAF80000BDE8F087752000F01BB8F2
:1024B00010B501216B2000F035F800216C2000F0F0
:1024C00031F80921192000F02DF806211A2000F01A
:1024D00029F818211B2000F025F81821BDE810402C
:1024E0001C2000F01FB810B5044600F0FDF8D02005
:1024F00000F0E6F800F0B0F8204600F0E1F800F057
:10250000ABF800F0F1F8D12000F0DAF800F0A4F810
:1025100000F0B1F80446012000F0C7F800F0F3F82D
:10252000204610BD70B50D46044600F0DDF8D02001
:1025300000F0C6F800F090F8204600F0C1F800F076
:102540008BF8284600F0BCF800F086F8BDE8704033
:1025500000F0D9B87FB50024144800940194029487
:1025600011490394C0E900140125056184600576D2
:1025700080F820400E49C0E90A14C561C46080F8A3
:1025800030404561FEF7D5FA08B172B6FEE7CDE9F5
:102590000045694605480295FEF716FA002801D065
:1025A00072B6FEE77FBD0000002001403800002029
:1025B0000100000FF0B587B014216846FDF742FE18
:1025C0001B480026016841F004010160016801F028
:1025D00004010591016841F080010160016801F08A
:1025E00080010591016841F0010101600068114F0F
:1025F00000F001000590012240F203313846FEF759
:1026000012FD01240320CDE9000402256946384665
:10261000CDE90245FEF712FC4FF4407003958DE8BA
:10262000510069463846FEF709FC07B0F0BD0000CE
:102630003038024000080240FEE7000010B54FF4B9
:1026400000710448FEF7EAFC02460A20FEF7ACF9E6
:10265000104610BD0008024010B5012000F06EF8D1
:10266000012000F05DF8FFF7E9FF0446002000F0CC
:1026700057F8204610BD70B50025012000F05EF827
:1026800000248026012000F04BF8FFF7D7FF012837
:1026900002D126FA04F00543002000F041F8641C42
:1026A000E4B2082CEED3284670BD10B500F046F811
:1026B000012000F035F8BDE81040002000F030B8EF
:1026C00070B500240546802626FA04F0284000F064
:1026D00035F8012000F024F8002000F021F8641CF7
:1026E000E4B2082CF0D370BD10B5012000F026F83C
:1026F000012000F015F8002000F020F8BDE810409F
:10270000002000F00DB810B5002000F017F80120EF
:1027100000F006F8BDE81040012000F00FB80000FE
:1027200010B502464FF480710348FEF77CFCBDE80B
:1027300010400A20FEF738B90008024010B50246E2
:102740004FF400710348FEF76EFCBDE810400A200C
:10275000FEF72AB900080240FEE7704710B5124C98
:102760001048022120604FF4827060600020A06059
:10277000C4E90301012161614902C4E90610206234
:102780006062A0620720E0622046FEF791FF2068A9
:10279000016841F040010160BDE81040FF2000F0F9
:1027A00005B8000000300140C400002001B582B02F
:1027B0004FF47A700090012301AA02A90248FFF7A2
:1027C00009F89DF804000EBDC400002010B50022D9
:1027D000064B06E0845CDC609C68A407FCD5521CB8
:1027E00092B28A42F6D3012010BD000000300140B1
:1027F00038B504461248134B0068B0FBF3F04FF4B1
:102800007A73584300906068B0F5827F0DD10B4613
:10281000009200228021204600F016F870B1606D11
:1028200040F020006065032038BD009830B1401EA4
:10283000009020688068C0430006F6D5002038BDAF
:102840002C00002000366E012DE9F8431E4691460B
:1028500088460446089DFEF7EBFB401B351AFEF741
:10286000E7FB074625480068C0F3CB30684338E0F3
:10287000701C37D0FEF7DCFBC01BA84203D215B199
:10288000009860B32CE02068416821F0E0014160CD
:102890006068B0F5827F0BD1A068B0F5004F02D020
:1028A000B0F5806F04D12068016821F0400101601B
:1028B000A06AB0F5005F09D12068016821F40051D9
:1028C00001602068016841F400510160012084F832
:1028D0005100002084F850000320BDE8F883002553
:1028E000401E00902068816838EA010004D0002171
:1028F0004945BDD10020F0E70121F9E72C00002077
:102900007047FEF79BBB000030B593B0302168469E
:10291000FDF798FC14210CA8FDF794FC1C48002539
:10292000016841F080510160006800F08050119012
:102930001848016841F4404101600068022400F435
:102940004040119001200090000401908001CDE9E9
:10295000064008AA0420482182E813000B9068462C
:10296000FEF7F0FC08B172B6FEE70CA90F2081E873
:1029700031004FF48050CDE90F0502210CA8FEF77D
:10298000F7FB002801D072B6FEE713B030BD00009F
:1029900040380240007000401048016841F4700166
:1029A00001600F48016841F0010101600C4A0021FB
:1029B0000832116002680B4B1A400260031D0A4A7C
:1029C0001A60026822F48022026005480C3001601F
:1029D00002495806803908607047000088ED00E021
:1029E00000380240FFFFF6FE1030002410B5806B67
:1029F0000021C185C184FEF7F3FF10BD01680C31D1
:102A000051E8002F22F4907241E80023002BF5D109
:102A10000168143151E8002F22F0010241E800233F
:102A2000002BF5D1016B012909D101680C3151E866
:102A3000002F22F0100241E80023002BF5D12021C5
:102A400080F83E1000210163704708B590F83E10F1
:102A5000222901D0022008BD82684FF480539A4297
:102A600001D1016921B1816A9A421BD04AB10AE0C1
:102A70000268816A5268C2F308020A80816A891C6E
:102A800008E0026972B10268526802F07F020A70BF
:102A9000816A491C8162C18D491E0904090CC185E6
:102AA00003D019E002685268F1E70168CA6822F0B1
:102AB0002002CA600168CA6822F48072CA60016894
:102AC0004A6922F001024A61202180F83E10016B20
:102AD000012903D0FFF740F9002008BD0021016360
:102AE00001680C3151E8002F22F0100241E8002368
:102AF000002BF5D101680A68D20602D50A68496838
:102B00000091818DFEF76BFFE6E7000070B504468B
:102B100000680169E26821F44051114301612169B3
:102B2000A068E26908436169114308432168CA68E3
:102B300049F20C639A430243CA6020684169A26962
:102B400021F440711143416131492068884202D02B
:102B50003049884202D1FEF7B5FB01E0FEF7A2FB47
:102B6000E2690023192164253226B2F5004F62681C
:102B700028D0A0FB0101930F9200FDF72BFB01462B
:102B8000B0FBF5F06FF01802504301EB800006EB4C
:102B90000010B0FBF5F000F0F002B1FBF5F002EB35
:102BA0000012B1FBF5F06FF01803584301EB800001
:102BB00006EB0010B0FBF5F000F00F0021681044A8
:102BC000886070BDA0FB010192185B41FDF702FB1C
:102BD0000146B0FBF5F00201B1FBF5F06FF0180310
:102BE000584301EB800006EBC000B0FBF5F000F0AD
:102BF000F80002EB4002B1FBF5F0584301EB800016
:102C000006EBC000B0FBF5F000F00700D6E70000CF
:102C1000001001400014014081628285C2850021BC
:102C20000164222280F83E2080F83C10016921B125
:102C30000168CA6842F48072CA6001684A6942F059
:102C400001024A610068C16841F02001C1600020B2
:102C500070472DE9F041984617460E460446069DFA
:102C600027E0681C25D02DB1FEF7E2F9A0EB0800A3
:102C7000A8421ED920680C3050E8001F21F4D07102
:102C800040E80012002AF5D12068143050E8001FF7
:102C900021F0010140E80012002AF5D1202084F83B
:102CA0003D0084F83E00002084F83C000320BDE88D
:102CB000F0812068006836EA000004D00020B842A5
:102CC000CFD00020F3E70120F9E700000148FEF72C
:102CD00089BE000080000020FEE700000FB4054B15
:102CE00010B503A9044A029800F0EAF810BC5DF898
:102CF00014FB0000C9350008340000200907090E44
:102D0000002804DB00F1E02080F80014704700F098
:102D10000F0000F1E02080F8141D704702E008C8A1
:102D2000121F08C1002AFAD170477047002001E045
:102D300001C1121F002AFBD1704700002DE9FF5F7F
:102D400082B00021DDE90430020DDDF840B003431C
:102D500018D044F61050A2F2FF32424315141198D5
:102D600001281FD0A5EB0B00401C5FEA000A4FF0C2
:102D700000064E4FDFF83891B046504615D5CAF1DF
:102D8000000413E0119801244AA3012801D16FEA3D
:102D90000B010298119AC0E90031C0E9024206B065
:102DA000BDE8F09FCBF10000DFE704460021404A78
:102DB000491842EB0450CDE9001012E0E00707D0BB
:102DC00032463B4640464946FDF7EEFA8046894684
:102DD00032463B4610461946FDF7E6FA06460F46D0
:102DE0006410002CEAD1DDE90401DDE90023BAF129
:102DF000000F06DAFDF7D8FA42464B46FDF7D4FA43
:102E000005E0FDF743FB42464B46FDF73FFB04461A
:102E10000E460022284BFDF707FD03D84FF0FF3088
:102E2000014607E00022254B20463146FDF715FA02
:102E3000FDF7E2FC102409E0002C0ADB0A22002343
:102E4000FDF7C8F9039B30321A55641E50EA01029F
:102E5000F2D1641C039AC4F111031444119A012A9B
:102E600003D0012208430DD10AE0084304D000201A
:102E70004FF0110B119072E7A3EB0B056D1E0DE0E7
:102E80005B4504DD4FF0000205F1010504E003DAC3
:102E90004FF00002A5F10105002AECD0029811992B
:102EA000C0E90231C0E9004579E7000000001440A4
:102EB0000000F03F300000000000F0430000E03F61
:102EC0002DE9FF4F95B09A46884606460025EEE16B
:102ED000252877D100242746F94A0121039400E0F0
:102EE000044316F8013F203B01FA03F01042F7D1EA
:102EF00030782A2811D06FF02F033078A0F13002FB
:102F0000092A16D8039A44F0020402EB820203EB6A
:102F100042021044761C0390EFE758F8042B03920A
:102F2000002A03DA504244F40054039044F00204AF
:102F3000761C30782E2816D116F8010F44F00404C0
:102F40002A280DD06FF02F023078A0F13003092B22
:102F500009D807EB870302EB4303C718761CF3E796
:102F600058F8047B761C30786C280FD006DC4C288F
:102F700017D068280DD06A2814D104E0742810D026
:102F80007A280FD10DE044F400140AE044F48014D0
:102F900001E044F440147278824202D104F58014B6
:102FA000761C761C307866280BD013DC582877D036
:102FB00009DC002875D04528F6D04628F4D04728EB
:102FC0001AD193E118E0632835D0642879D06528B8
:102FD00012D18BE1702873D008DC6728F1D0692802
:102FE0006FD06E280DD06F2806D1ACE073282CD09E
:102FF000752874D0782853D05246179990476D1C85
:1030000054E1C4F30250022809D003280DD0D8F8A7
:10301000001004280DD00D6008F1040846E1D8F82E
:103020000010EA17C1E90052F6E7D8F800100D8049
:10303000F2E70D70F0E718F8041B8DF8001000207F
:103040008DF80100EB46012003E058F804BB4FF077
:10305000FF3061074FF0000102D40DE009F10101DA
:103060008946B9420FDA8145F8DB1BF809100029BF
:10307000F4D108E009F1010189468142FADB1BF82D
:1030800009100029F6D103985346A0EB0907214601
:103090003846179A00F080FA284400EB090507E04B
:1030A00044E008E10DE01BF8010B524617999047E8
:1030B000B9F10109F7D2534621463846179AF2E092
:1030C00039E00A21C4F302524FF0000B0091022AAA
:1030D00006D058F8040BC117032A09D00AE023E0F0
:1030E00008F1070020F00702F2E80201904605E02F
:1030F00000B2C117042A01D140B2C117002906DA73
:103100000A460021404261EB02012D2202E0220525
:1031100004D52B228DF80420012203E0E20701D020
:103120002022F7E7914657E00A2100E010214FF0F6
:10313000000B00910BE010214FF0000B44F0040451
:103140000827009103E008204FF0000B0090C4F323
:103150000252022A05D058F8040B0021032A08D095
:1031600008E008F1070020F00702F2E802019046AB
:1031700003E080B2042A00D1C0B24FF00009220758
:103180002AD53278702A07D0DDF800C08CF0100CF8
:103190005CEA0B0C05D00EE040228DF804200122E1
:1031A00008E050EA010306D030238DF804308DF892
:1031B000052002229146009B83F0080353EA0B038B
:1031C0000AD150EA010201D1620705D530228DF8FB
:1031D00004204FF001097F1E3278582A04D039A20A
:1031E0000C920CAA02920BE03BA2F9E75B46009A14
:1031F000FCF7F0FF0C9B9B5C029A521E029213702C
:1032000050EA0102F2D1029804A9081A00F1200B39
:10321000600702D524F4803400E001275F4502DD19
:10322000A7EB0B0000E0002000EB0B0100900398DF
:103230004944401A0390E00306D453462146179AA6
:10324000039800F0A9F90544002706E001A85246BA
:10325000C05D179990476D1C7F1C4F45F6DBE0035E
:103260000CD553462146179A039800F095F905446A
:1032700004E030205246179990476D1C0099481E73
:1032800000900029F5DC08E0029802995246007887
:10329000491C0291179990476D1CBBF10001ABF1DD
:1032A000010BF1DC5BE100F065F90544761C307838
:1032B00000287FF40DAE19B02846BDE8F08F00005D
:1032C00009280100303132333435363738396162FC
:1032D00063646566000000003031323334353637C0
:1032E000383941424344454600000000600700D49D
:1032F000062708F1070020F00700F0E802238046C7
:1033000003F0004C5FEA0C0001D097A009E0200513
:1033100001D596A005E0E00701D095A001E0AFF24D
:103320004C001390307823F0004365280CD006DC65
:10333000452809D046281DD047287FD13BE0662884
:1033400018D067287AD136E00021112F01DB112037
:1033500000E0781CCDE9000104A90CA8FFF7EEFC01
:10336000DDE90D010C9A4FF0000B07F101091092F5
:1033700000914EE04FF000400097CDE9011004A904
:103380000CA8FFF7DBFCDDE90D020C9B0F994FF059
:10339000000B91461093009211B9791C00EB0109C2
:1033A000B7EB090003D4C0F1FF3B07F10109A9EB1A
:1033B0000700019042E0012F00DA01270021112FC0
:1033C00001DD112000E03846CDE9000104A90CA878
:1033D000FFF7B4FCDDE90D010C9A00914FF0000BF2
:1033E000B946109221070FD4009A4A4503DA914654
:1033F00001E0A9F10109B9F1010F05DD109AA9F168
:103400000101515C3029F4D0B84202DA10F1040F06
:1034100003DA0121CDE9011010E0002803DC834428
:10342000A9EB000102E0411C494500DD8946A0EB03
:103430000B00401C01904FF000400290200705D483
:103440000198484502DB4FF0FF30019000208DF8D5
:103450004B0002980DF14B07B0F1004F25D0022030
:103460000C902B200D90029800280CDA404202901C
:103470002D200D9007E00A210298FDF7E2F8303187
:10348000029007F8011D0C99481E0C900029F2DCEF
:1034900002980028EFD1791E0D980870307800F05E
:1034A000200040F0450007F8020D11A8C01BC01D08
:1034B00002901398007800B1012000EB09010198F7
:1034C00001EBE071029801440398401A401E0390FA
:1034D000E00306D453462146179A039800F05CF89F
:1034E00005441398007818B15246179990476D1CFF
:1034F000E00323D553462146179A039800F04CF871
:1035000005441BE0BBF1000F07DB0098584504DDC4
:103510001098179910F80B0001E0179930205246C7
:10352000904701980BF1010B401E05F10105019038
:1035300004D12E205246179990476D1CB9F1000115
:10354000A9F10109DEDC05E017F8010B52461799D5
:1035500090476D1C0299481E02900029F4DC5346E6
:103560002146179A03989EE62D0000002B000000CC
:10357000200000002DE9F041044600251E461746B4
:10358000880404D405E039462020B0476D1C641E31
:10359000F9D52846BDE8F0812DE9F0410446002523
:1035A0001E469046C80301D5302700E02027880436
:1035B00004D505E041463846B0476D1C641EF9D578
:1035C0002846BDE8F081000013B54FF6FF730122D5
:1035D00069460248FEF700FC00981CBD80000020F0
:1035E0002DED0C8B82B0FDF731FDFFF78DF9FEF765
:1035F000E1FF924890490C2201604FF4E1314160B3
:1036000000218160C160C0E904128161C161FEF7DF
:103610001DFB08B172B6FEE7FEF79CFFFFF79EF8B0
:10362000FEF7E0FC4FF61F00FEF77AFC844C4FF6E5
:10363000FF7084A120802020CDE900010346F02204
:1036400064210020FEF77BFE182081A1CDE9000156
:103650000346F0228C210020FEF771FE2088FEF741
:103660005FFC4FF47A70FDF7D7FBFEF721FFFEF702
:103670001CFF7C4C022204F1100120706F48FEF701
:1036800055FB002202217848FDF7CDFC77A0FFF71B
:1036900025FB4FF064099FED798B9FED7A9B9FEDA1
:1036A0007BAB9FED7CBB9FED7DCB9FED7EDB04F183
:1036B0000C0704F10A08102560484838FDF7EAFABB
:1036C0005E4801214838FDF78FFA5C484838FDF71D
:1036D0002DFA81B2E18175A0FFF700FBE089FCF7CC
:1036E00055FF53EC182BFCF75FFE53EC192BFCF73E
:1036F0005BFEFCF78AFF6061FCF774FF41EC100B86
:103700006FA053EC102BFFF7E9FAE089FCF73EFFBE
:1037100053EC1A2BFCF748FE41EC100B51EC1B0B41
:1037200053EC102BFCF7B2FE53EC1C2BFCF736FECF
:10373000FCF739FF0646A06190FBF9F000EB800032
:103740008000FCF712FF53EC1D2BFCF79FFEFCF7EB
:103750005CFFE06131465DA0FFF7C0FAE069FCF76D
:1037600041FF41EC100B5CA053EC102BFFF7B6FAB5
:103770003C4BCDE9008708339A1E911E881EFEF748
:103780004BFE00950523B4F9022004210320FEF727
:10379000A1FD00950523B4F9042004213C20FEF787
:1037A00099FD00950523B4F9062014210320FEF7A6
:1037B00091FD00950523B4F9082014213C20FEF763
:1037C00089FD00950523B4F90A2028210320FEF77E
:1037D00081FD00950523B4F90C2028213C20FEF73B
:1037E00079FD009594ED070A05233C21BCEEC00A43
:1037F000032010EE102AFEF76DFDB4F9021039A077
:10380000FFF76CFAB4F9041038A0FFF767FAB4F9BF
:10381000061038A0FFF762FAB4F9081037A0FFF7D6
:103820005DFAB4F90A1037A0FFF758FAB4F90C1092
:1038300036A0FFF753FA3FE7001001408000002058
:10384000320000204E414E4F2053544D3332000081
:103850005446544C43442054455354203234302A67
:1038600032343000000000200008024073746D33D1
:1038700032206973206F6B0A000000000000000016
:103880000000303F6666666666660A409A999999B6
:103890009999F13F0000000000886341000000009A
:1038A0000088A3400000000000005940414443B597
:1038B000C4C4A3C4E2C1BFCAC72534640A0000005F
:1038C000CAFDD7D6C1BFCAC725660A00B5E7D7E883
:1038D000CAC725640A000000B9E2C7BFB6C8CAC794
:1038E00025660A0041583A2025640A0041593A20C9
:1038F00025640A00415A3A2025640A0047583A20B4
:1039000025640A0047593A2025640A00475A3A209C
:1039100025640A000000000000000000010203040A
:10392000060708090000000001020304000000006F
:1039300000000000000000000000202020202000E7
:1039400000200000282850000000000000000000B7
:1039500000005050F85050F850500000002070A85F
:10396000A0603028A8702000000048A8B0A87434D7
:103970005448000000002050506CA8A89468000033
:1039800040408000000000000000000008101020EF
:1039900020202020101008004020201010101010AF
:1039A0002020400000000020A87070A82000000027
:1039B00000000010107C101000000000000000004B
:1039C00000000000404080000000000000FC0000FB
:1039D00000000000000000000000000000400000A7
:1039E000000408081010202040408000000070886B
:1039F00088888888887000000000206020202020AF
:103A000020700000000070888810204080F80000BE
:103A1000000070880830080888700000000010302E
:103A2000305090F8103800000000F88080F08808CE
:103A3000887000000000304880B0C888887000009E
:103A4000000078081010202020200000000070885E
:103A500088708888887000000000708888986808DE
:103A60009060000000000000200000000020000026
:103A700000000000002000000020200000000810CE
:103A8000204040201008000000000000FC00FC0066
:103A90000000000000004020100808102040000036
:103AA00000007088881020200020000000003844AA
:103AB00094B4B4B84438000000002020305050784E
:103AC00048CC00000000F0484870484848F000002A
:103AD0000000788880808080887000000000F048B6
:103AE0004848484848F000000000F84850705040EE
:103AF00048F800000000F8485070504040E00000D6
:103B00000000384880809C88483000000000CC4885
:103B10004878484848CC00000000F82020202020A9
:103B200020F8000000007C1010101010101090E021
:103B30000000EC485060504848EC00000000E040B5
:103B40004040404044FC00000000DCD8D8D8A8A881
:103B5000A8AC00000000DC486868585848E800003D
:103B60000000708888888888887000000000F0480D
:103B70004870404040E0000000007088888888E875
:103B8000987018000000F0484870504848EC000059
:103B9000000078888060100888F000000000F8A815
:103BA00020202020207000000000CC4848484848D1
:103BB000483000000000CC48485050302020000021
:103BC0000000A8A8A8A87050505000000000D850CD
:103BD0005020205050D800000000D85050502020D5
:103BE000207000000000F8901020204048F80000ED
:103BF0003820202020202020202038000040402095
:103C00002020101010080800701010101010101054
:103C100010107000205000000000000000000000A4
:103C20000000000000000000000000FC4020000038
:103C300000000000000000000000000000304838D4
:103C4000483C000000C040404070484848700000B8
:103C50000000000000384840483000000018080804
:103C600008384848483C0000000000000030487810
:103C70004038000000182420207820202078000000
:103C800000000000003C48304038443800C040404C
:103C90004070484848EC00000020200000602020D0
:103CA000207000000010100000301010101010E004
:103CB00000C040404058506050C8000000E0202044
:103CC0002020202020F800000000000000F0A8A81C
:103CD000A8A800000000000000F0484848EC0000E0
:103CE000000000000030484848300000000000009C
:103CF00000F04848487040E00000000000384848A4
:103D00004838081C0000000000D8604040E0000077
:103D1000000000000078403008780000000000201B
:103D200020782020203800000000000000D84848FB
:103D3000483C00000000000000D850502020000047
:103D40000000000000A8A870505000000000000013
:103D500000D8502050D800000000000000CC484897
:103D6000301020C0000000000078102020780000F3
:103D70001810101010301010101018001010101023
:103D80001010101010101010602020202010202083
:103D9000202060006890000000000000000000008B
:103DA0000000000000000000000000000000000013
:103DB0000000001010101010101000001010000073
:103DC0000012242448000000000000000000000051
:103DD0000000001212127E2424247E2424240000D9
:103DE0000000083C4A4A48380C0A0A4A4A3C08087B
:103DF00000000044A4A8A8B0541A2A2A4A4400008B
:103E000000000030484848506EA49498897600001D
:103E100000602020400000000000000000000000C2
:103E20000002040808101010101010080804020006
:103E30000040201010080808080808101020400052
:103E4000000000001010D63838D610100000000016
:103E500000000000000808087F08080800000000B3
:103E60000000000000000000000000006020204072
:103E700000000000000000007E00000000000000C4
:103E80000000000000000000000000006060000072
:103E90000000020404040808101010202040400014
:103EA00000000018244242424242424224180000CC
:103EB000000000083808080808080808083E000044
:103EC0000000003C4242420204081020427E0000F2
:103ED0000000003C4242020418040242423C00003E
:103EE000000000040C0C142424447F04041F000070
:103EF0000000007E40404078440202424438000006
:103F0000000000182440405C62424242221C000033
:103F10000000007E42040408081010101010000079
:103F20000000003C4242422418244242423C00002D
:103F30000000003844424242463A0202241800007F
:103F40000000000000001818000000001818000011
:103F50000000000000000010000000000010101021
:103F60000000000204081020402010080402000095
:103F70000000000000007E00007E00000000000045
:103F80000000004020100804020408102040000037
:103F90000000003C424262040808080018180000B3
:103FA00000000038445AAAAAAAAAAA5C423C00000F
:103FB0000000001010182828243C444242E700006A
:103FC000000000F8444444784442424244F800006F
:103FD0000000003E424280808080804244380000E1
:103FE000000000F8444242424242424244F800008B
:103FF000000000FC424848784848404242FC00002B
:10400000000000FC424848784848404040E000003A
:104010000000003C44448080808E8444443800008A
:10402000000000E7424242427E42424242E7000034
:104030000000007C1010101010101010107C0000F8
:104040000000003E0808080808080808080888F06A
:10405000000000EE444850705048484444EE0000D0
:10406000000000E0404040404040404042FE000030
:10407000000000EE6C6C6C6C6C54545454D6000010
:10408000000000C7626252524A4A4A4646E20000B5
:10409000000000384482828282828282443800009A
:1040A000000000FC424242427C40404040E00000B0
:1040B0000000003844828282828282B24C3806003C
:1040C000000000FC4242427C4848444442E3000075
:1040D0000000003E4242402018040242427C0000A0
:1040E000000000FE92101010101010101038000088
:1040F000000000E74242424242424242423C00004B
:10410000000000E742424424242828181010000030
:10411000000000D654545454546C28282828000019
:10412000000000E7422424181818242442E7000065
:10413000000000EE44442828101010101038000031
:104140000000007E840408081020204242FC000089
:10415000001E1010101010101010101010101E0063
:10416000000040202020101010080804040402025F
:1041700000780808080808080808080808087800EF
:1041800000182400000000000000000000000000F3
:10419000000000000000000000000000000000FF20
:1041A000006010000000000000000000000000009F
:1041B0000000000000000038440C34444C3600007D
:1041C00000000000C0404058644242426458000071
:1041D000000000000000001C22404040221C0000A3
:1041E000000000000602023E42424242463B0000FE
:1041F000000000000000003C42427E40423C0000C3
:10420000000000000C12107C10101010107C000038
:10421000000000000000003E444438403C42423C64
:1042200000000000C040405C6242424242E70000A1
:10423000000000303000007010101010107C0000E2
:104240000000000C0C00001C040404040404447866
:1042500000000000C040404E4850704844EE00004E
:10426000000000107010101010101010107C0000D2
:1042700000000000000000FE4949494949ED0000E6
:1042800000000000000000DC6242424242E7000001
:10429000000000000000003C42424242423C00005C
:1042A00000000000000000D864424242645840E030
:1042B000000000000000001A26424242261A0207AF
:1042C00000000000000000EE3220202020F8000056
:1042D000000000000000003E42403C02427C000022
:1042E000000000000010107C10101010120C0000D4
:1042F00000000000000000C642424242463B00006F
:1043000000000000000000EE4444282810100000C7
:1043100000000000000000DB894A5A5424240000F9
:10432000000000000000007624181818246E000019
:1043300000000000000000E742242418181010605C
:10434000000000000000007E44081010227E0000E3
:104350000003040404040404080404040404030023
:1043600008080808080808080808080808080808CD
:1043700000C0202020202020102020202020C0004D
:10438000205A0400000000000000000000000000AF
:10439000000000000000000000000000000000001D
:1043A000000000000000000000000000000000000D
:1043B00000000000000000000000000000000000FD
:1043C00000000000000000000600060006000600D5
:1043D00006000600060002000400040004000000BD
:1043E00000000000060006000600000000000000BB
:1043F00000000000066006600CC019801100220059
:1044000000000000000000000000000000000000AC
:10441000000000000000000000000000000000009C
:10442000000000000000000008400840084008406C
:104430007FE07FE0104010801080108010807FE0CF
:104440007FE020802080208020800000000000008D
:10445000000000000000020002000F801AC032C0FD
:1044600033C032001A000E0007000380038002C030
:1044700032C03AC032C012800F00020002000000B9
:10448000000000000000000070805080890089005A
:1044900089008A008A005C0075C005400A200A2055
:1044A000122012201220214021C000000000000034
:1044B00000000000000000001C003600360036003E
:1044C00036003600340019E038805880CC80CC802B
:1044D000C680C700C31063903CE0000000000000ED
:1044E0000000000030003800080008001000200024
:1044F00000000000000000000000000000000000BC
:1045000000000000000000000000000000000000AB
:1045100000000000002000400080010001000200B7
:10452000020004000400040004000400040004006D
:104530000200020001000100008000400020000095
:1045400000000000400020001000080008000400E7
:104550000400020002000200020002000200020049
:1045600004000400080008001000200040000000C3
:104570000000000000000000000000000200030036
:104580000200623072F00B800F807AF0623002001D
:104590000200020000000000000000000000000017
:1045A0000000000000000000000000000000020009
:1045B00002000200020002007FF00200020002007E
:1045C00002000200000000000000000000000000E7
:1045D00000000000000000000000000000000000DB
:1045E00000000000000000000000000000000000CB
:1045F0000000000030003800080008001000200013
:1046000000000000000000000000000000000000AA
:1046100000000000000000007FE00000000000003B
:10462000000000000000000000000000000000008A
:10463000000000000000000000000000000000007A
:10464000000000000000000000000000000000006A
:1046500000000000380038003800000000000000B2
:104660000000000000200060004000C000800080CA
:10467000010001000200020006000400040008001E
:104680000800100010003000200060004000000012
:10469000000000000000000000000F00198030C082
:1046A00030C06060606060606060606060606060DA
:1046B000606030C030C019800F00000000000000B2
:1046C0000000000000000000000002003E000600A4
:1046D00006000600060006000600060006000600AA
:1046E00006000600060006003FC0000000000000B3
:1046F000000000000000000000001F00218040C0FA
:1047000060C060C000C0008001800300060004009B
:1047100008001040204060407FC000000000000002
:10472000000000000000000000001E006300618027
:1047300061800180018003000E000180008000C0C4
:1047400000C060C060C061801F0000000000000069
:1047500000000000000000000000018001800380D4
:1047600005800580098011801180218041807FF0C3
:10477000018001800180018007E00000000000004E
:10478000000000000000000000003FC020002000EA
:104790002000200020002F00318020C000C000C079
:1047A00060C060C0418021801F0000000000000048
:1047B00000000000000000000000078018C030C0AA
:1047C000300020006000678068C0706060606060DA
:1047D00060602060304018C00F0000000000000042
:1047E000000000000000000000001FE030602040DA
:1047F0002080008000800100010002000200020011
:10480000060006000600060006000000000000008A
:10481000000000000000000000001F8030C0606049
:1048200060606060304038C00F00138030C060604E
:1048300060606060606030C00F80000000000000B9
:10484000000000000000000000000F00308030C0B9
:10485000604060606060606060E031601E600060C9
:1048600000C000C0308031801E0000000000000049
:104870000000000000000000000000000000000038
:104880000000000007000700070000000000000013
:104890000000000007000700070000000000000003
:1048A0000000000000000000000000000000000008
:1048B00000000000060006000000000000000000EC
:1048C00000000000000006000600020004000400D2
:1048D00000000000000000000020004000800100F7
:1048E000020004000800100020001000080004006E
:1048F00002000100008000400020000000000000D5
:1049000000000000000000000000000000000000A7
:10491000000000007FE00000000000007FE00000D9
:104920000000000000000000000000000000000087
:10493000000000000000000020001000080004003B
:1049400002000100008000400020004000800100C3
:104950000200040008001000200000000000000019
:104960000000000000000000000007C018602030B8
:1049700020303030303000E00180020002000200C0
:104980000000000007000700070000000000000012
:104990000000000000000000070018C0304033A0F5
:1049A00026A066A065A06D206D206D206D206D4055
:1049B00027803020304018C00F00000000000000A9
:1049C00000000000000000000000060006000A00D1
:1049D0000B00090009001100118010801F8020C009
:1049E00020C0204040404060F0F000000000000087
:1049F000000000000000000000007F0031C030C057
:104A000030C030C030C031803F0030C030403060F6
:104A100030603060306030C07F80000000000000F7
:104A20000000000000000000000007C018C0306057
:104A300030202020600060006000600060006000A6
:104A400060203020304018C00F000000000000003F
:104A500000000000000000000000FE00318030C0B7
:104A600030C0306030603060306030603060306066
:104A7000306030C030C03180FE0000000000000017
:104A800000000000000000000000FFC060C06020C7
:104A900060206000610061007F00610061006100D2
:104AA0006000602060206040FFC000000000000047
:104AB00000000000000000000000FFC060C0602097
:104AC00060206000610061007F00610061006100A2
:104AD0006000600060006000F8000000000000005E
:104AE000000000000000000000000F0018803040AF
:104AF00030402040600060006000600063F060C0F3
:104B000060C030C030C018C00F00000000000000BE
:104B100000000000000000000000F0F06060606035
:104B200060606060606060607FE0606060606060E6
:104B30006060606060606060F0F000000000000095
:104B4000000000000000000000003FC0060006005A
:104B50000600060006000600060006000600060025
:104B600006000600060006003FC00000000000002E
:104B7000000000000000000000001FE00300030030
:104B8000030003000300030003000300030003000D
:104B900003000300030003000300630066003C0001
:104BA00000000000000000000000F3C0618063000E
:104BB0006200640068006C007400760062006300AC
:104BC00061006180608060C0F1E0000000000000D2
:104BD00000000000000000000000F800600060001D
:104BE00060006000600060006000600060006000C5
:104BF0006000602060206040FFC0000000000000F6
:104C000000000000000000000000E0E061C061C0A2
:104C100071C071C072C072C052C05AC05AC05CC06C
:104C20004CC04CC04CC048C0E1E000000000000097
:104C30000000000000000000000071F0304038402B
:104C400038402C402C402640264022402340214022
:104C500021C021C020C020C0F8400000000000009A
:104C6000000000000000000000000F00198030C0AC
:104C70003040606060606060606060606060606084
:104C80006060304030C019800F000000000000005C
:104C900000000000000000000000FF0060C0606035
:104CA000606060606060606061C07F0060006000A4
:104CB0006000600060006000F8000000000000007C
:104CC000000000000000000000000F00198030C04C
:104CD0003040606060606060606060606060606024
:104CE0006E60324033C019800F0001E000C0000048
:104CF00000000000000000000000FF8060C0606055
:104D000060606060606060C07F006200630061009E
:104D1000618060C060C06060F07000000000000052
:104D2000000000000000000000001F4030C0604094
:104D30006040600070003C001F0007C001C000E040
:104D400040604060606030C00F80000000000000E4
:104D5000000000000000000000007FE046208610F8
:104D60008610060006000600060006000600060083
:104D700006000600060006001F800000000000007C
:104D80000000000000000000000078E030403040EB
:104D90003040304030403040304030403040304093
:104DA00030403040304018800F000000000000000C
:104DB00000000000000000000000F0E060402080E3
:104DC00020803080308011001100190019000A0085
:104DD0000A000E000C0004000400000000000000A7
:104DE00000000000000000000000EF70462042209C
:104DF00062206220264026402740274039403980E3
:104E000019801980118011001100000000000000BD
:104E10000000000000000000000079E030801080F9
:104E2000188009000D0006000400060006000B00B3
:104E300009001180108020C071E000000000000017
:104E400000000000000000000000F0F060202040A2
:104E50003040108018801D000D000E000600060076
:104E600006000600060006001F800000000000008B
:104E7000000000000000000000003FE0304060C083
:104E800040800180010002000200040004000800CC
:104E900018001020302020407FC0000000000000DB
:104EA0000000000007C00400040004000400040027
:104EB00004000400040004000400040004000400D2
:104EC00004000400040004000400040007C0000003
:104ED0000000000000000000200020001000100072
:104EE000080008000800040004000200020003009B
:104EF00001000100008000800040004000400020D0
:104F0000000000003E000200020002000200020059
:104F10000200020002000200020002000200020081
:104F20000200020002000200020002003E00000037
:104F300000000600090010800000000000000000D2
:104F40000000000000000000000000000000000061
:104F50000000000000000000000000000000000051
:104F60000000000000000000000000000000000041
:104F70000000000000000000000000000000000031
:104F80000000000000000000000000000000FFF032
:104F900000000000180006000000000000000000F3
:104FA0000000000000000000000000000000000001
:104FB00000000000000000000000000000000000F1
:104FC00000000000000000000000000000000000E1
:104FD000000000000F8030C030C000C007C038C0E3
:104FE00070C060C060C071D03E7000000000000062
:104FF00000000000000000001000700030003000D1
:105000003000300033803CC0386030603060306049
:1050100030603060304038C0278000000000000061
:105020000000000000000000000000000000000080
:10503000000000000F00318031806180600060005E
:1050400060006040304030800F0000000000000031
:105050000000000000000000004003C000C000C0CD
:1050600000C000C01EC031C030C060C060C060C0A1
:1050700060C060C020C031E01E8000000000000061
:105080000000000000000000000000000000000020
:1050900000000000078018C01040306030603FE022
:1050A0003000300018201840078000000000000089
:1050B0000000000000000000000003C006600C605B
:1050C0000C000C007F800C000C000C000C000C008D
:1050D0000C000C000C000C003F80000000000000E1
:1050E00000000000000000000000000000000000C0
:1050F000000000000FE01B6031803180318019809A
:105100001F0030003F0033C060C060C071C01F008E
:1051100000000000000000001000700030003000AF
:1051200030003000378038C030C030C030C030C0B0
:1051300030C030C030C030C079E000000000000056
:105140000000000000000000000006000600000053
:10515000000002003E0006000600060006000600F1
:1051600006000600060006003FC000000000000028
:105170000000000000000000000003800380000029
:10518000000000800F80018001800180018001808B
:1051900001800180018001800180018033003E0098
:1051A000000000000000000010007000300030001F
:1051B0003000300031C031003100320036003A009A
:1051C00031003180308030C079E000000000000004
:1051D000000000000000000002003E000600060083
:1051E000060006000600060006000600060006008F
:1051F00006000600060006003FC000000000000098
:10520000000000000000000000000000000000009E
:1052100000000000ECE077606660666066606660D3
:105220006660666066606660FFF000000000000077
:10523000000000000000000000000000000000006E
:1052400000000000778038C030C030C030C030C0AF
:1052500030C030C030C030C079E000000000000035
:10526000000000000000000000000000000000003E
:10527000000000000F00198030C060606060606056
:105280006060606030C030C00F00000000000000AF
:10529000000000000000000000000000000000000E
:1052A00000000000778038C03060306030603060CF
:1052B0003060306030C038C03780300030007C0053
:1052C00000000000000000000000000000000000DE
:1052D000000000001E4031C030C060C060C060C02F
:1052E00060C060C020C031C01EC000C000C003E06C
:1052F00000000000000000000000000000000000AE
:1053000000000000F9C01A601C60180018001800A6
:105310001800180018001800FF000000000000002E
:10532000000000000000000000000000000000007D
:10533000000000000FC038C0304030401C000F009B
:1053400003C020C020C031C03F800000000000002A
:105350000000000000000000000000000400040045
:105360000C000C007F800C000C000C000C000C00EA
:105370000C000C000C400C400780000000000000F6
:10538000000000000000000000000000000000001D
:105390000000104071C030C030C030C030C030C0DC
:1053A00030C030C030C039E01E8000000000000076
:1053B00000000000000000000000000000000000ED
:1053C0000000000078E03040108010801880090054
:1053D0000D000D00060006000400000000000000A3
:1053E00000000000000000000000000000000000BD
:1053F00000000000EF704620622026402640374023
:105400003980198019801980100000000000000008
:10541000000000000000000000000000000000008C
:10542000000000003DE0188008800D000600060026
:1054300007000900108010C079E0000000000000A3
:10544000000000000000000000000000000000005C
:105450000000000079E01080108010800900090031
:105460000D000600060006000400040024003800B9
:10547000000000000000000000000000000000002C
:10548000000000003F80218023002200060004006D
:105490000C001840104030C03F80000000000000A9
:1054A0000000000000C00100010001000100010037
:1054B00001000100010002000400020001000100DF
:1054C00001000100010001000100010000C0000016
:1054D00002000200020002000200020002000200BC
:1054E00002000200020002000200020002000200AC
:1054F000020002000200020002000200020002009C
:105500000000000030000800080008000800080043
:105510000800080008000400020004000800080059
:10552000080008000800080008000800300000001B
:10553000000038004420432001C0000000000000AB
:10554000000000000000000000000000000000005B
:10555000000000000000000000000000000000004B
:10556000000000000000000000000000000000003B
:10557000000000000000000000000000000000002B
:10558000000000000000000000000000000000001B
:10559000000000000000000000000000000000000B
:1055A00000000000000000000000000000000000FB
:1055B00000000000000000000000000000000000EB
:1055C00000000000000000000000000000000000DB
:1055D00000000000000000000000000000000000CB
:1055E00000000000000000000000000003C003C035
:1055F00003C003C003C003C001C00180018001805B
:105600000180018001800180018000000000000015
:10561000018003C003C00180000000000000000002
:10562000000000000000000000000000000000007A
:10563000000000000000000000000000000000006A
:10564000000000000000000000000000000000005A
:10565000000000000000000000000000000000004A
:10566000000000000318073807380E700C6018C0DF
:105670003180210000000000000000000000000058
:10568000000000000000000000000000000000001A
:10569000000000000000000000000000000000000A
:1056A00000000000000000000000000000000000FA
:1056B00000000000000000000000000000000000EA
:1056C00000000000000000000000000000000000DA
:1056D00000000000000000000000000000000000CA
:1056E00000000000000000000000000004080408A2
:1056F0000408040804087FFE7FFE7FFE08100810DF
:1057000008100810081008107FFE7FFE7FFE18307A
:1057100010201020102010200000000000000000C9
:105720000000000000000000000000000000000079
:105730000000000000000000000000000000000069
:105740000000000000000000000000000000000059
:105750000000000000000000000000000000000049
:1057600000000000000000000100010003C00D3037
:1057700009181918193819381D000D000F000700F5
:1057800003C001E001F0013001380118391839185F
:1057900031183130196007C001000100010000001C
:1057A00000000000000000000000000000000000F9
:1057B00000000000000000000000000000000000E9
:1057C00000000000000000000000000000000000D9
:1057D00000000000000000000000000000000000C9
:1057E00000000000000000000000000038106C10F5
:1057F0004420C620C640C640C640C680C6804480FD
:105800006D38396C024402C602C604C604C608C616
:1058100008C60844106C10380000000000000000AA
:105820000000000000000000000000000000000078
:105830000000000000000000000000000000000068
:105840000000000000000000000000000000000058
:105850000000000000000000000000000000000048
:105860000000000000000000000000000F00190010
:105870003180318031803180310033003A001C00AA
:10588000387C3C104C10CE10C620C720C320C1C0AD
:10589000C1C260E6317C1E3800000000000000003C
:1058A00000000000000000000000000000000000F8
:1058B00000000000000000000000000000000000E8
:1058C00000000000000000000000000000000000D8
:1058D00000000000000000000000000000000000C8
:1058E0000000000038003C003C000C000C000800E8
:1058F0003000600000000000000000000000000018
:105900000000000000000000000000000000000097
:105910000000000000000000000000000000000087
:105920000000000000000000000000000000000077
:105930000000000000000000000000000000000067
:105940000000000000000000000000000000000057
:105950000000000000000000000000000000000047
:1059600000000000000200040008001800300020C1
:105970000060004000C000C0018001800180018003
:105980000180018001800180018000C000C00040D2
:105990000060002000300018000800040002000031
:1059A00000000000000000000000000000000000F7
:1059B00000000000000000000000000000000000E7
:1059C00000000000000000000000000000000000D7
:1059D00000000000000000000000000000000000C7
:1059E0000000000040002000100018000C0004001F
:1059F0000600020003000300018001800180018095
:105A00000180018001800180018003000300030008
:105A1000060004000C0018001000200040000000E8
:105A20000000000000000000000000000000000076
:105A30000000000000000000000000000000000066
:105A40000000000000000000000000000000000056
:105A50000000000000000000000000000000000046
:105A60000000000000000000000000000000000036
:105A700000C001C001C030C6388E1C9C06B001C0F9
:105A800001C006B01C9C388E318601C001C001C027
:105A90000000000000000000000000000000000006
:105AA00000000000000000000000000000000000F6
:105AB00000000000000000000000000000000000E6
:105AC00000000000000000000000000000000000D6
:105AD00000000000000000000000000000000000C6
