:020000040800F2
:10000000480700203902000893180008E11500088D
:10001000911800082F0400088D1C00080000000043
:100020000000000000000000000000009718000819
:100030003104000800000000951800089918000815
:10004000530200085302000853020008530200083C
:10005000530200085302000833040008530200084A
:100060003904000853020008530200085302000834
:10007000530200085302000853020008530200080C
:100080005302000853020008530200080000000059
:100090000000000000000000000000003F04000815
:1000A00053020008530200085302000853020008DC
:1000B0003D190008491900085302000853020008BE
:1000C00053020008530200085302000853020008BC
:1000D00053020008811C00085302000800000000C1
:1000E00053020008530200085302000800000000F9
:1000F00000000000000000000000000053020008A3
:1001000000000000530200085302000853020008D8
:1001100000000000000000000000000000000000DF
:10012000530200085302000853020008530200085B
:100130005302000800000000000000000000000062
:100140000000000000000000000000005302000852
:10015000530200085302000853020008530200082B
:1001600053020008530200080000000000000000D5
:10017000000000000000000000000000000000007F
:100180000000000053020008000000000000000012
:10019000530200085302000800F002F800F03CF897
:1001A0000AA090E8000C82448344AAF10107DA45D2
:1001B00001D100F031F8AFF2090EBAE80F0013F0E8
:1001C000010F18BFFB1A43F0010318475C1B000026
:1001D0007C1B0000103A24BF78C878C1FAD85207B7
:1001E00024BF30C830C144BF04680C6070470000B1
:1001F0000023002400250026103A28BF78C1FBD830
:10020000520728BF30C148BF0B6070471FB501F0CF
:1002100079FD1FBD10B510BD00F0CFF81146FFF7F6
:10022000F5FF01F045FD00F0EDF803B4FFF7F2FF34
:1002300003BC00F0F5F80000094880470948004772
:10024000FEE7FEE7FEE7FEE7FEE7FEE7FEE7FEE786
:10025000FEE7FEE704480549054A064B70470000E3
:100260002D190008990100084801002048070020C6
:10027000480300204803002053EA020C00F0698084
:100280002DE9F04B4FF00006002B1FBFB3FA83F5AA
:1002900003FA05F424FA05F65E4012BF1643B2FADB
:1002A00082F502FA05F4C5F120051EBF22FA05FC0D
:1002B00044EA0C04203556EA044C4FEA144418BFB3
:1002C000641C4FF000084FF00009904271EB030CE2
:1002D00039D3002919BFB1FA81F701FA07F6B0FA4C
:1002E00080F700FA07F6C7F120071EBF20FA07FCC7
:1002F00046EA0C062037B6FBF4FCA7EB0507103FD7
:1003000007F01F0BCBF120060CFA0BFB2CFA06F6BC
:1003100044BFB3460026202FA4BF5E464FF0000B1B
:100320005BEA060C08BF4FF0010B19EB0B09ABFBA6
:10033000027C48EB0608C01B06FB02CC0BFB03CC7F
:1003400071EB0C01C1E70B46024641464846BDE849
:10035000F08B13B54FF000004FF00001AFF30080B9
:10036000BDE81C4070474FF0000200B513469446AC
:100370009646203922BFA0E80C50A0E80C50B1F1FD
:100380002001BFF4F7AF090728BFA0E80C5048BF11
:100390000CC05DF804EB890028BF40F8042B08BFAF
:1003A000704748BF20F8022B11F0804F18BF00F8AB
:1003B000012B7047704770477047754600F02CF866
:1003C000AE4605006946534620F00700854618B042
:1003D00020B5FFF73FFFBDE820404FF000064FF08B
:1003E00000074FF000084FF0000B21F00701AC466A
:1003F000ACE8C009ACE8C009ACE8C009ACE8C00989
:100400008D46704710B50446AFF300802046BDE826
:100410001040FFF70ABF000000487047E8000020C6
:1004200001491820ABBEFEE7260002007047FEE738
:100430007047012000F0BAB8042000F0B7B810B53A
:100440004FF4807000F0B2F8BDE810404FF4007037
:1004500000F0ACB82DE9F0410446876D00F0ACF92E
:10046000064694F835000025022806D080206065F5
:1004700084F834500120BDE8F0812068016821F043
:10048000160101602068416921F080014161206C02
:1004900008B9A06C20B12068016821F00801016052
:1004A0002068016821F0010101600CE000F084F98E
:1004B000801B052807D920206065032084F83500BB
:1004C00084F83450D7E720680068C007EED194F86C
:1004D0005C103F208840B860012084F8350084F823
:1004E00034500020C7E790F83510022903D080214E
:1004F000416501207047052180F8351000680168CA
:1005000021F00101016000207047000070B5044631
:1005100000F052F90546601C02D0044800780444FB
:1005200000F04AF9401BA042FAD370BD040000203D
:1005300010B504464FF47A70FFF7E8FF012C11D094
:10054000042C21D04FF4807115488C4214D04115F1
:100550008C4223D100F026F900281FD1BDE81040BD
:1005600001F06CB801210F4800F01CF9012815D1E9
:10057000BDE8104001F036B800F014F900280DD1A4
:10058000BDE8104001F044B80421074800F00AF922
:10059000002803D1BDE8104001F066B810BD00008E
:1005A0000008024000000240000C0240044910B55F
:1005B0000A68024202D00860FFF7BAFF10BD0000CF
:1005C000143C01402DE9F84FDFF8B8A100220124C6
:1005D0000AF1040B03254FF00F090BF1040E00BFC5
:1005E0000B6804FA02F63340B34273D10F7907F077
:1005F0000307012F01D0022F16D187684FEA420866
:1006000005FA08FC27EA0C07D1F80CC00CFA08FC24
:100610004CEA070CC0F808C04768B7430E79C6F328
:10062000001696403E4346600E79F643B6070DD05D
:10063000C768560005FA06FC27EA0C07D1F808C07F
:100640000CFA06FC4CEA070CC0F80CC00E7906F058
:100650000306022E10D1D60800EB8608D8F82060D9
:1006600057074FEAD76C09FA0CF7BE430F6907FA30
:100670000CF73743C8F8207006684FEA420C05FAB9
:100680000CF7BE430F7907F0030707FA0CF737435F
:1006900007604E6816F4403F6DD03B4E376847F414
:1006A00080473760366822F0030706F480460096DC
:1006B000364E07EB060CDCF8086897073F0F09FA7F
:1006C00007F826EA0806DFF8C880404503D14FF056
:1006D00000081EE04FE0DFF8BC80404502D14FF03B
:1006E000010816E0DFF8B080404502D14FF0020863
:1006F0000FE0DFF8A880404502D14FF0030808E082
:10070000DFF89C80404502D14FF0040801E04FF033
:10071000070808FA07F848EA0608CCF80888DAF863
:1007200000605746D1F804C09E435FEACC3C00D538
:100730001E433E60DBF800605F46D1F804C09E4374
:100740005FEA8C3C00D51E433E60DEF800607746D1
:10075000D1F804C09E435FEACC2C00D51E433E6016
:10076000084F0C373E68D1F804C09E435FEA8C2CDA
:1007700000D51E433E60521C102AFFF431AFBDE885
:10078000F88F0000003C0140443802400030014036
:10079000000002400004024000080240000C024039
:1007A000001002400069084000D0012070470AB1E3
:1007B000816170470904FBE70148806870470000C9
:1007C000040000200248816802781144816070476B
:1007D000040000200B4810B5016841F4007101606D
:1007E000016841F480610160016841F48071016039
:1007F000032000F071F8002000F006F800F024F863
:10080000002010BD003C024070B50D4D04464FF471
:100810007A712878B1FBF0F00A490968B1FBF0F071
:1008200000F00CFB48B9102C07D200222146501EC4
:1008300000F032F800206C6070BD012070BD000037
:1008400004000020100000200B4882B0016841F431
:1008500080410160006800F4804000900648001F5D
:10086000016841F080510160006800F08050009004
:10087000052002B000F030B844380240002809DBFF
:1008800000F01F02012191404009800000F1E020AA
:10089000C0F8001170470000F0B40E4B1B680C4606
:1008A000C3F30223C3F10705042D00D90425191D44
:1008B000072901D2002300E0DB1E012606FA05F11C
:1008C000491E214099409E40761E16403143F0BC9F
:1008D00001F0DDB90CED00E0064900F00702086800
:1008E0004FF6FF03184040EA0220034A1043086015
:1008F000704700000CED00E00000FA052DE9F0471C
:100900000E46050065D0DFF81481D8F80000F7B274
:1009100000F00700B04207D288F80070D8F8000055
:1009200000F00700B04254D128683D4C810712D531
:10093000400703D5206840F4E05020602878000785
:1009400003D5206840F4604020602068A96820F04A
:10095000F000084320602878C0072DD0304968682F
:100960000839012812D0022813D0032811D00968B1
:10097000890700292DDA216821F003010143216054
:10098000FFF71AFF814641F2883A0EE009688903B1
:10099000EFE709688901ECE7FFF70EFFA0EB09011B
:1009A000514502D90320BDE8F0872068696800F04E
:1009B0000C00B0EB810FEFD1D8F80010404601F0E9
:1009C0000701B14207D90770006800F00700B04284
:1009D00001D00120E7E72878400705D52068E968BD
:1009E00020F4E050084320602878000706D52068EE
:1009F000296920F4604040EAC100206000F038F826
:100A00002168084AC1F30311515CC84006490860D7
:100A100006480068FFF7F8FE0020C4E7003C0240EB
:100A2000083802400E1D00081000002008000020B9
:100A30000448054900680968044AC1F38221515CF1
:100A4000C840704710000020083802401E1D0008F2
:100A50000448054900680968044AC1F34231515C01
:100A6000C840704710000020083802401E1D0008D2
:100A7000154810B5006810F00C02144813D041104E
:100A8000042A0FD0082A0ED10F4C241F2268236895
:100A900002F03F025B0207D52068C0F38810A0FB7C
:100AA000010106E0084610BD2168C1F38811A1FBD1
:100AB00000010023FFF7E0FB2168C1F30141491C5D
:100AC0004900B0FBF1F010BD083802400024F400EA
:100AD0002DE9F84F04006ED02078DFF84C93C00762
:100AE000A9F104054AD009F104000168C1F38101AC
:100AF000012908D00068C0F3810002280AD1D9F882
:100B00000000400206D52868800337D560680028B9
:100B1000E1D033E06068B0F5803F10D0B0F5A02F91
:100B2000286810D020F480302860286820F48020C5
:100B300028606068A8B1FFF73FFE06460DE0286810
:100B400040F48030F4E740F480202860F7E700BFED
:100B5000FFF732FE801B642873D828688003F7D51E
:100B60000CE0FFF729FE064605E000BFFFF724FE74
:100B7000801B6428F0D828688003F7D42078DFF839
:100B8000AC8280074FF0000A3ED5A748001D0168DF
:100B900011F00C0F08D00068C0F3810002280BD1BF
:100BA000D9F80000400207D42868800716D5E0680D
:100BB000012800D112E033E1E068B8B10120C8F8A3
:100BC0000000FFF7F9FD064605E000BFFFF7F4FD62
:100BD000801B0228C0D828688007F7D528682169BB
:100BE00020F0F80040EAC10028600DE0C8F800A03D
:100BF000FFF7E2FD064604E0FFF7DEFD801B02285A
:100C00001FD828688007F7D42078000722D5864FA0
:100C100087486169703771B101210160FFF7CCFD30
:100C2000064604E0FFF7C8FD801B022809D8386893
:100C30008007F7D50EE0C0F800A0FFF7BDFD06461F
:100C400005E082E0FFF7B8FD801B02287DD83868F8
:100C50008007F7D42078400768D5DFF8CCB10027AB
:100C60000BF13C0BDBF80000C0000BD4DBF80010EC
:100C700041F08051CBF80010DBF80000012700F0B4
:100C8000805000906B4E3068C00510D4306840F43E
:100C900080703060FFF790FD009005E0FFF78CFD5D
:100CA0000099401A022850D83068C005F6D55E4E2B
:100CB000A0686C3601280FD00528306810D020F0CD
:100CC00001003060306820F004003060A068B8B1E6
:100CD000FFF772FD00900FE0306840F00100F4E78C
:100CE00040F004003060F7E7FFF766FD0099411A15
:100CF00041F28830814266D830688007F4D50EE032
:100D0000FFF75AFD009007E0FFF756FD0099411AE2
:100D100041F28830814256D830688007F4D42FB130
:100D2000DBF8001021F08051CBF80010A069C8B3A7
:100D30003D49091D0968C1F3810102294AD00228F1
:100D4000504607D0C8F8600000E03CE0FFF734FDF3
:100D500004463BE04746C8F86000FFF72DFD064615
:100D600005E000BFFFF728FD801B02282BD828686C
:100D70008001F7D4D4E907010843A16A2E4A490843
:100D800002EB0141626A41EA8211084394F82C1097
:100D900040EA0161C9F8001001203866FFF70CFD38
:100DA000044606E03EE000BFFFF706FD001B0228F8
:100DB00009D828688001F7D534E000BFFFF7FCFCB4
:100DC000001B022802D90320BDE8F88F28688001A3
:100DD000F4D427E00128F7D0D9F80000E26900F444
:100DE000800191421CD1226A00F03F01914217D14B
:100DF00047F6C071626A0140B1EB821F10D1A26A4E
:100E00004FF0FF3300F4403103EB5202B1EB024FDD
:100E100006D194F82C1000F07060B0EB016F01D097
:100E20000120D1E70020CFE704380240000047420C
:100E3000800E4742007000400000FFFF10B5401ECA
:100E4000B0F1807F01D3012010BD4FF0E02460613C
:100E50000F21601700F01BFF0020A0610720206118
:100E6000002010BD7047704770B590F83C20012AF3
:100E70002CD0012480F83C40022280F83D200368F9
:100E80005A689D6822F070060A6832435A60104B17
:100E900002689A420ED0B2F1804F0BD00D4B9A42AD
:100EA00008D00D4B9A4205D00C4B9A4202D00C4B05
:100EB0009A4204D1496825F080031943916080F873
:100EC0003D40002180F83C10084670BD022070BDF6
:100ED000000001400004004000080040000C0040F9
:100EE0000040014010B5040003D094F83D0010B15B
:100EF00007E0012010BD002084F83C00204600F0EF
:100F00001FF8022084F83D00211D206800F022FD1A
:100F1000012084F8460084F83E0084F83F0084F8FD
:100F2000400084F8410084F8420084F8430084F8CB
:100F3000440084F8450084F83D00002010BD000006
:100F400008B501681448B1F1804F14D0134A91429A
:100F500020D1016841F0020101600068012200F027
:100F60000200009000211D20FFF796FC1D20BDE827
:100F70000840FFF783BC016841F00101016000688F
:100F8000002200F00100009011461C20FFF784FCB5
:100F90001C20ECE708BD000040380240000400407F
:100FA00090F83D10012901D001207047022180F8FE
:100FB0003D100168CA6842F00102CA6000680E492B
:100FC00088420ED0B0F1804F0BD00C49884208D037
:100FD0000B49884205D00B49884202D00A49884211
:100FE00004D1816801F00701062903D0016841F0AE
:100FF0000101016000207047000001400004004032
:1010000000080040000C00400040014070B504465C
:1010100090F83C000025012817D0012684F83C6098
:10102000022084F83D002068826822F0770222F4D2
:101030007F4282600868502838D00DDC20284FD0CD
:1010400005DC90B3102811D14AE0022070BD302891
:1010500046D040280AD13BE060282FD070280DD020
:10106000B0F5805F03D0B0F5005F12D0012584F8A1
:101070003D60002084F83C00284670BDCB68D1E973
:101080000121206800F0B2FC2068816841F07701FE
:1010900009E0CB68D1E90121206800F0A7FC2068B5
:1010A000816841F480418160E1E719E0CA684968DC
:1010B000206800F0ADFC5021206806E0CA6849684D
:1010C000206800F0B6FC6021206800F099FCCEE7B3
:1010D000CA684968206800F09BFC40212068F4E75A
:1010E000226801461046F0E7704770B50446006874
:1010F00001694FF00005C943890715D4C168C94388
:10110000890711D4E91E01610120207720688069D8
:101110008007204602D0FFF7E7FF04E000F098F8D0
:10112000204600F096F8257720680169C9434907F1
:1011300017D4C168C943490713D46FF00401016192
:10114000022020772068806910F4407F204602D07A
:10115000FFF7CAFF04E000F07BF8204600F079F8C2
:10116000257720680169C943090716D4C168C943B6
:10117000090712D46FF0080101610420207720686C
:10118000C0698007204602D0FFF7AEFF04E000F000
:101190005FF8204600F05DF8257720680169C943B3
:1011A000C90617D4C168C943C90613D46FF010012A
:1011B0000161082020772068C06910F4407F204634
:1011C00002D0FFF791FF04E000F042F8204600F063
:1011D00040F8257720680169C943C90708D1C1686B
:1011E000C943C90704D1891E0161204600F032F8C5
:1011F00020680169C943090609D4C168C9430906C1
:1012000005D46FF0800101612046FFF72BFE2068B6
:101210000169C943490609D4C168C943490605D4CF
:101220006FF040010161204600F030F8206801694C
:10123000C94389060BD4C168C943890607D46FF036
:10124000200101612046BDE87040FFF70CBE70BD73
:10125000704770470A4910B588420BD1094C0A48BB
:10126000217841B101220121FFF7A1FA207820B1B4
:101270000020207010BD0022F5E70120F9E70000F2
:101280001400002000000020000802407047704752
:1012900070470000F8B5016804460868CA684B69E1
:1012A00010F00F0F4FF0000559D003F0010602F4C3
:1012B0009077374365D0C10705D0D10503D5216CA0
:1012C00041F001012164410705D5D90703D0216C04
:1012D00041F002012164810705D5D90703D0216CB3
:1012E00041F004012164010707D502F020013143D8
:1012F00003D0216C41F008012164216C00293AD00F
:10130000800604D5900602D5204600F0D3FB206865
:101310004069216CC0F38010090700D460B32046F7
:1013200000F0A1FB20684069400621D520681430F8
:1013300050E8001F21F0400140E80012002AF5D1DA
:10134000A06BA8B16C490165A06BFFF7CCF8002831
:1013500011D0A06B016D01B0BDE8F04008478306D5
:101360000FD593060DD52046BDE8F84000F0A2BB8E
:101370002046FFF78DFFF8BD2046FFF789FF256463
:10138000F8BD266B2023012E79D1C60677D5D60667
:1013900075D50868486800904869400640D5A16B3B
:1013A000086840680004000CEAD0A28D8242E7D9A8
:1013B000E085C869B0F5807F2DD020680C3050E8FA
:1013C000001F21F4807140E80012002AF5D1206846
:1013D000143050E8001F21F0010140E80012002AFB
:1013E000F5D12068143050E8001F21F0400140E89A
:1013F0000012002AF5D184F83E30256320680C30B5
:1014000050E8001F21F0100140E80012002AF5D139
:10141000A06BFFF71FF8A08DE18D401A81B229E083
:10142000A08DE18D401A81B2E08D0028A8D000295E
:10143000A6D020680C3050E8002F22F4907240E8CB
:101440000026002EF5D12068143050E8002F22F03D
:10145000010240E80026002EF5D184F83E302563D5
:1014600020680C3050E8002F22F0100240E80023E2
:10147000002BF5D12046FFF70AFFF8BDFFE7050670
:101480002BD5150629D594F83D002128F5D1A06863
:10149000B0F5805F01D12069B0B1206A411C2162A2
:1014A000216800784860E08C401E0004000CE08455
:1014B000E3D12068C16821F08001C1602068C16863
:1014C00041F04001C160D8E7206A0088C0F30800FD
:1014D0004860206A801C2062E5E74006CDD55006B2
:1014E000CBD5CA68204622F04002CA6084F83D305D
:1014F00000F075F8C1E70000571A000870B5040045
:1015000004D094F83D00002510B106E0012070BD24
:1015100084F83C50204600F023F8242084F83D0055
:101520002068C16821F40051C160204600F022FB10
:101530002068016921F4904101612068416921F02E
:101540002A0141612068C16841F40051C1602564ED
:10155000202084F83D0084F83E00002070BD00008B
:1015600010B586B0044614216846FEF7FCFE184903
:101570002068884229D117480021026842F01002F1
:101580000260006800F010000590124814380268EC
:1015900042F001020260006800F0010005904FF483
:1015A000C06000900220CDE90101032003900720D4
:1015B000049069460848FFF705F8002211462520E7
:1015C000FFF76AF92520FFF759F906B010BD0000B2
:1015D000001001404438024000000240704770474C
:1015E000FEE7000010B5094C002201212046FFF75C
:1015F000DEF86420FEF78AFF012211462046FFF73D
:10160000D6F8BDE810406420FEF780BF0008024015
:1016100010B5094C002202212046FFF7C8F86420CB
:10162000FEF774FF012202212046FFF7C0F8BDE853
:1016300010406420FEF76ABF0008024010B5094C54
:10164000002204212046FFF7B2F86420FEF75EFF77
:10165000012204212046FFF7AAF8BDE810406420CB
:10166000FEF754BF0008024010B5094C00220821C3
:101670002046FFF79CF86420FEF748FF012208216E
:101680002046FFF794F8BDE810406420FEF73EBF07
:10169000000802402DE9F04387B014216846FEF7A8
:1016A00062FE41480025016841F080010160016847
:1016B00001F080010591016841F0040101600168B9
:1016C00001F004010591016841F001010160016828
:1016D00001F001010591016841F008010160016814
:1016E00001F008010591016841F002010160006804
:1016F000DFF8B88000F00200059001220F2140467B
:10170000FFF755F80122DFF8A8901702394648463E
:10171000FFF74DF801240F20CDE900040226CDE9A2
:10172000024669464046FEF74DFF4FF48810CDE96A
:101730000040694602961F48FEF744FF4FF4407090
:101740004FF40416CDE90006694602944046FEF7C0
:1017500039FF0420CDE90006694602941648FEF7D9
:1017600031FF0097CDE90145694648460395FEF7EC
:1017700029FF022211460620FFF78EF80620FFF708
:101780007DF8012202210820FFF786F80820FFF7E4
:1017900075F8002202211720FFF77EF81720FFF7C7
:1017A0006DF807B0BDE8F083303802400008024011
:1017B0000004024000000240000C024010B586B058
:1017C00000241748009401940294039404944FF069
:1017D00080410594016041F61F41C0E9011441F2C6
:1017E0008731C0E9031480218161FFF77BFB08B1D9
:1017F00072B6FEE74FF48050009069460848FFF744
:1018000005FC08B172B6FEE7049404A904480594E7
:10181000FFF72AFB002801D072B6FEE706B010BD24
:101820001400002010B586B00024184800940194DC
:1018300002940394049414490594016041F61F41F5
:10184000C0E9011441F28731C0E9031480218161AC
:10185000FFF748FB08B172B6FEE74FF480500090E6
:1018600069460A48FFF7D2FB08B172B6FEE7049456
:1018700004A906480594FFF7F7FA002801D072B6CC
:10188000FEE706B010BD0000000400405C00002030
:10189000FEE7FEE770477047FEF794BF30B593B0A0
:1018A00030216846FEF75FFD14210CA8FEF75BFDB2
:1018B0001C480025016841F080510160006800F07B
:1018C000805011901848016841F44041016000685F
:1018D000022400F440401190012000900004019087
:1018E0008001CDE9064008AA0420482182E81300BF
:1018F0000B906846FFF7ECF808B172B6FEE70CA94A
:101900000F2081E831004FF48050CDE90F0502210E
:101910000CA8FEF7F3FF002801D072B6FEE713B063
:1019200030BD0000403802400070004002480168AD
:1019300041F470010160704788ED00E00148FFF755
:10194000D4BB0000140000200148FFF7CEBB00000C
:101950005C000020F0B502681D4B1E4C9F031E4D1D
:101960001E4E984207D0B84205D0A04203D0A842EC
:1019700001D0B04204D122F0700C4A6842EA0C0255
:10198000984210D0B8420ED0A0420CD0A8420AD043
:10199000B04208D0124CA04205D0124CA04202D056
:1019A000114CA04203D122F44074CA6822434C690E
:1019B00022F08002224302608A68C2620A68826260
:1019C000984201D10969016301214161F0BD000024
:1019D000000001400004004000080040000C0040EE
:1019E00000400140004401400048014010B58468B7
:1019F00042EA032224F47F440A432243826010BD5A
:101A0000826822F070020A4342F007018160704749
:101A100010B5036A046A24F001040462846924F0A6
:101A2000F00444EA021423F00A020A4384610262C9
:101A300010BD10B5036A23F0100303628369046AC2
:101A400023F4704343EA023224F0A00343EA011175
:101A50008261016210BD10B5806B0021C185C18417
:101A6000FFF716FC10BD01680C3151E8002F22F47D
:101A7000907241E80023002BF5D10168143151E840
:101A8000002F22F0010241E80023002BF5D1016B69
:101A9000012909D101680C3151E8002F22F0100210
:101AA00041E80023002BF5D1202180F83E100021D1
:101AB0000163704708B590F83E10222901D002203A
:101AC00008BD82684FF480539A4201D1016921B167
:101AD000816A9A421BD04AB10AE00268816A526860
:101AE000C2F308020A80816A891C08E0026972B1A7
:101AF0000268526802F07F020A70816A491C8162A2
:101B0000C18D491E0904090CC18503D019E0026882
:101B10005268F1E70168CA6822F02002CA600168D1
:101B2000CA6822F48072CA6001684A6922F0010220
:101B30004A61202180F83E10016B012903D0FFF794
:101B40004DFD002008BD0021016301680C3151E802
:101B5000002F22F0100241E80023002BF5D101688C
:101B60000A68D20602D50A6849680091818DFFF79C
:101B70008EFBE6E770B5044600680169E26821F46F
:101B80004051114301612169A068E269084361691C
:101B9000114308432168CA6849F20C639A4302431F
:101BA000CA6020684169A26921F440711143416112
:101BB00031492068884202D03049884202D1FEF77C
:101BC00047FF01E0FEF734FFE26900231921642595
:101BD0003226B2F5004F626828D0A0FB0101930FB6
:101BE0009200FEF749FB0146B0FBF5F06FF01802DA
:101BF000504301EB800006EB0010B0FBF5F000F065
:101C0000F002B1FBF5F002EB0012B1FBF5F06FF062
:101C10001803584301EB800006EB0010B0FBF5F011
:101C200000F00F0021681044886070BDA0FB010126
:101C300092185B41FEF720FB0146B0FBF5F0020174
:101C4000B1FBF5F06FF01803584301EB800006EB91
:101C5000C000B0FBF5F000F0F80002EB4002B1FB71
:101C6000F5F0584301EB800006EBC000B0FBF5F047
:101C700000F00700D6E7000000100140001401400A
:101C80000148FFF707BB0000A4000020FEE709079A
:101C9000090E002804DB00F1E02080F800147047F2
:101CA00000F00F0000F1E02080F8141D70470000E4
:101CB000FEF790FDFFF7F2FDFFF7ECFC10480F492F
:101CC0000C2201604FF4E131416000218160C1606C
:101CD000C0E904128161C161FFF710FC08B172B65E
:101CE000FEE7FFF76BFDFFF79DFD05489038FFF716
:101CF00057F903484838FFF753F9FEE70010014051
:101D0000A40000204FF04070E1EE100A7047000080
:101D1000000000000000010203040607080900009B
:101D20000000010203040000481D0008000000201C
:101D300014000000D40100085C1D000814000020FD
:101D400034070000F001000800000000010000005E
:0C1D500010000000000000000024F4005F
:040000050800019955
:00000001FF
