:020000040800F2
:1000000060070020B10100086F1400088112000889
:100010006D140008BD02000801180008000000006F
:100020000000000000000000000000007314000841
:10003000BF020008000000007114000875140008D9
:10004000CB010008CB010008CB010008CB01000860
:10005000CB010008CB010008C1020008CB01000859
:10006000C7020008CB010008CB010008CB01000843
:10007000CB010008CB010008CB010008CB01000830
:10008000CB010008CB010008CB01000800000000F4
:10009000000000000000000000000000CD02000889
:1000A000CB010008CB010008CB010008CB01000800
:1000B000CB010008CB010008CB010008CB010008F0
:1000C000CB010008CB010008CB010008CB010008E0
:1000D000CB010008F5170008CB0100080000000064
:1000E000CB010008CB010008CB0100080000000094
:1000F000000000000000000000000000CB0100082C
:1001000000000000CB010008CB010008CB01000873
:1001100000000000000000000000000000000000DF
:10012000CB010008CB010008CB010008CB0100087F
:10013000CB010008000000000000000000000000EB
:10014000000000000000000000000000CB010008DB
:10015000CB010008CB010008CB010008CB0100084F
:10016000CB010008CB0100080000000000000000E7
:10017000000000000000000000000000000000007F
:1001800000000000CB01000800000000000000009B
:10019000CB010008CB010008DFF810D000F07CF89C
:1001A000004800478D180008AFF30080600700206A
:1001B0000648804706480047FEE7FEE7FEE7FEE701
:1001C000FEE7FEE7FEE7FEE7FEE7FEE709150008AB
:1001D000990100082DE9F05F0546002092469B46F4
:1001E00088460646814640241BE02846414647464D
:1001F000224600F041F853465A46C01A914110D3A6
:1002000011461846224600F028F82D1A67EB01081F
:100210004F4622460120002100F01FF817EB00098D
:100220004E41201EA4F10104DFDC484631462A4637
:100230004346BDE8F09FD2B201E000F8012B491E11
:10024000FBD270470022F6E710B513460A46044673
:100250001946FFF7F0FF204610BD202A04DB203AA4
:1002600000FA02F1002070479140C2F1200320FA09
:1002700003F3194390407047202A04DB203A21FA07
:1002800002F00021704721FA02F3D040C2F12002AF
:100290009140084319467047064C074D06E0E06858
:1002A00040F0010394E8070098471034AC42F6D3BD
:1002B000FFF776FF5419000874190008FEE770472D
:1002C000012000F0B9B8042000F0B6B810B54FF422
:1002D000807000F0B1F8BDE810404FF4007000F0FD
:1002E000ABB82DE9F0410446876D00F0ABF9064646
:1002F00094F835000025022806D08020606584F837
:1003000034500120BDE8F0812068016821F0160119
:1003100001602068416921F080014161206C08B9C9
:10032000A06C20B12068016821F0080101602068FC
:10033000016821F0010101600CE000F083F9801BED
:10034000052807D920206065032084F8350084F84B
:100350003450D7E720680068C007EED194F85C10ED
:100360003F208840B860012084F8350084F834507C
:100370000020C7E790F83510022903D0802141659D
:1003800001207047052180F835100068016821F0D0
:10039000010101600020704770B5044600F052F979
:1003A0000546601C02D004480078044400F04AF975
:1003B000401BA042FAD370BD0800002010B50446CF
:1003C0004FF47A70FFF7E8FF012C11D0042C21D0F4
:1003D0004FF4807115488C4214D041158C4223D1C2
:1003E00000F026F900281FD1BDE8104000F07ABFC8
:1003F00001210F4800F01CF9012815D1BDE810407B
:1004000000F040BF00F014F900280DD1BDE8104005
:1004100000F050BF0421074800F00AF9002803D17A
:10042000BDE8104000F076BF10BD0000000802409B
:1004300000000240000C0240044910B50A68024264
:1004400002D00860FFF7BAFF10BD0000143C014065
:100450002DE9F84FDFF8B8A1002201240AF1040BBE
:1004600003254FF00F090BF1040E00BF0B6804FACF
:1004700002F63340B34273D10F7907F00307012F1F
:1004800001D0022F16D187684FEA420805FA08FC0E
:1004900027EA0C07D1F80CC00CFA08FC4CEA070C50
:1004A000C0F808C04768B7430E79C6F300169640F7
:1004B0003E4346600E79F643B6070DD0C768560036
:1004C00005FA06FC27EA0C07D1F808C00CFA06FC6E
:1004D0004CEA070CC0F80CC00E7906F00306022E99
:1004E00010D1D60800EB8608D8F8206057074FEAED
:1004F000D76C09FA0CF7BE430F6907FA0CF73743BC
:10050000C8F8207006684FEA420C05FA0CF7BE43A3
:100510000F7907F0030707FA0CF7374307604E68B7
:1005200016F4403F6DD03B4E376847F48047376044
:10053000366822F0030706F480460096364E07EB35
:10054000060CDCF8086897073F0F09FA07F826EA57
:100550000806DFF8C880404503D14FF000081EE0D0
:100560004FE0DFF8BC80404502D14FF0010816E0B3
:10057000DFF8B080404502D14FF002080FE0DFF80D
:10058000A880404502D14FF0030808E0DFF89C80C6
:10059000404502D14FF0040801E04FF0070808FA87
:1005A00007F848EA0608CCF80888DAF800605746E9
:1005B000D1F804C09E435FEACC3C00D51E433E60A8
:1005C000DBF800605F46D1F804C09E435FEA8C3CD4
:1005D00000D51E433E60DEF800607746D1F804C0C7
:1005E0009E435FEACC2C00D51E433E60084F0C377B
:1005F0003E68D1F804C09E435FEA8C2C00D51E43B0
:100600003E60521C102AFFF431AFBDE8F88F0000A5
:10061000003C0140443802400030014000000240EC
:100620000004024000080240000C0240001002409A
:100630000069084000D0012070470AB1816170470D
:100640000904FBE7014880687047000008000020AB
:1006500002488168027811448160704708000020D8
:100660000B4810B5016841F400710160016841F464
:1006700080610160016841F480710160032000F035
:1006800071F8002000F006F800F024F8002010BDFA
:10069000003C024070B50D4D04464FF47A71287845
:1006A000B1FBF0F00A490968B1FBF0F000F00CFB77
:1006B00048B9102C07D200222146501E00F032F813
:1006C00000206C6070BD012070BD0000080000209B
:1006D000140000200B4882B0016841F480410160A1
:1006E000006800F4804000900648001F016841F057
:1006F00080510160006800F080500090052002B039
:1007000000F030B844380240002809DB00F01F0236
:10071000012191404009800000F1E020C0F8001163
:1007200070470000F0B40E4B1B680C46C3F3022365
:10073000C3F10705042D00D90425191D072901D28D
:10074000002300E0DB1E012606FA05F1491E2140C8
:1007500099409E40761E16403143F0BC01F05AB8D5
:100760000CED00E0064900F0070208684FF6FF03B1
:10077000184040EA0220034A104308607047000016
:100780000CED00E00000FA052DE9F0470E460500EB
:1007900065D0DFF81481D8F80000F7B200F0070048
:1007A000B04207D288F80070D8F8000000F00700C7
:1007B000B04254D128683D4C810712D5400703D57B
:1007C000206840F4E05020602878000703D52068B6
:1007D00040F4604020602068A96820F0F0000843E1
:1007E00020602878C0072DD0304968680839012872
:1007F00012D0022813D0032811D0096889070029D4
:100800002DDA216821F0030101432160FFF71AFF6F
:10081000814641F2883A0EE009688903EFE70968EA
:100820008901ECE7FFF70EFFA0EB0901514502D962
:100830000320BDE8F0872068696800F00C00B0EB89
:10084000810FEFD1D8F80010404601F00701B14206
:1008500007D90770006800F00700B04201D00120FE
:10086000E7E72878400705D52068E96820F4E050DC
:10087000084320602878000706D52068296920F4FD
:10088000604040EAC100206000F038F82168084A62
:10089000C1F30311515CC84006490860064800686E
:1008A000FFF7F8FE0020C4E7003C02400838024091
:1008B0003C190008140000200C00002004480549E1
:1008C00000680968044AC1F38221515CC84070473E
:1008D00014000020083802404C190008044805495B
:1008E00000680968044AC1F34231515CC84070474E
:1008F00014000020083802404C190008154810B5B3
:10090000006810F00C02144813D04110042A0FD0D4
:10091000082A0ED10F4C241F2268236802F03F02E0
:100920005B0207D52068C0F38810A0FB010106E038
:10093000084610BD2168C1F38811A1FB0001002306
:10094000FFF748FC2168C1F30141491C4900B0FB95
:10095000F1F010BD083802400024F4002DE9F84FF2
:1009600004006ED02078DFF84C93C007A9F104058D
:100970004AD009F104000168C1F38101012908D0BE
:100980000068C0F3810002280AD1D9F800004002B3
:1009900006D52868800337D560680028E1D033E0A9
:1009A0006068B0F5803F10D0B0F5A02F286810D057
:1009B00020F480302860286820F480202860606857
:1009C000A8B1FFF73FFE06460DE0286840F48030EE
:1009D000F4E740F480202860F7E700BFFFF732FE1D
:1009E000801B642873D828688003F7D50CE0FFF7D4
:1009F00029FE064605E000BFFFF724FE801B6428A1
:100A0000F0D828688003F7D42078DFF8AC8280071C
:100A10004FF0000A3ED5A748001D016811F00C0FE9
:100A200008D00068C0F3810002280BD1D9F800007B
:100A3000400207D42868800716D5E068012800D155
:100A400012E033E1E068B8B10120C8F80000FFF718
:100A5000F9FD064605E000BFFFF7F4FD801B022804
:100A6000C0D828688007F7D52868216920F0F800E9
:100A700040EAC10028600DE0C8F800A0FFF7E2FDE1
:100A8000064604E0FFF7DEFD801B02281FD8286819
:100A90008007F7D42078000722D5864F8748616900
:100AA000703771B101210160FFF7CCFD064604E00B
:100AB000FFF7C8FD801B022809D838688007F7D5E2
:100AC0000EE0C0F800A0FFF7BDFD064605E082E09D
:100AD000FFF7B8FD801B02287DD838688007F7D45F
:100AE0002078400768D5DFF8CCB100270BF13C0B2C
:100AF000DBF80000C0000BD4DBF8001041F080519F
:100B0000CBF80010DBF80000012700F080500090C7
:100B10006B4E3068C00510D4306840F4807030608F
:100B2000FFF790FD009005E0FFF78CFD0099401A5B
:100B3000022850D83068C005F6D55E4EA0686C36E5
:100B400001280FD00528306810D020F00100306057
:100B5000306820F004003060A068B8B1FFF772FD83
:100B600000900FE0306840F00100F4E740F004002E
:100B70003060F7E7FFF766FD0099411A41F28830CF
:100B8000814266D830688007F4D50EE0FFF75AFD41
:100B9000009007E0FFF756FD0099411A41F28830B6
:100BA000814256D830688007F4D42FB1DBF80010AA
:100BB00021F08051CBF80010A069C8B33D49091D50
:100BC0000968C1F3810102294AD00228504607D0A2
:100BD000C8F8600000E03CE0FFF734FD04463BE06D
:100BE0004746C8F86000FFF72DFD064605E000BF48
:100BF000FFF728FD801B02282BD828688001F7D436
:100C0000D4E907010843A16A2E4A490802EB0141D1
:100C1000626A41EA8211084394F82C1040EA0161AB
:100C2000C9F8001001203866FFF70CFD044606E005
:100C30003EE000BFFFF706FD001B022809D8286828
:100C40008001F7D534E000BFFFF7FCFC001B022851
:100C500002D90320BDE8F88F28688001F4D427E08A
:100C60000128F7D0D9F80000E26900F48001914230
:100C70001CD1226A00F03F01914217D147F6C071A2
:100C8000626A0140B1EB821F10D1A26A4FF0FF33BC
:100C900000F4403103EB5202B1EB024F06D194F85D
:100CA0002C1000F07060B0EB016F01D00120D1E793
:100CB0000020CFE70438024000004742800E474240
:100CC000007000400000FFFF10B5401EB0F1807FB3
:100CD00001D3012010BD4FF0E02460610F216017A7
:100CE00000F098FD0020A06107202061002010BDC9
:100CF0007047704710F83D1F407808437047000068
:100D0000F8B5016804460868CA684B6910F00F0F0F
:100D10004FF0000559D003F0010602F490773743F5
:100D200065D0C10705D0D10503D5216C41F0010183
:100D30002164410705D5D90703D0216C41F0020198
:100D40002164810705D5D90703D0216C41F0040146
:100D50002164010707D502F02001314303D0216C43
:100D600041F008012164216C00293AD0800604D5A5
:100D7000900602D5204600F0FEFB20684069216CF9
:100D8000C0F38010090700D460B3204600F0CCFB0C
:100D900020684069400621D52068143050E8001FC3
:100DA00021F0400140E80012002AF5D1A06BA8B163
:100DB0006C490165A06BFFF7DDFA002811D0A06B2C
:100DC000016D01B0BDE8F040084783060FD59306DA
:100DD0000DD52046BDE8F84000F0CDBB2046FFF71A
:100DE00088FFF8BD2046FFF784FF2564F8BD266B19
:100DF0002023012E79D1C60677D5D60675D5086889
:100E0000486800904869400640D5A16B0868406872
:100E10000004000CEAD0A28D8242E7D9E085C869BF
:100E2000B0F5807F2DD020680C3050E8001F21F4F1
:100E3000807140E80012002AF5D12068143050E893
:100E4000001F21F0010140E80012002AF5D12068BE
:100E5000143050E8001F21F0400140E80012002A41
:100E6000F5D184F83E30256320680C3050E8001F2F
:100E700021F0100140E80012002AF5D1A06BFFF725
:100E800030FAA08DE18D401A81B229E0A08DE18D6C
:100E9000401A81B2E08D0028A8D00029A6D0206891
:100EA0000C3050E8002F22F4907240E80026002E0B
:100EB000F5D12068143050E8002F22F0010240E8FC
:100EC0000026002EF5D184F83E30256320680C30D2
:100ED00050E8002F22F0100240E80023002BF5D14B
:100EE0002046FFF705FFF8BDFFE705062BD51506E1
:100EF00029D594F83D002128F5D1A068B0F5805F90
:100F000001D12069B0B1206A411C216221680078BA
:100F10004860E08C401E0004000CE084E3D12068AF
:100F2000C16821F08001C1602068C16841F04001C2
:100F3000C160D8E7206A0088C0F308004860206AD2
:100F4000801C2062E5E74006CDD55006CBD5CA68A7
:100F5000204622F04002CA6084F83D3000F08FF94C
:100F6000C1E700001915000870B5040004D094F81A
:100F70003D00002510B106E0012070BD84F83C5012
:100F8000204600F023F8242084F83D002068C16842
:100F900021F40051C160204600F04EFB2068016939
:100FA00021F4904101612068416921F02A014161E9
:100FB0002068C16841F40051C1602564202084F894
:100FC0003D0084F83E00002070BD000010B586B0E2
:100FD000044614216846FFF735F91849206888420D
:100FE00029D117480021026842F01002026000680F
:100FF00000F01000059012481438026842F0010217
:101000000260006800F0010005904FF4C06000909D
:101010000220CDE9010103200390072004906946D6
:101020000848FFF715FA002211462520FFF77AFB42
:101030002520FFF769FB06B010BD0000001001403D
:1010400044380240000002402DE9F84F044690F871
:101050003E009A4616460D46202853D1FDB1F6B102
:1010600094F83C0001284DD0012084F83C00002772
:101070002764222084F83E002763FFF7E3FAA68561
:101080008146E685A0684FF48058404501D120692B
:1010900040B12E465FF0000584F83C7027E0012047
:1010A000BDE8F88F0026F7E74B46002220212046B6
:1010B000CDF800A000F061FB08B10320F0E726B1F5
:1010C000A06840451BD038B108E020684068C0F3F4
:1010D000080025F8020B07E0206980B1206840680D
:1010E00000F07F0006F8010BE08D401EE085E08DEA
:1010F0000028D9D1202084F83E000020D0E72068C5
:101100004068EFE70220CBE790F83E30202B0ED16D
:1011100059B152B190F83C30012B08D0012380F82E
:101120003C300023036300F00DBB01207047022018
:10113000704700002DE9F0411E4C00254FF48076E9
:1011400020784FF6FF77FF280CD3257031461A48D8
:10115000FFF778F83B46BDE8F0410A2217A11A488C
:1011600000F034B8144962780A54401CC2B288189E
:10117000227010F8011C0A291AD110F8020C0D284F
:1011800016D13B460C49104800F020F80E48FFF7F6
:10119000B1FD2128FAD0257031460748FFF752F8F3
:1011A000BDE8F04103490122491C0748FFF7ACBFE5
:1011B000BDE8F081000000201C020020CAFDBEDD59
:1011C000D2E7B3F6000000001C0300202DE9F8432D
:1011D000044690F83D001F4616460D4620284CD187
:1011E000C5B1BEB194F83C00012846D0012084F876
:1011F0003C004FF00008C4F84080212084F83D00F6
:10120000FFF720FAA6848146E684A068B0F5805FE7
:1012100003D004E00120BDE8F883206928B12E4600
:101220005FF0000584F83C800EE00026FAE780219C
:10123000204600F0A2FAA0B9AEB116F8010B216861
:101240004860E08C401EE084E08C4B464FF000028A
:1012500000970028EBD14FF04001204600F08DFAB6
:1012600030B10320D7E735F8020BC0F30800E6E7FA
:10127000202084F83D000020CDE70220CBE7704716
:10128000FEE7000070B50A4C002201212046FFF75E
:10129000D4F94FF47A752846FFF77EF801221146FB
:1012A0002046FFF7CAF92846BDE87040FFF774B83A
:1012B0000008024070B50A4C002202212046FFF7C8
:1012C000BCF94FF47A752846FFF766F8012202212F
:1012D0002046FFF7B2F92846BDE87040FFF75CB83A
:1012E0000008024070B50A4C002204212046FFF796
:1012F000A4F94FF47A752846FFF74EF8012204212D
:101300002046FFF79AF92846BDE87040FFF744B839
:101310000008024070B50A4C002208212046FFF761
:101320008CF94FF47A752846FFF736F80122082128
:101330002046FFF782F92846BDE87040FFF72CB839
:10134000000802402DE9F04387B014216846FEF7FB
:1013500079FF41480025016841F080010160016882
:1013600001F080010591016841F00401016001680C
:1013700001F004010591016841F00101016001687B
:1013800001F001010591016841F008010160016867
:1013900001F008010591016841F002010160006857
:1013A000DFF8B88000F00200059001220F214046CE
:1013B000FFF743F90122DFF8A890170239464846A3
:1013C000FFF73BF901240F20CDE900040226CDE907
:1013D000024669464046FFF73BF84FF48810CDE9D6
:1013E0000040694602961F48FFF732F84FF44070FC
:1013F0004FF40416CDE90006694602944046FFF713
:1014000027F80420CDE90006694602941648FFF744
:101410001FF80097CDE90145694648460395FFF757
:1014200017F8022211460620FFF77CF90620FFF785
:101430006BF9012202210820FFF774F90820FFF759
:1014400063F9002202211720FFF76CF91720FFF73C
:101450005BF907B0BDE8F083303802400008024075
:101460000004024000000240000C0240FEE7FEE7DC
:1014700070477047FFF7ECB830B593B0302168463D
:10148000FEF7E0FE14210CA8FEF7DCFE1C48002548
:10149000016841F080510160006800F080501190B7
:1014A0001848016841F4404101600068022400F4DA
:1014B0004040119001200090000401908001CDE98E
:1014C000064008AA0420602182E813000B906846B9
:1014D000FFF744FA08B172B6FEE70CA90F2081E8C5
:1014E00031004FF48050CDE90F0503210CA8FFF720
:1014F0004BF9002801D072B6FEE713B030BD0000F2
:1015000040380240007000400248016841F4700118
:101510000160704788ED00E010B5806B0021C18547
:10152000C184FFF7E6FB10BD01680C3151E8002FC4
:1015300022F4907241E80023002BF5D101681431A8
:1015400051E8002F22F0010241E80023002BF5D1E1
:10155000016B012909D101680C3151E8002F22F0FB
:10156000100241E80023002BF5D1202180F83E1025
:1015700000210163704708B590F83E10222901D080
:10158000022008BD82684FF480539A4201D101695C
:1015900021B1816A9A421BD04AB10AE00268816A8D
:1015A0005268C2F308020A80816A891C08E0026955
:1015B00072B10268526802F07F020A70816A491CA7
:1015C0008162C18D491E0904090CC18503D019E04F
:1015D00002685268F1E70168CA6822F02002CA6016
:1015E0000168CA6822F48072CA6001684A6922F000
:1015F00001024A61202180F83E10016B012903D0CD
:10160000FFF798FD002008BD0021016301680C313F
:1016100051E8002F22F0100241E80023002BF5D101
:1016200001680A68D20602D50A6849680091818D6E
:10163000FFF75EFBE6E7000070B50446006801694D
:10164000E26821F44051114301612169A068E26917
:1016500008436169114308432168CA6849F20C6371
:101660009A430243CA6020684169A26921F440712B
:101670001143416131492068884202D03049884293
:1016800002D1FFF72BF901E0FFF718F9E269002317
:10169000192164253226B2F5004F626828D0A0FBDC
:1016A0000101930F9200FEF795FD0146B0FBF5F0A6
:1016B0006FF01802504301EB800006EB0010B0FB06
:1016C000F5F000F0F002B1FBF5F002EB0012B1FB17
:1016D000F5F06FF01803584301EB800006EB0010A3
:1016E000B0FBF5F000F00F0021681044886070BD79
:1016F000A0FB010192185B41FEF76CFD0146B0FBB7
:10170000F5F00201B1FBF5F06FF01803584301EB5F
:10171000800006EBC000B0FBF5F000F0F80002EB33
:101720004002B1FBF5F0584301EB800006EBC0002E
:10173000B0FBF5F000F00700D6E700000010014014
:101740000014014081628285C28500210164222249
:1017500080F83E2080F83C100168CA6842F480722C
:10176000CA6001684A6942F001024A610068C168C2
:1017700041F02001C160002070472DE9F0419846FA
:1017800017460E460446069D27E0681C25D02DB15D
:10179000FEF758FFA0EB0800A8421ED920680C30C5
:1017A00050E8001F21F4D07140E80012002AF5D162
:1017B0002068143050E8001F21F0010140E80012B9
:1017C000002AF5D1202084F83D0084F83E00002056
:1017D00084F83C000320BDE8F0812068006836EA08
:1017E000000004D00020B842CFD00020F3E7012051
:1017F000F9E700000148FFF783BA00001C0300204E
:10180000FEE70000014A024900F023B875180008FD
:10181000180000200907090E002804DB00F1E02071
:1018200080F80014704700F00F0000F1E02080F80D
:10183000141D704702E008C8121F08C1002AFAD11F
:1018400070477047002001E001C1121F002AFBD140
:1018500070472DE9F04116460F460446002503E087
:101860003946B047641C6D1C20780028F8D1284602
:10187000BDE8F08113B54FF6FF73012269460248B7
:10188000FFF7A4FC00981CBD1C030020FEF7E8FE37
:10189000FFF7F2FDFFF756FD20481F4900260160C3
:1018A0004FF4E131C0E901160C21C660C0E90461C2
:1018B0008661C661FFF758FB08B172B6FEE718A053
:1018C000FFF7A0FFDFF868A01A4F4FF47A794FF4C2
:1018D00080754B462A4618491048FFF7B5FB002093
:1018E0001549A5F102086C1ECAF8045006E00A5C0E
:1018F0003A54404501D13A185670401CA042F6D3E4
:101900004B462A460B490548FFF760FC00203E5431
:10191000401CFF28FBD3DCE7001001401C03002023
:1019200073746D33322069732072656164790A00C3
:10193000000000201C0100201C000020000000000E
:10194000000000000102030406070809000000006F
:101950000102030474190008000000201C000000AC
:1019600034180008901900081C00002044070000EB
:101970004418000800000000000000000100000002
:1019800010000000000000000024F400000000002F
:040000050800019955
:00000001FF
