:020000040800F2
:1000000060040020B10100086B160008DF1300082F
:1000100069160008BD020008F91B00080000000076
:10002000000000000000000000000000E3170008CE
:10003000BF02000800000000E1170008E5170008F3
:10004000CB010008CB010008CB010008CB01000860
:10005000CB010008CB010008C1020008CB01000859
:10006000C7020008CB010008CB010008CB01000843
:10007000CB010008CB010008CB010008CB01000830
:10008000CB010008CB010008CB01000800000000F4
:10009000000000000000000000000000CD02000889
:1000A000CB010008CB010008CB010008CB01000800
:1000B000CB010008CB010008CB010008CB010008F0
:1000C000CB010008CB010008CB010008CB010008E0
:1000D000CB010008ED1B0008CB0100080000000068
:1000E000CB010008CB010008CB0100080000000094
:1000F000000000000000000000000000CB0100082C
:1001000000000000CB010008CB010008CB01000873
:1001100000000000000000000000000000000000DF
:10012000CB010008CB010008CB010008CB0100087F
:10013000CB010008000000000000000000000000EB
:10014000000000000000000000000000CB010008DB
:10015000CB010008CB010008CB010008CB0100084F
:10016000CB010008CB0100080000000000000000E7
:10017000000000000000000000000000000000007F
:1001800000000000CB01000800000000000000009B
:10019000CB010008CB010008DFF810D000F07CF89C
:1001A00000480047111D0008AFF3008060040020E4
:1001B0000648804706480047FEE7FEE7FEE7FEE701
:1001C000FEE7FEE7FEE7FEE7FEE7FEE77918000838
:1001D000990100082DE9F05F0546002092469B46F4
:1001E00088460646814640241BE02846414647464D
:1001F000224600F041F853465A46C01A914110D3A6
:1002000011461846224600F028F82D1A67EB01081F
:100210004F4622460120002100F01FF817EB00098D
:100220004E41201EA4F10104DFDC484631462A4637
:100230004346BDE8F09FD2B201E000F8012B491E11
:10024000FBD270470022F6E710B513460A46044673
:100250001946FFF7F0FF204610BD202A04DB203AA4
:1002600000FA02F1002070479140C2F1200320FA09
:1002700003F3194390407047202A04DB203A21FA07
:1002800002F00021704721FA02F3D040C2F12002AF
:100290009140084319467047064C074D06E0E06858
:1002A00040F0010394E8070098471034AC42F6D3BD
:1002B000FFF776FF981D0008B81D0008FEE770479D
:1002C000012000F0C3B8042000F0C0B810B54FF40E
:1002D000807000F0BBF8BDE810404FF4007000F0F3
:1002E000B5B82DE9F0410446A66D00F0C7F9054602
:1002F00094F835000027022806D08020606584F835
:1003000034700120BDE8F0812068016821F01601F9
:1003100001602068416921F080014161206C08B9C9
:10032000A06C20B12068016821F0080101602068FC
:10033000016821F0010101602068006810F0010FE0
:1003400012D000F09BF9401B052808D920206065D9
:10035000032084F8350084F83470BDE8F08120680B
:10036000006810F0010FECD194F85C003F2101FA15
:1003700000F0B060012084F8350084F8347000206B
:10038000BDE8F08190F83510022903D08021416545
:1003900001207047052180F835100068016821F0C0
:1003A000010101600020704770B5044600F066F955
:1003B0000546B4F1FF3F02D004480078044400F041
:1003C0005DF9401BA042FAD370BD0000040000207C
:1003D00010B504464FF47A70FFF7E6FF012C11D0F8
:1003E000042C21D04FF4807115488C4214D0411553
:1003F0008C4223D100F034F900281FD1BDE8104011
:1004000001F05EB801210F4800F02AF9012815D14A
:10041000BDE8104001F024B800F022F900280DD109
:10042000BDE8104001F034B80421074800F018F985
:10043000002803D1BDE8104001F05AB810BD0000FB
:100440000008024000000240000C024010B50449C0
:100450000A68024202D00860FFF7BAFF10BD000030
:10046000143C01402DE9F84F0022DFF8E8A1DFF845
:10047000E0914FF0010E03274FF00F080AF1040B33
:100480000EFA02FC0B6803EA0C0363457DD10C797C
:1004900004F00304012C01D0022C14D1856854000F
:1004A00007FA04F6B543CE6806FA04F42C438460D8
:1004B000446824EA0C0C0C79C4F30014944044EA18
:1004C0000C0CC0F804C0D1F804C037EA0C0C0CD0F6
:1004D000C4684FEA420C07FA0CF5AC438D6805FA84
:1004E0000CFC4CEA040CC0F80CC091F804C00CF0F1
:1004F000030CBCF1020F12D14FEAD20C00EB8C04BA
:10050000256A4FEA427C4FEADC6C08FA0CF6B543E8
:100510000E6906FA0CFC4CEA050CC4F820C004680D
:100520004FEA420C07FA0CF5AC430D7905F00305D0
:1005300005FA0CFC4CEA040CC0F800C0D1F804C069
:100540001CF4403F6ED0D9F800C04CF4804CC9F880
:1005500000C0D9F800C00CF4804CCDF800C022F0E7
:10056000030C0CF1804505F59835D5F808C89407BB
:10057000240F08FA04F62CEA0606A0F1804CBCF51C
:10058000003C55D0A0F1804C00E04BE0BCF5013CB4
:1005900051D0A0F1804CBCF5023C4FD0A0F1804C72
:1005A000BCF5033C4DD0A0F1804CBCF5043C4BD0D5
:1005B0004FF0070C0CFA04FC4CEA060CC5F808C80E
:1005C000DAF800C02CEA030C4C6814F4801F01D048
:1005D0004CEA030CCAF800C0DBF800C02CEA030C9C
:1005E0004C6814F4001F01D04CEA030CCBF800C097
:1005F000194CD4F800C02CEA030C4D6815F4003FE8
:1006000001D04CEA030CC4F800C0144CD4F800C06C
:100610002CEA030C4D6815F4803F01D04CEA030C22
:10062000C4F800C0521C102AFFF42AAFBDE8F88FAE
:100630004FF0000CBEE74FF0010CBBE74FF0020C8F
:10064000B8E74FF0030CB5E74FF0040CB2E7000039
:1006500044380240083C0140043C0140003C014059
:100660000069084201D00120704700207047002A2D
:1006700001D0816170470904816170470148806839
:10068000704700000400002002488168027811448D
:10069000816070470400002010B50B48016841F4E8
:1006A00000710160016841F480610160016841F4FA
:1006B00080710160032000F087F8002000F006F848
:1006C00000F026F8002010BD003C024070B5044642
:1006D0000D4D4FF47A712878B1FBF0F00B490968A1
:1006E000B1FBF0F000F0DEFB08B1012070BD102C72
:1006F00007D200222146501E00F032F86C60002024
:1007000070BD012070BD000004000020100000201A
:100710000B4882B0016841F480410160006800F438
:10072000804000900648001F016841F08051016040
:10073000006800F080500090052002B000F044B83E
:100740004438024000280ADB00F01F01012202FAAF
:1007500001F14009800000F1E020C0F8001170476D
:1007600010B4184B1B68C3F30223C3F1070CBCF190
:10077000040F01D94FF0040C1C1D072C01D20023DB
:1007800000E0DB1E012404FA0CFCACF1010C0CEAC5
:100790000101994004FA03F35B1E1A40114300283B
:1007A00006DB00F1E020090180F8001410BC70475E
:1007B00000F00F0000F1E020090180F8141D10BCCA
:1007C000704700000CED00E000F00700064A1168D9
:1007D0004FF6FF03194041EA002040F0FD7040F061
:1007E00080601060704700000CED00E02DE9F047DC
:1007F00004460D46002C13D0DFF85491D9F80000C0
:10080000EFB200F00700A8420DD289F80070D9F8C5
:10081000000000F00700A84205D00120BDE8F087E5
:100820000120BDE8F08720684A4E10F0020F14D076
:1008300010F0040F03D0306840F4E05030602078AE
:1008400010F0080F03D0306840F46040306030682A
:10085000A16820F0F00008433060207810F0010F0C
:100860003ED060683C49012808D002280DD00328FA
:100870000BD0096811F0020F28D00AE0096811F4C2
:10088000003F06D10120BDE8F087096811F0007F24
:1008900019D0316821F0030108433060FFF7EEFE04
:1008A00080463068616800F00C00B0EB810F17D013
:1008B00041F2883AFFF7E2FEA0EB0800504508D964
:1008C0000320BDE8F0870120BDE8F0870120BDE8E6
:1008D000F0873068616800F00C00B0EB810FE9D15F
:1008E000D9F8000000F00700A8420AD989F8007082
:1008F000D9F8000000F00700A84202D00120BDE8AE
:10090000F087207810F0040F05D03068E16820F4FB
:10091000E05008433060207810F0080F06D03068AF
:10092000216920F4604040EAC100306000F042F8E4
:1009300031680A4AC1F30311515CC8400849086094
:1009400008480068FFF7C2FE0020BDE8F0870000FD
:10095000003C02400838024000380240801D000878
:1009600010000020080000200148006870470000C7
:100970001000002000B5FFF7F7FF04490968044A9A
:10098000C1F38221515CC84000BD0000083802401C
:10099000901D000800B5FFF7E7FF04490968044A05
:1009A000C1F34231515CC84000BD0000083802402C
:1009B000901D000810B51748006810F00C0116488B
:1009C00016D04310042912D0082911D1134C2168E4
:1009D00001F03F02216811F4800F0AD02068C0F3B3
:1009E0008810A0FB03010023FFF7F4FB09E0184681
:1009F00010BD21680023C1F38811A1FB0001FFF79E
:100A0000E9FB2168C1F30141491C4900B0FBF1F049
:100A100010BD0000083802400024F40004380240F1
:100A20002DE9F84F0446002C12D02078FB4E10F030
:100A3000010FA6F1040563D0301D016801F00C011F
:100A400004290CD0006800F00C00082803D010E046
:100A50000120BDE8F88F306810F4800F09D02868B5
:100A600010F4003F4CD06068002849D10120BDE857
:100A7000F88F6068B0F5803F14D0B0F5A02F16D085
:100A8000286820F480302860286820F480202860BE
:100A9000606810B3FFF7F2FD0746286810F4003FC6
:100AA0000ED02DE0286840F480302860F0E72868F8
:100AB00040F480202860286840F480302860E7E710
:100AC000FFF7DCFDC01B642802D90320BDE8F88FC6
:100AD000286810F4003FF3D012E0FFF7CFFD07467F
:100AE000286810F4003F0BD0FFF7C8FDC01B642836
:100AF00002D90320BDE8F88F286810F4003FF3D135
:100B00002078C74F10F0020F4FF0000957D0C548AA
:100B1000016811F00C0F14D0006800F00C000828D8
:100B200003D1306810F4800F0BD0E06880B301204F
:100B30003860FFF7A3FD8046286810F0020F12D03E
:100B40001EE0286810F0020F05D0E068012802D0EE
:100B50000120BDE8F88F2868216920F0F80040EAFC
:100B6000C10028602BE0FFF789FDA0EB08000228F8
:100B700002D90320BDE8F88F286810F0020FF2D0E8
:100B80002868216920F0F80040EAC100286016E0DA
:100B9000FFE7C7F80090FFF771FD8046286810F066
:100BA000020F0CD0FFF76AFDA0EB0800022802D963
:100BB0000320BDE8F88F286810F0020FF2D12078EA
:100BC00010F0080F35D09848DFF860A26169C1B114
:100BD00001210160FFF752FD8046DAF8000010F0B5
:100BE000020F26D1FFF74AFDA0EB0800022802D928
:100BF0000320BDE8F88FDAF8000010F0020FF1D002
:100C000017E0C0F80090FFF739FD8046DAF80000E1
:100C100010F0020F0DD0FFF731FDA0EB0800022805
:100C200002D90320BDE8F88FDAF8000010F0020FB7
:100C3000F1D1207810F0040F71D04FF000087C48FB
:100C4000006810F0805F0AD17948016841F0805156
:100C50000160006800F0805000904FF00108DFF85C
:100C6000D4B1DBF8000010F4807F1BD1DBF800006A
:100C700040F48070CBF80000FFF700FD8246DBF8FF
:100C8000000010F4807F0DD1FFF7F8FCA0EB0A0004
:100C9000022802D90320BDE8F88FDBF8000010F429
:100CA000807FF1D0A068DFF890B1012818D0052826
:100CB0001DD0DBF8000020F00100CBF80000DBF8CD
:100CC000000020F00400CBF80000A06840B3FFF75C
:100CD000D5FC8246DBF8000010F0020F14D03EE095
:100CE000DBF8000040F00100CBF80000EDE7DBF896
:100CF000000040F00400CBF80000DBF8000040F0FA
:100D00000100CBF80000E0E7FFF7B8FCA0EB0A0118
:100D100041F28830814204D90320BDE8F88F26E0F3
:100D200005E0DBF8000010F0020FEDD017E0FFF750
:100D3000A5FC8246DBF8000010F0020F0FD0FFF791
:100D40009DFCA0EB0A0141F28830814202D90320C8
:100D5000BDE8F88FDBF8000010F0020FEFD1B8F11A
:100D6000010F04D13248016821F080510160A0696F
:100D7000F0B32C4909684FF0FF3801F00C01082945
:100D800066D0022810D0C7F86090FFF777FC0446C1
:100D9000286810F0007F2BD0FFF770FC001B0228A2
:100DA00051D90320BDE8F88FC7F86090FFF766FCC3
:100DB0008146286810F0007F0CD0FFF75FFCA0EBA5
:100DC0000900022802D90320BDE8F88F286810F036
:100DD000007FF2D1216AE069A26A0843616A08EBE8
:100DE0005202890141EA0241084394F82C1000E0C4
:100DF00055E040EA0160306001203866FFF73EFCB4
:100E00000446286810F0007F49D1FFF737FC001B2B
:100E1000022813D90320BDE8F88F000004380240EF
:100E20000000474208380240800E474274380240B2
:100E3000403802400070004070380240286810F0CE
:100E4000007FE2D02BE0286810F0007FA4D126E0DC
:100E5000012822D03068E26900F4800191421AD161
:100E6000226A00F03F01914215D147F6C071626AD3
:100E70000140B1EB821F0ED1A26A00F4403108EBB1
:100E80005202B1EB024F06D194F82C1000F07060C2
:100E9000B0EB016F03D00120BDE70120BBE70020CC
:100EA000B9E70000401EB0F1807F01D301207047F8
:100EB0004FF0E0214861044AF02010700020886162
:100EC000072008610020704723ED00E0704770475D
:100ED000F8B5044622681068D168536900F00F0C19
:100EE000BCF1000F0AD110F0200F07D011F0200F35
:100EF00004D02046BDE8F84000F002BD0025BCF15A
:100F0000000F75D003F0010C01F490765CEA060640
:100F10006ED010F0010F06D011F4807F03D0226C48
:100F200042F00102226410F0040F06D013F0010F0A
:100F300003D0226C42F00202226410F0020F06D0AD
:100F400013F0010F03D0226C42F00402226410F06F
:100F5000080F08D001F0200252EA0C0203D0226CE4
:100F600042F008022264226C002A35D010F0200FD3
:100F700005D011F0200F02D0204600F0C1FC2068FF
:100F80004069C0F38010216C11F0080F00D148B304
:100F9000204600F081FC2068406910F0400F1CD012
:100FA0002068143050E8001F21F0400140E8001292
:100FB000002AF5D1A06B60B15C490165A06BFFF719
:100FC000E1F9002808D0A06B016D01B0BDE8F04048
:100FD00008472046FFF77BFFF8BD2046FFF777FF65
:100FE000F8BD05E0FFE72046FFF771FF2564F8BD77
:100FF000236B012B7ED110F0100F7BD011F0100F5E
:101000007ED010685068009050694FF0200310F0B7
:10101000400F43D0A16B0868406880B20028E6D03A
:10102000A28D8242E3D9E085C869B0F5807F2DD0DA
:1010300020680C3050E8001F21F4807140E8001255
:10104000002AF5D12068143050E8001F21F001017A
:1010500040E80012002AF5D12068143050E8001F43
:1010600021F0400140E80012002AF5D184F83E301A
:10107000256320680C3050E8001F21F0100140E883
:101080000012002AF5D1A06BFFF72BF9A08DE18D9E
:10109000401A81B22046FFF719FFF8BDA08DE18DFF
:1010A000401A81B2E08D0028F7D00029F5D02068E1
:1010B0000C3050E8002F22F4907240E8002CBCF174
:1010C000000FF4D12068143050E8002F22F0010204
:1010D00040E8002CBCF1000FF4D184F83E302563C9
:1010E00020680C3050E8002F22F0100240E8002366
:1010F000002B00E004E0F3D12046FFF7E7FEF8BD47
:1011000010F0800F07D011F0800F04D02046BDE80A
:10111000F84000F0F5BC10F0400FF0D011F0400F97
:10112000EDD02046BDE8F84000F0DDBB891800088E
:1011300070B50446002C04D094F83D00002510B191
:1011400006E0012070BD84F83C50204600F022F8F3
:10115000242084F83D002068C16821F40051C1605A
:10116000204600F031FC2068016921F490410161C2
:101170002068416921F02A0141612068C16841F479
:101180000051C1602564202084F83D0084F83E00B1
:10119000002070BD10B586B0044614216846FFF7E4
:1011A00051F818492068884229D11748002102685F
:1011B00042F010020260006800F010000590124832
:1011C0001438026842F001020260006800F0010079
:1011D00005904FF4C06000900220CDE9010103208A
:1011E00003900720049069460848FFF73BF9002266
:1011F00011462520FFF7B4FA2520FFF7A3FA06B021
:1012000010BD0000001001404438024000000240C0
:1012100090F83E30202B01D00220704759B152B1D6
:1012200090F83C30012B08D0012380F83C3000239B
:10123000036300F047BC01207047022070470000A4
:1012400070B500681E49884232D102221D491E48ED
:1012500000F0A3F81B4C1D4D2078612809D1002215
:1012600008212846FFF703FA022221461648FFF715
:10127000CFFF2078622809D1002201212846FFF7FC
:10128000F6F902220F491048FFF7C2FF20786328C1
:101290000ED1012211462846FFF7E9F90122082163
:1012A0002846FFF7E4F9022206490748FFF7B0FF96
:1012B000BDE87040022203490348FFF7A9BF0000C0
:1012C000001001400000002018000020000802402B
:1012D0002DE9F84304460E4615461F4694F83D0096
:1012E000202802D00220BDE8F883C6B1BDB194F831
:1012F0003C00012816D0012084F83C004FF0000982
:10130000C4F84090212084F83D00FFF7B7F98046EB
:10131000A584E584A068B0F5805F06D007E00120D1
:10132000BDE8F8830220BDE8F883206980B1354626
:10133000002684F83C90E08CB8B14346002280211E
:101340002046009700F00BFC20B10320BDE8F88395
:101350000025EEE7A5B12168287848606D1CE08C77
:10136000401EE084E08C0028E7D143460022402163
:101370002046009700F0F3FB48B10320BDE8F88356
:1013800030882168C0F308004860B61CE7E72020D9
:1013900084F83D000020BDE8F88390F83D30202B14
:1013A00001D002207047A9B1A2B190F83C30012BC6
:1013B00012D001628284C28400210164212280F85B
:1013C0003D2080F83C100068C16841F08001C16098
:1013D0000020704701207047022070477047FEE7E9
:1013E00010B50B4C012210212046FFF740F90122D5
:1013F00040212046FFF73BF9002240212046FFF71D
:1014000036F920460022BDE810401021FFF72FB921
:101410000000024010B5094C012210212046FFF7C0
:1014200026F9002240212046FFF721F9204601221B
:10143000BDE810404021FFF71AB90000000002404B
:1014400010B5064C012210212046FFF710F9204666
:101450000022BDE810401021FFF709B9000002404A
:1014600070B50A4C002201212046FFF700F94FF425
:101470007A752846FEF798FF012211462046FFF7AD
:10148000F6F82846BDE87040FEF78EBF000802401F
:1014900070B50A4C002202212046FFF7E8F84FF40D
:1014A0007A752846FEF780FF012202212046FFF7C9
:1014B000DEF82846BDE87040FEF776BF000802401F
:1014C00070B50A4C002204212046FFF7D0F84FF4F3
:1014D0007A752846FEF768FF012204212046FFF7AF
:1014E000C6F82846BDE87040FEF75EBF000802401F
:1014F00070B50A4C002208212046FFF7B8F84FF4D7
:101500007A752846FEF750FF012208212046FFF792
:10151000AEF82846BDE87040FEF746BF000802401E
:101520002DE9F04786B014216846FEF78BFE494846
:101530000025016841F080010160016801F080012F
:101540000591016841F004010160016801F00401A6
:101550000591016841F001010160016801F001019C
:101560000591016841F008010160016801F008017E
:101570000591016841F0020101600068DFF8D89030
:1015800000F00200059001220F214846FFF76FF896
:10159000DFF8C880012250214046FFF768F8012299
:1015A000DFF8BCA0170239465046FFF760F8012467
:1015B0000F20CDE900040226CDE9024669464846DF
:1015C000FEF750FF4FF48810CDE9004069460296BF
:1015D0004046FEF747FF50208DE8310069464046FF
:1015E0000395FEF73FFF4FF440704FF40416CDE92A
:1015F0000006694602944846FEF734FF0420CDE910
:101600000006694602941748FEF72CFF0097CDE9C3
:101610000145694650460395FEF724FF0222114614
:101620000620FFF79DF80620FFF78CF80122022123
:101630000820FFF795F80820FFF784F80022022120
:101640001720FFF78DF81720FFF77CF806B0BDE8EC
:10165000F0870000303802400008024000000240DD
:1016600000040240000C0240FEE7FEE770B50024D3
:10167000002104F1B00000F0ADF80021022000F0DC
:10168000A9F80021102000F0A5F800250121002074
:1016900000F0A0F86D1CEDB2802DF7D3641CE4B20D
:1016A000082CE5D370BD000030B587B01421684622
:1016B000FEF7C8FD45480024016841F002010160C1
:1016C0000068434D00F00200059022465021284654
:1016D000FEF7CDFF502000900120CDE901046946BE
:1016E00028460394FEF7BEFE0A20FEF75DFE0021A9
:1016F000AE2000F06FF80021022000F06BF800210E
:10170000102000F067F80021402000F063F800216D
:10171000B02000F05FF80021812000F05BF800218C
:10172000FF2000F057F80021A12000F053F800211D
:10173000A62000F04FF80021A82000F04BF800216F
:101740003F2000F047F80021C82000F043F80021B6
:10175000D32000F03FF80021084600F03BF80021BC
:10176000D52000F037F80021802000F033F8002168
:10177000D82000F02FF80021052000F02BF80021E0
:10178000D92000F027F80021F12000F023F80021F3
:10179000DA2000F01FF80021122000F01BF80021D1
:1017A000DB2000F017F80021302000F013F80021B2
:1017B0008D2000F00FF80021142000F00BF800211C
:1017C000AF2000F007F807B030BD0000303802400D
:1017D00000000240C0B209B100F04FBA00F036BAC2
:1017E00070477047FEF750BF30B593B03021684660
:1017F000FEF728FD14210CA8FEF724FD1C48002547
:10180000016841F080510160006800F08050119043
:101810001848016841F4404101600068022400F466
:101820004040119001200090000401908001CDE91A
:10183000064008AA0420602182E813000B90684645
:10184000FFF7EEF808B172B6FEE70CA90F2081E8A9
:1018500031004FF48050CDE90F0503210CA8FEF7AD
:10186000C5FF002801D072B6FEE713B030BD0000FE
:1018700040380240007000400248016841F47001A5
:101880000160704788ED00E010B5806B0021C185D4
:10189000C184FFF71CFB10BD01680C3151E8002F1B
:1018A00022F4907241E80023002BF5D10168143135
:1018B00051E8002F22F0010241E80023002BF5D16E
:1018C000016B012909D101680C3151E8002F22F088
:1018D000100241E80023002BF5D1202180F83E10B2
:1018E00000210163704710B50168CA6822F0400208
:1018F000CA60202180F83D10FFF770FD002010BD68
:1019000008B590F83E10222901D0022008BD826857
:10191000B2F5805F01D1016929B1816AB2F5805FBA
:101920001DD052B10BE0816A02685268C2F308020E
:101930000A80816A891C816209E002697AB10268C1
:10194000526802F07F020A70816A491C8162C18D6F
:10195000491E0904090CC18505D0002008BD026894
:1019600052680A70F0E70168CA6822F02002CA6073
:101970000168CA6822F48072CA6001684A6922F06C
:1019800001024A61202180F83E10016B012903D039
:10199000FFF756FC002008BD0021016301680C31EF
:1019A00051E8002F22F0100241E80023002BF5D16E
:1019B00001680A6812F0100F02D00A6849680091A5
:1019C000818DFFF783FAE5E72DE9F04104462068B1
:1019D0000169E26821F44051114301612169A06865
:1019E000E26908436169114301432068C26822F437
:1019F000037222F414421143C16020684169A26954
:101A000021F44071114341612068A0F18041B1F59A
:101A100088312ED0A0F18041B1F58A3129D0FEF76E
:101A2000A9FF8446E16900201927254D3226B1F52A
:101A3000004F22D06068830F8200ACFB0701FEF7E5
:101A4000C9FB0146A5FB002040097A42424301EB55
:101A5000820106EB0111A5FB0121490901F0F00209
:101A600002EB001001F00F01084421688860BDE816
:101A7000F081FEF78FFF8446D4E761684A1840EB97
:101A80000003ACFB0701FEF7A5FB0346A5FB001016
:101A9000410918460A016FF01803594300EB810011
:101AA00006EBC000A5FB0010400900F0F80102EBB6
:101AB000410100F00700084421688860BDE8F0811A
:101AC0001F85EB5181628285C2850021016422223B
:101AD00080F83E2080F83C100169002904D001689C
:101AE000CA6842F48072CA6001684A6942F0010221
:101AF0004A610068C16841F02001C1600020704760
:101B000090F83D10212901D0022070478168B1F57D
:101B1000805F01D1016961B1016A4A1C02620268F9
:101B200009785160C18C491E0904090CC1840AD08E
:101B300013E0016A02680988C1F308015160016A73
:101B4000891C0162EEE70168CA6822F08002CA605F
:101B50000068C16841F04001C160002070472DE974
:101B6000F0410446069D884616461F4620680068D8
:101B700038EA00002AD00020B04231D1B5F1FF3F51
:101B800026D025B1FEF77AFDC01BA84220D92068D7
:101B90000C3050E8001F21F4D07140E80012002AF8
:101BA000F5D12068143050E8001F21F0010140E811
:101BB0000012002AF5D1202084F83D0084F83E0070
:101BC000002084F83C000320BDE8F0810120D3E729
:101BD0002068006838EA000005D00020B042CDD06F
:101BE0000020BDE8F0810120F8E700000148FFF780
:101BF0006FB9000018000020FEE7000070B5124E1B
:101C00000446002210213046FEF731FD5FF000054A
:101C100004F08000802815D0002240213046FEF7D5
:101C200026FD6006040E012210213046FEF71FFD3E
:101C3000002210213046FEF71AFD6D1CEDB2082D72
:101C4000E6D370BD0122E8E70000024010B504466B
:101C5000FFF7C6FB7820FFF7D1FFFFF7F1FB00206D
:101C6000FFF7CCFFFFF7ECFB2046FFF7C7FFFFF7BE
:101C7000E7FBBDE81040FFF7CDBB10B50446FFF70A
:101C8000AFFB7820FFF7BAFFFFF7DAFB4020FFF742
:101C9000B5FFFFF7D5FB2046FFF7B0FFFFF7D0FBFE
:101CA000BDE81040FFF7B6BB014A024900F013B887
:101CB000F91C00081400002002E008C8121F08C127
:101CC000002AFAD170477047002001E001C1121FBD
:101CD000002AFBD170472DE9F04116460F46044615
:101CE000002503E03946B047641C6D1C20780028AD
:101CF000F8D12846BDE8F08113B54FF6FF730122F5
:101D000069460248FFF7E4FA00981CBD180000205D
:101D1000FEF7C2FCFFF7C8FCFFF7A8FCFFF764FD65
:101D2000FFF7FEFB10480F490C2201604FF4E13130
:101D3000416000218160C160C0E904128161C1611C
:101D4000FFF7F6F908B172B6FEE708A0FFF7ACFF9F
:101D500002220A490448FFF75BFA00BFFFF7B0FB15
:101D6000FCE70000001001401800002073746D3380
:101D7000322069732072656164790A0000000020D6
:101D8000000000000000000001020304060708092B
:101D90000000000001020304B81D0008000000203C
:101DA00018000000B81C0008D01D00081800002012
:101DB00048040000C81C00080000000001000000EA
:101DC00010000000000000000024F40000000000EB
:040000050800019955
:00000001FF
