:020000040800F2
:1000000010050020B1010008831600081D14000827
:1000100081160008BD020008AD1A000800000000AB
:10002000000000000000000000000000871600082B
:10003000BF020008000000008516000889160008AD
:10004000CB010008CB010008CB010008CB01000860
:10005000CB010008CB010008C1020008CB01000859
:10006000C7020008CB010008CB010008CB01000843
:10007000CB010008CB010008CB010008CB01000830
:10008000CB010008CB010008CB01000800000000F4
:10009000000000000000000000000000CD02000889
:1000A000CB010008CB010008CB010008CB01000800
:1000B000CB010008CB0100082D170008CB01000878
:1000C000CB010008CB010008CB010008CB010008E0
:1000D000CB010008A11A0008CB01000800000000B5
:1000E000CB010008CB010008CB0100080000000094
:1000F000000000000000000000000000CB0100082C
:1001000000000000CB010008CB010008CB01000873
:1001100000000000000000000000000000000000DF
:10012000CB010008CB010008CB010008CB0100087F
:10013000CB010008000000000000000000000000EB
:10014000000000000000000000000000CB010008DB
:10015000CB010008CB010008CB010008CB0100084F
:10016000CB010008CB0100080000000000000000E7
:10017000000000000000000000000000000000007F
:1001800000000000CB01000800000000000000009B
:10019000CB010008CB010008DFF810D000F07CF89C
:1001A000004800475D1C0008AFF3008010050020E8
:1001B0000648804706480047FEE7FEE7FEE7FEE701
:1001C000FEE7FEE7FEE7FEE7FEE7FEE71D17000895
:1001D000990100082DE9F05F0546002092469B46F4
:1001E00088460646814640241BE02846414647464D
:1001F000224600F041F853465A46C01A914110D3A6
:1002000011461846224600F028F82D1A67EB01081F
:100210004F4622460120002100F01FF817EB00098D
:100220004E41201EA4F10104DFDC484631462A4637
:100230004346BDE8F09FD2B201E000F8012B491E11
:10024000FBD270470022F6E710B513460A46044673
:100250001946FFF7F0FF204610BD202A04DB203AA4
:1002600000FA02F1002070479140C2F1200320FA09
:1002700003F3194390407047202A04DB203A21FA07
:1002800002F00021704721FA02F3D040C2F12002AF
:100290009140084319467047064C074D06E0E06858
:1002A00040F0010394E8070098471034AC42F6D3BD
:1002B000FFF776FF901C0008B01C0008FEE77047AF
:1002C000012000F0A3B8042000F0A0B810B54FF44E
:1002D000807000F09BF8BDE810404FF4007000F013
:1002E00095B872B6FEE72DE9F0410446876D00F03F
:1002F00097F9064694F835000025022806D080209C
:10030000606584F834500120BDE8F0812068016800
:1003100021F0160101602068416921F080014161EE
:10032000206C08B9A06C20B12068016821F0080198
:1003300001602068016821F0010101600CE000F01B
:100340006FF9801B052807D920206065032084F8F9
:10035000350084F83450D7E720680068C007EED134
:1003600094F85C103F208840B860012084F8350084
:1003700084F834500020C7E790F83510022903D0E4
:100380008021416501207047052180F83510006803
:10039000016821F0010101600020704770B50E492D
:1003A0000A781AB964224A6001220A704FF0E024E8
:1003B000002265694968A3694843A1699942FCD054
:1003C00002D2A3EB010302E0A5EB010633441A4479
:1003D0000B468242F1D370BD5C0000200A49B0F5A3
:1003E000807F08D0B0F5007F09D0042802D1487979
:1003F000401C48717047C878401CC8707047087925
:10040000401C08717047000010000020044910B51E
:100410000A68024202D00860FFF7E0FF10BD00004A
:10042000143C01402DE9F84FDFF8B8A10022012467
:1004300003254FF00F090AF1040BAAF1040E00BFC7
:100440000B6804FA02F63340B34273D10F7907F018
:100450000307012F01D0022F16D187684FEA420807
:1004600005FA08FC27EA0C07D1F80CC00CFA08FCC6
:100470004CEA070CC0F808C04768B7430E79C6F3CA
:10048000001696403E4346600E79F643B6070DD0FF
:10049000C768560005FA06FC27EA0C07D1F808C021
:1004A0000CFA06FC4CEA070CC0F80CC00E7906F0FA
:1004B0000306022E10D1D60800EB8608D8F820607B
:1004C00057074FEAD76C09FA0CF7BE430F6907FAD2
:1004D0000CF73743C8F8207006684FEA420C05FA5B
:1004E0000CF7BE430F7907F0030707FA0CF7374301
:1004F00007604E6816F4403F6DD03B4E376847F4B6
:1005000080473760366822F0030706F4804600967D
:10051000364E07EB060CDCF8086897073F0F09FA20
:1005200007F826EA0806DFF8C880404503D14FF0F7
:1005300000081EE04FE0DFF8BC80404502D14FF0DC
:10054000010816E0DFF8B080404502D14FF0020804
:100550000FE0DFF8A880404502D14FF0030808E023
:10056000DFF89C80404502D14FF0040801E04FF0D5
:10057000070808FA07F848EA0608CCF80888DAF805
:1005800000605746D1F804C09E435FEACC2C00D5EA
:100590001E433E60DBF800605F46D1F804C09E4316
:1005A0005FEA8C2C00D51E433E60DEF80060774683
:1005B000D1F804C09E435FEA8C3C00D51E433E60E8
:1005C000084F083F3E68D1F804C09E435FEACC3C28
:1005D00000D51E433E60521C102AFFF431AFBDE827
:1005E000F88F0000083C01404438024000300140D0
:1005F000000002400004024000080240000C0240DB
:1006000000100240426921EA02030A4043EA024123
:10061000816170470AB1816170470904FBE70000FE
:10062000014880687047000000000020024881688F
:100630000278114481607047000000200B4810B51B
:10064000016841F400710160016841F4806101605A
:10065000016841F480710160032000F071F803200B
:1006600000F006F800F024F8002010BD003C024025
:1006700070B50D4D04464FF47A712878B1FBF0F057
:100680000A490968B1FBF0F000F00CFB48B9102CE6
:1006900007D200222146501E00F032F800206C6084
:1006A00070BD012070BD0000000000200C00002083
:1006B0000B4882B0016841F480410160006800F499
:1006C000804000900648001F016841F080510160A1
:1006D000006800F080500090052002B000F030B8B3
:1006E00044380240002809DB00F01F02012191403C
:1006F0004009800000F1E020C0F8001170470000C0
:10070000F0B40E4B1B680C46C3F30223C3F107057C
:10071000042D00D90425191D072901D2002300E06A
:10072000DB1E012606FA05F1491E214099409E4034
:10073000761E16403143F0BC01F0B9B90CED00E073
:10074000064900F0070208684FF6FF03184040EA28
:100750000220034A10430860704700000CED00E0DF
:100760000000FA052DE9F0470E46050065D0DFF8D8
:100770001481D8F80000F7B200F00700B04207D2A9
:1007800088F80070D8F8000000F00700B04254D19B
:1007900028683D4C810712D5400703D5206840F4F6
:1007A000E05020602878000703D5206840F46040BE
:1007B00020602068A96820F0F000084320602878B5
:1007C000C0072DD0304968680839012812D00228A6
:1007D00013D0032811D00968890700292DDA216870
:1007E00021F0030101432160FFF71AFF814641F226
:1007F000883A0EE009688903EFE709688901ECE7A8
:10080000FFF70EFFA0EB0901514502D90320BDE817
:10081000F0872068696800F00C00B0EB810FEFD121
:10082000D8F80010404601F00701B14207D907701F
:10083000006800F00700B04201D00120E7E7287807
:10084000400705D52068E96820F4E050084320609F
:100850002878000706D52068296920F4604040EA1E
:10086000C100206000F038F82168084AC1F3031184
:10087000515CC8400649086006480068FFF7F8FE6A
:100880000020C4E7003C024008380240761C000803
:100890000C00002004000020044805490068096895
:1008A000044AC1F38221515CC84070470C0000200B
:1008B00008380240861C0008044805490068096899
:1008C000044AC1F34231515CC84070470C0000201B
:1008D00008380240861C0008154810B5006810F062
:1008E0000C02144813D04110042A0FD0082A0ED14C
:1008F0000F4C241F2268236802F03F025B0207D5D9
:100900002068C0F38810A0FB010106E0084610BD76
:100910002168C1F38811A1FB00010023FFF75AFCF5
:100920002168C1F30141491C4900B0FBF1F010BD41
:10093000083802400024F4002DE9F84F04006ED07E
:100940002078DFF84C93C007A9F104054AD009F1DB
:1009500004000168C1F38101012908D00068C0F3D7
:10096000810002280AD1D9F80000400206D5286883
:10097000800337D560680028E1D033E06068B0F5C7
:10098000803F10D0B0F5A02F286810D020F4803020
:100990002860286820F4802028606068A8B1FFF7EC
:1009A0003FFE06460DE0286840F48030F4E740F44E
:1009B00080202860F7E700BFFFF732FE801B642825
:1009C00073D828688003F7D50CE0FFF729FE0646A8
:1009D00005E000BFFFF724FE801B6428F0D82868DC
:1009E0008003F7D42078DFF8AC8280074FF0000A4C
:1009F0003ED5A748001D016811F00C0F08D0006813
:100A0000C0F3810002280BD1D9F80000400207D4BE
:100A10002868800716D5E068012800D112E033E18C
:100A2000E068B8B10120C8F80000FFF7F9FD0646FC
:100A300005E000BFFFF7F4FD801B0228C0D828683E
:100A40008007F7D52868216920F0F80040EAC10046
:100A500028600DE0C8F800A0FFF7E2FD064604E0BC
:100A6000FFF7DEFD801B02281FD828688007F7D417
:100A70002078000722D5864F87486169703771B1A9
:100A800001210160FFF7CCFD064604E0FFF7C8FD39
:100A9000801B022809D838688007F7D50EE0C0F817
:100AA00000A0FFF7BDFD064605E082E0FFF7B8FDB8
:100AB000801B02287DD838688007F7D4207840074B
:100AC00068D5DFF8CCB100270BF13C0BDBF8000058
:100AD000C0000BD4DBF8001041F08051CBF80010BF
:100AE000DBF80000012700F0805000906B4E30686A
:100AF000C00510D4306840F480703060FFF790FD7E
:100B0000009005E0FFF78CFD0099401A022850D8AC
:100B10003068C005F6D55E4EA0686C3601280FD04F
:100B20000528306810D020F001003060306820F0D7
:100B300004003060A068B8B1FFF772FD00900FE0CC
:100B4000306840F00100F4E740F004003060F7E75F
:100B5000FFF766FD0099411A41F28830814266D85C
:100B600030688007F4D50EE0FFF75AFD009007E0EB
:100B7000FFF756FD0099411A41F28830814256D85C
:100B800030688007F4D42FB1DBF8001021F08051D9
:100B9000CBF80010A069C8B33D49091D0968C1F32D
:100BA000810102294AD00228504607D0C8F86000C7
:100BB00000E03CE0FFF734FD04463BE04746C8F860
:100BC0006000FFF72DFD064605E000BFFFF728FD9A
:100BD000801B02282BD828688001F7D4D4E90701AC
:100BE0000843A16A2E4A490802EB0141626A41EAC0
:100BF0008211084394F82C1040EA0161C9F80010F2
:100C000001203866FFF70CFD044606E03EE000BF19
:100C1000FFF706FD001B022809D828688001F7D5D8
:100C200034E000BFFFF7FCFC001B022802D90320C0
:100C3000BDE8F88F28688001F4D427E00128F7D0B8
:100C4000D9F80000E26900F4800191421CD1226AC7
:100C500000F03F01914217D147F6C071626A01402E
:100C6000B1EB821F10D1A26A4FF0FF3300F4403184
:100C700003EB5202B1EB024F06D194F82C1000F0B6
:100C80007060B0EB016F01D00120D1E70020CFE709
:100C90000438024000004742800E47420070004086
:100CA0000000FFFF10B5401EB0F1807F01D301208E
:100CB00010BD4FF0E02460610F21601700F0F7FED7
:100CC0000020A06107202061002010BD7047704700
:100CD00070B590F83C20012A2CD0012480F83C40CB
:100CE000022280F83D2003685A689D6822F0700651
:100CF0000A6832435A60104B02689A420ED0B2F131
:100D0000804F0BD00D4B9A4208D00D4B9A4205D024
:100D10000C4B9A4202D00C4B9A4204D1496825F000
:100D200080031943916080F83D40002180F83C1019
:100D3000084670BD022070BD000001400004004064
:100D400000080040000C00400040014010B50400C5
:100D500003D094F83D0010B107E0012010BD002041
:100D600084F83C00204600F01FF8022084F83D0083
:100D7000211D206800F0E0FC012084F8460084F882
:100D80003E0084F83F0084F8400084F8410084F875
:100D9000420084F8430084F8440084F8450084F855
:100DA0003D00002010BD000008B500680B498842D6
:100DB00012D10B48016841F0040101600068002273
:100DC00000F00400009011461E20FFF799FCBDE8DA
:100DD00008401E20FFF786BC08BD00000008004048
:100DE0004038024070B5044690F83C0000250128C8
:100DF00017D0012684F83C60022084F83D0020686A
:100E0000826822F0770222F47F42826008685028CC
:100E100038D00DDC20284FD005DC90B3102811D13C
:100E20004AE0022070BD302846D040280AD13BE07D
:100E300060282FD070280DD0B0F5805F03D0B0F5BA
:100E4000005F12D0012584F83D60002084F83C004A
:100E5000284670BDCB68D1E90121206800F0B8FCBC
:100E60002068816841F0770109E0CB68D1E9012170
:100E7000206800F0ADFC2068816841F48041816009
:100E8000E1E719E0CA684968206800F0B3FC502126
:100E9000206806E0CA684968206800F0BCFC602150
:100EA000206800F09FFCCEE7CA684968206800F01F
:100EB000A1FC40212068F4E7226801461046F0E7D3
:100EC000704770B50446006801694FF00005C943DA
:100ED000890715D4C168C943890711D4E91E016186
:100EE00001202077206880698007204602D0FFF724
:100EF000E7FF04E000F098F8204600F096F8257728
:100F000020680169C943490717D4C168C943490723
:100F100013D46FF0040101610220207720688069FA
:100F200010F4407F204602D0FFF7CAFF04E000F033
:100F30007BF8204600F079F8257720680169C943DD
:100F4000090716D4C168C943090712D46FF0080114
:100F50000161042020772068C0698007204602D004
:100F6000FFF7AEFF04E000F05FF8204600F05DF808
:100F7000257720680169C943C90617D4C168C943E8
:100F8000C90613D46FF01001016108202077206892
:100F9000C06910F4407F204602D0FFF791FF04E0C3
:100FA00000F042F8204600F040F8257720680169FB
:100FB000C943C90708D1C168C943C90704D1891EFB
:100FC0000161204600F032F820680169C943090632
:100FD00009D4C168C943090605D46FF080010161D5
:100FE0002046FFF773FE20680169C943490609D40A
:100FF000C168C943490605D46FF04001016120462C
:1010000000F015F820680169C94389060BD4C1684E
:10101000C943890607D46FF0200101612046BDE86D
:101020007040FFF754BE70BD7047704770477047FF
:1010300070477047F8B5016804460868CA684B698C
:1010400010F00F0F4FF0000559D003F0010602F425
:101050009077374365D0C10705D0D10503D5216C02
:1010600041F001012164410705D5D90703D0216C66
:1010700041F002012164810705D5D90703D0216C15
:1010800041F004012164010707D502F0200131433A
:1010900003D0216C41F008012164216C00293AD071
:1010A000800604D5900602D5204600F0F5FB2068A6
:1010B0004069216CC0F38010090700D460B320465A
:1010C00000F0C3FB20684069400621D52068143039
:1010D00050E8001F21F0400140E80012002AF5D13D
:1010E000A06BA8B16C490165A06BFFF745F900281A
:1010F00011D0A06B016D01B0BDE8F0400847830638
:101100000FD593060DD52046BDE8F84000F0C4BBCE
:101110002046FFF78EFFF8BD2046FFF78AFF2564C3
:10112000F8BD266B2023012E79D1C60677D5D606C9
:1011300075D50868486800904869400640D5A16B9D
:10114000086840680004000CEAD0A28D8242E7D90A
:10115000E085C869B0F5807F2DD020680C3050E85C
:10116000001F21F4807140E80012002AF5D12068A8
:10117000143050E8001F21F0010140E80012002A5D
:10118000F5D12068143050E8001F21F0400140E8FC
:101190000012002AF5D184F83E30256320680C3017
:1011A00050E8001F21F0100140E80012002AF5D19C
:1011B000A06BFFF798F8A08DE18D401A81B229E06D
:1011C000A08DE18D401A81B2E08D0028A8D00029C1
:1011D000A6D020680C3050E8002F22F4907240E82E
:1011E0000026002EF5D12068143050E8002F22F0A0
:1011F000010240E80026002EF5D184F83E30256338
:1012000020680C3050E8002F22F0100240E8002344
:10121000002BF5D12046FFF70BFFF8BDFFE70506D1
:101220002BD5150629D594F83D002128F5D1A068C5
:10123000B0F5805F01D12069B0B1206A411C216204
:10124000216800784860E08C401E0004000CE084B7
:10125000E3D12068C16821F08001C1602068C168C5
:1012600041F04001C160D8E7206A0088C0F308005F
:101270004860206A801C2062E5E74006CDD5500614
:10128000CBD5CA68204622F04002CA6084F83D30BF
:1012900000F0A8F8C1E700003B18000870B5040092
:1012A00004D094F83D00002510B106E0012070BD87
:1012B00084F83C50204600F023F8242084F83D00B8
:1012C0002068C16821F40051C160204600F044FB51
:1012D0002068016921F4904101612068416921F091
:1012E0002A0141612068C16841F40051C160256450
:1012F000202084F83D0084F83E00002070BD0000EE
:1013000010B586B0044614216846FEF79BFF1849C5
:101310002068884229D117480021026842F0100253
:101320000260006800F0100005901248143802684E
:1013300042F001020260006800F0010005904FF4E5
:10134000C06000900220CDE9010103200390072036
:10135000049069460848FFF765F8002211462520E9
:10136000FFF7CEF92520FFF7BDF906B010BD00004C
:1013700000100140443802400000024090F83E3026
:10138000202B0ED159B152B190F83C30012B08D02E
:10139000012380F83C300023036300F063BB01208D
:1013A000704702207047000010B50A480A4C01221D
:1013B00041780078215407490848491CFFF7DEFFAF
:1013C0002078012805D1BDE8104001210448FFF72D
:1013D00019B910BD5A000020F0000020AC00002018
:1013E000000802407047000070B50B4D044600F045
:1013F00001024FF480612846FFF70CF9C4F3400264
:10140000E9142846FFF706F9C4F38002A914284618
:10141000BDE87040FFF7FEB800080240FEE700009C
:1014200010B5084C012210212046FFF7F3F80520E3
:10143000FEF7B4FF20460022BDE810401021FFF760
:10144000E9B80000000402402DE9F041104E0F46BB
:101450000546002425FA04F000F001020821304678
:10146000FFF7D8F8002220213046FFF7D3F80520F7
:10147000FEF794FF012220213046FFF7CBF8641CD1
:10148000E4B2082CE6D33846BDE8F041FFF7ACBF24
:10149000000402402DE9F04387B014216846FEF7AE
:1014A000D1FE4B480025016841F00401016001684C
:1014B00001F004010591016841F0800101600168BB
:1014C00001F080010591016841F0010101600168AE
:1014D00001F001010591016841F008010160016816
:1014E00001F008010591016841F002010160006806
:1014F000DFF8E08000F0020005900122FF21404665
:10150000FFF788F84FF4E057002239464046FFF7CE
:1015100081F8DFF8C490002238214846FFF77AF8B6
:10152000FF2001248DE83100694640460394FEF710
:1015300079FF4FF48816CDE90046694627480295A1
:10154000FEF770FF200200904FF40410CDE9010473
:1015500069464046FEF766FF6002CDE9000669462F
:1015600002944046FEF75EFF0097CDE901456946CB
:1015700040460395FEF756FF0420CDE90006694674
:1015800002941748FEF74EFF38208DE83100694677
:1015900048460395FEF746FF002211460620FFF756
:1015A000AFF80620FFF79EF8002203210820FFF77E
:1015B000A7F80820FFF796F8002202211720FFF76E
:1015C0009FF81720FFF78EF807B0BDE8F083000002
:1015D000303802400008024000040240000002408F
:1015E000000C024010B586B0002416480094019407
:1015F00002940394049412490594C0E900144FF630
:10160000FF71C0E9024104618461FFF79FFB08B1EB
:10161000FEF767FE4FF48050009069460948FFF7D7
:10162000E1FB08B1FEF75DFE049404A905480594AA
:10163000FFF74EFB002801D0FEF753FE06B010BDA9
:1016400000080040640000200C4810B50A49016001
:101650004FF4E1314160002181600C22C160C0E99A
:1016600004128161C161FFF719FE002803D0BDE8B3
:101670001040FEF736BE10BD00100140AC00002047
:10168000FEE7FEE770477047FEF7D0BF30B593B076
:1016900030216846FEF7D6FD14210CA8FEF7D2FDD6
:1016A0001C480025016841F080510160006800F08D
:1016B000805011901848016841F440410160006871
:1016C000022400F440401190012000900004019099
:1016D0008001CDE9064008AA0420642182E81300B5
:1016E0000B906846FFF728F908B172B6FEE70CA91F
:1016F0000F2081E831004FF48050CDE90F05032120
:101700000CA8FFF72FF8002801D072B6FEE713B03F
:1017100030BD0000403802400070004002480168BF
:1017200041F470010160704788ED00E00148FFF767
:10173000C8BB000064000020F0B502681D4B1E4CC1
:101740009F031E4D1E4E984207D0B84205D0A042BE
:1017500003D0A84201D0B04204D122F0700C4A68F4
:1017600042EA0C02984210D0B8420ED0A0420CD0EF
:10177000A8420AD0B04208D0124CA04205D0124C68
:10178000A04202D0114CA04203D122F44074CA6896
:1017900022434C6922F08002224302608A68C262BE
:1017A0000A688262984201D109690163012141619D
:1017B000F0BD0000000001400004004000080040AF
:1017C000000C00400040014000440140004801403E
:1017D00010B5846842EA032224F47F440A4322437A
:1017E000826010BD826822F070020A4342F0070155
:1017F0008160704710B5036A046A24F00104046232
:10180000846924F0F00444EA021423F00A020A4333
:101810008461026210BD10B5036A23F010030362F5
:101820008369046A23F4704343EA023224F0A0037C
:1018300043EA01118261016210BD10B5806B002185
:10184000C185C184FFF7F5FB10BD01680C3151E87B
:10185000002F22F4907241E80023002BF5D101689B
:10186000143151E8002F22F0010241E80023002B3F
:10187000F5D1016B012909D101680C3151E8002F24
:1018800022F0100241E80023002BF5D1202180F83E
:101890003E1000210163704708B590F83E102229E0
:1018A00001D0022008BD82684FF480539A4201D1D2
:1018B000016921B1816A9A421BD04AB10AE00268EB
:1018C000816A5268C2F308020A80816A891C08E0B2
:1018D000026972B10268526802F07F020A70816A7E
:1018E000491C8162C18D491E0904090CC18503D0C0
:1018F00019E002685268F1E70168CA6822F0200224
:10190000CA600168CA6822F48072CA6001684A69C4
:1019100022F001024A61202180F83E10016B01296A
:1019200003D0FFF741FD002008BD002101630168DD
:101930000C3151E8002F22F0100241E80023002B67
:10194000F5D101680A68D20602D50A684968009193
:10195000818DFFF76DFBE6E770B50446006801690D
:10196000E26821F44051114301612169A068E269F4
:1019700008436169114308432168CA6849F20C634E
:101980009A430243CA6020684169A26921F4407108
:101990001143416131492068884202D03049884270
:1019A00002D1FEF789FF01E0FEF776FFE26900232E
:1019B000192164253226B2F5004F626828D0A0FBB9
:1019C0000101930F9200FEF705FC0146B0FBF5F014
:1019D0006FF01802504301EB800006EB0010B0FBE3
:1019E000F5F000F0F002B1FBF5F002EB0012B1FBF4
:1019F000F5F06FF01803584301EB800006EB001080
:101A0000B0FBF5F000F00F0021681044886070BD55
:101A1000A0FB010192185B41FEF7DCFB0146B0FB25
:101A2000F5F00201B1FBF5F06FF01803584301EB3C
:101A3000800006EBC000B0FBF5F000F0F80002EB10
:101A40004002B1FBF5F0584301EB800006EBC0000B
:101A5000B0FBF5F000F00700D6E7000000100140F1
:101A60000014014081628285C28500210164222226
:101A700080F83E2080F83C10016921B10168CA68F5
:101A800042F48072CA6001684A6942F001024A6108
:101A90000068C16841F02001C1600020704700006B
:101AA0000148FFF7C7BA0000AC000020FEE70907B5
:101AB000090E002804DB00F1E02080F800147047D4
:101AC00000F00F0000F1E02080F8141D704702E0E4
:101AD00008C8121F08C1002AFAD1704770470020B9
:101AE00001E001C1121F002AFBD170470C4810B55C
:101AF000C1780278914201D0002282600279437855
:101B00009A4201D00123836043798478A34201D0B3
:101B100002248460017042708370806810BD0000F0
:101B20001000002070B5FFF7E1FF494C10B9606864
:101B3000401C6060FFF7DAFF012802D16068401E98
:101B40006060FFF7D3FF0022022800D16260616865
:101B5000A160002901DA626003E03E48814200DBB7
:101B600060600A2091FBF0F200FB121291FBF0F191
:101B700091FBF0F300FB131391FBF0F1C4E9032395
:101B800091FBF0F300FB131391FBF0F1636191FB08
:101B9000F0F300FB131391FBF0F1A36191FBF0F361
:101BA00000FB131391FBF0F1E36191FBF0F300FBF9
:101BB000131391FBF0F1236291FBF0F300FB13137D
:101BC00091FBF0F1636291FBF0F300FB1310A16055
:101BD0002149A0621E4D4FF0FF302C350860A85CF3
:101BE0000721FFF731FCFFF71BFC20690621285C69
:101BF000FFF72AFCFFF714FC60690521285CFFF75A
:101C000023FCFFF70DFCA0690421285CFFF71CFCF6
:101C1000FFF706FCE0690321285CFFF715FCFFF7DE
:101C2000FFFB206A0221285CFFF70EFCFFF7F8FBA0
:101C3000606A0121285CFFF707FCFFF7F1FBA06A4F
:101C40000021285CFFF700FCBDE87040FFF7E8BB0F
:101C50001C000020FFE0F50518000020FEF7EEFC58
:101C6000FFF714FDFFF716FCFFF7EEFCFFF7BAFCD9
:101C7000FFF758FFFCE70000000000000000010231
:101C80000304060708090000000001020304000025
:101C9000B01C00080000002064000000CE1A0008FC
:101CA000141D000864000020AC040000DE1A0008C7
:101CB0000100000010000000000000000024F400FB
:101CC0000000000000000000FFFFFFFF0000000018
:101CD0000000000000000000000000000000000004
:101CE00000000000000000000000000000000000F4
:101CF0000000000000000000FC60DAF266B6BEE002
:101D0000FEF6EE3E9C7A9E8E010000000000000070
:041D100000000000CF
:040000050800019955
:00000001FF
