:020000040800F2
:10000000A0040020B1010008DF16000879160008DE
:10001000DD1600081D0400083D1A0008000000005D
:10002000000000000000000000000000E3160008CF
:100030001F04000800000000E1160008E516000893
:10004000CB010008CB010008CB010008CB01000860
:10005000CB010008CB010008CB010008CB01000850
:10006000CB010008CB010008CB010008CB01000840
:10007000CB010008CB010008CB010008CB01000830
:10008000CB010008CB010008E902000800000000D5
:10009000000000000000000000000000CB0100088C
:1000A000CB010008CB010008CB010008CB01000800
:1000B000CB010008CB010008CB010008CB010008F0
:1000C000CB010008CB010008CB010008CB010008E0
:1000D000CB010008311A0008CB0100080000000025
:1000E000CB010008CB010008CB0100080000000094
:1000F000000000000000000000000000CB0100082C
:1001000000000000CB010008CB010008CB01000873
:1001100000000000000000000000000000000000DF
:10012000CB010008CB010008CB010008CB0100087F
:10013000CB010008000000000000000000000000EB
:10014000000000000000000000000000CB010008DB
:10015000CB010008CB010008CB010008CB0100084F
:10016000CB010008CB0100080000000000000000E7
:10017000000000000000000000000000000000007F
:1001800000000000CB01000800000000000000009B
:10019000CB010008CB010008DFF810D000F092F886
:1001A00000480047111C0008AFF30080A0040020A5
:1001B0000648804706480047FEE7FEE7FEE7FEE701
:1001C000FEE7FEE7FEE7FEE7FEE7FEE77D17000835
:1001D000990100082DE9F05F0546002092469B46F4
:1001E00088460646814640241BE02846414647464D
:1001F000224600F057F853465A46C01A914110D390
:1002000011461846224600F03EF82D1A67EB010809
:100210004F4622460120002100F035F817EB000977
:100220004E41201EA4F10104DFDC484631462A4637
:100230004346BDE8F09FD2B201E000F8012B491E11
:10024000FBD270470022F6E710B513460A46044673
:100250001946FFF7F0FF204610BD30B50B460146AA
:1002600000202022012409E021FA02F59D4205D355
:1002700003FA02F5491B04FA02F52844151EA2F1FF
:100280000102F1DC30BD202A04DB203A00FA02F141
:10029000002070479140C2F1200320FA03F3194374
:1002A00090407047202A04DB203A21FA02F0002116
:1002B000704721FA02F3D040C2F120029140084376
:1002C00019467047064C074D06E0E06840F0010310
:1002D00094E8070098471034AC42F6D3FFF760FF6C
:1002E000141D0008341D0008014800F054B9000036
:1002F00014000020464910B54A6822F440324A6092
:100300004A6843681A434A6001684A6822F4807266
:100310004A6001684A68036942EA03224A60016848
:100320004A6822F040724A6001684A6883681A434A
:100330004A6001688A6822F400628A6001688A68FB
:10034000C3681A438A60816A6FF07062D1420168A3
:100350008A6822F070628A6001688A680CD0836AB9
:100360001A438A6001688A6822F040528A600168F4
:100370008A68C36A1A4301E022F040528A60016829
:100380008A6822F002028A6001688A68037E42EA73
:1003900043028A6090F82010002901684A680FD053
:1003A00042F400624A6001684A6822F460424A608E
:1003B00001684A68174C436A04EB43331A4301E06F
:1003C00022F400624A600168CA6A22F47002CA62BA
:1003D0000168CA6A838B104C04EB03531A43CA6248
:1003E00001688A6822F400728A6001688A6890F85D
:1003F000303042EA43228A6001688A6822F48062CF
:100400008A6001688A68406942EA8020886010BD7D
:100410000023014000E0FFFF0000F0FFFEE770470F
:100420007047000078B50024009490F83C20012A21
:1004300019D0012280F83C200A6807230568092AA0
:1004400013D9EE680A3A02EB420293409E43EE60F3
:100450000B788A680A3B03EB43039A400368DD6824
:100460002A43DA6010E0022078BD2E6902EB4202D6
:1004700093409E432E610B788A6803EB43039A40B6
:1004800003681D692A431A614A681F23072A13D289
:1004900005686E6B521E02EB820293409E436E63B0
:1004A0000A8893B20A79521E02EB820293400268D4
:1004B000556B2B43536327E005680D2A12D22E6B30
:1004C000D21F02EB820293409E432E630B790A886F
:1004D000DB1F92B203EB83039A4003681D6B2A4330
:1004E0001A6311E0EE6A0D3A02EB820293409E43DA
:1004F000EE620B790A880D3B92B203EB83039A40BC
:100500000368DD6A2A43DA621B4B0568194A9D427B
:100510000AD10D68122D07D1556825F400055560E4
:10052000556845F48005556005689D421DD1134D01
:100530000B68AB4201D0112B17D1536823F4800311
:100540005360536843F4000353600968A9420CD117
:100550000B490C4A0968B1FBF2F101EB810149003A
:1005600000E0491E00910029FBD180F83C400020AA
:1005700078BD00000023014000200140120000105F
:100580000C00002040420F0070477047006C70471D
:100590000068C06C704770B5044600680168426826
:1005A000C1F34001C2F3401251B34AB3216CC906F2
:1005B00003D4216C41F400712164816811F0405F23
:1005C00017D1217EA9B9C16A11F4700F02D08168D8
:1005D00049050ED4416821F020014160206C20F4CF
:1005E00080702064206CC00403D4206C40F00100B3
:1005F00020642046FFF7C8FF21686FF012000860F2
:10060000206801684268C1F38001C2F3C01289B357
:1006100082B3216CC90603D4216C41F400512164DA
:10062000816811F4401F1ED1816B11F4401F02D06C
:100630008168490517D44168490514D4816811F0CF
:10064000405F10D1217E71B9416821F08001416085
:10065000206C20F480502064206CC00503D4206CF2
:1006600040F0010020642046FFF7DAFE21686FF0B9
:100670000C00086020680168426811F0010FC2F3A5
:1006800080120ED06AB10068C0070AD0206C40F416
:1006900080302064204600F046F821686FF00100A9
:1006A0000860206801684268C1F34011C2F38062AB
:1006B00000290DD0002A0BD0616C41F00201616469
:1006C0006FF0200505602046FFF75FFF206805609A
:1006D00070BD70B504004FF0000503D0206C0026FB
:1006E00010B107E0012070BD204600F01DF86664DF
:1006F00084F83C60206CC00610D4206C20F4885034
:1007000040F0020020642046FFF7F4FD6664206C90
:1007100020F0020040F00100206400E0012584F890
:100720003C60284670BD704710B586B00446142161
:100730006846FFF787FD15492068884224D1144890
:100740000021026842F480720260006800F4807048
:1007500005900F481438026842F0010202600068F8
:1007600000F001000590202000900320CDE9010158
:100770006946084800F03AF900221146122000F0BC
:1007800093FA122000F082FA06B010BD002001405A
:1007900044380240000002402DE9F0410446006860
:1007A0000D4681684FF0000749050BD58068C005EC
:1007B00008D5206C40F02000206484F83C700120B3
:1007C000BDE8F08100F002FA064613E0681C11D083
:1007D00025B100F0FBF9801BA8420BD92068006806
:1007E000800707D4206C40F00400206484F83C703B
:1007F0000320E5E7206800688007E7D521686FF0EF
:1008000012000860206C40F4007020642068816849
:1008100011F0405F13D1217E89B9C16A11F4700FC4
:1008200002D0806840050AD4206C20F480702064D7
:10083000206CC00403D4206C40F001002064002030
:10084000BEE7000018B50021009190F83C20012A75
:1008500007D0012280F83C2002689368DB0702D0B1
:1008600011E0022018BD936843F001039360244A0D
:10087000244B1268B2FBF3F202EB420200E0521E7C
:100880000092002AFBD102689368DB072ED0036C2C
:1008900040F20164A34343F48073036453685B052F
:1008A00005D5036C23F4005343F480530364036CB5
:1008B000DB0404D5436C23F00603436400E0416489
:1008C00080F83C1010496FF02203136049680068FB
:1008D000C90602D00D49884210D1816811F0405FED
:1008E0000CD1816841F08041816007E0016C41F0EA
:1008F00010010164416C41F001014164002018BD08
:100900000C00002040420F00002301400020014065
:100910002DE9F0410446876D00F058F9064694F839
:1009200035000025022806D08020606584F8345008
:100930000120BDE8F0812068016821F01601016006
:100940002068416921F080014161206C08B9A06CE8
:1009500020B12068016821F0080101602068016869
:1009600021F0010101600CE000F030F9801B052846
:1009700007D920206065032084F8350084F83450BE
:10098000D7E720680068C007EED194F85C103F20DC
:100990008840B860012084F8350084F83450002085
:1009A000C7E790F83510022903D080214165012066
:1009B0007047052180F835100068016821F00101B9
:1009C000016000207047000070B5044600F0FEF89A
:1009D0000546601C02D004480078044400F0F6F894
:1009E000401BA042FAD370BD000000202DE9F84F53
:1009F000DFF8B8A1002201240AF1040B03254FF00F
:100A00000F090BF1040E00BF0B6804FA02F6334025
:100A1000B34273D10F7907F00307012F01D0022FE2
:100A200016D187684FEA420805FA08FC27EA0C0746
:100A3000D1F80CC00CFA08FC4CEA070CC0F808C04E
:100A40004768B7430E79C6F3001696403E434660AA
:100A50000E79F643B6070DD0C768560005FA06FCB6
:100A600027EA0C07D1F808C00CFA06FC4CEA070C80
:100A7000C0F80CC00E7906F00306022E10D1D6087D
:100A800000EB8608D8F8206057074FEAD76C09FAC0
:100A90000CF7BE430F6907FA0CF73743C8F820700C
:100AA00006684FEA420C05FA0CF7BE430F7907F0CF
:100AB000030707FA0CF7374307604E6816F4403F08
:100AC0006DD03B4E376847F480473760366822F078
:100AD000030706F480460096364E07EB060CDCF85A
:100AE000086897073F0F09FA07F826EA0806DFF8B3
:100AF000C880404503D14FF000081EE04FE0DFF80A
:100B0000BC80404502D14FF0010816E0DFF8B0800C
:100B1000404502D14FF002080FE0DFF8A8804045C1
:100B200002D14FF0030808E0DFF89C80404502D175
:100B30004FF0040801E04FF0070808FA07F848EA08
:100B40000608CCF80888DAF800605746D1F804C0E7
:100B50009E435FEACC3C00D51E433E60DBF800605C
:100B60005F46D1F804C09E435FEA8C3C00D51E432B
:100B70003E60DEF800607746D1F804C09E435FEA2D
:100B8000CC2C00D51E433E60084F0C373E68D1F890
:100B900004C09E435FEA8C2C00D51E433E60521C6D
:100BA000102AFFF431AFBDE8F88F0000003C01408F
:100BB000443802400030014000000240000402407E
:100BC00000080240000C024000100240014880680A
:100BD000704700000000002002488168027811443C
:100BE00081607047000000200B4810B5016841F497
:100BF00000710160016841F480610160016841F4A5
:100C000080710160032000F06FF80F2000F006F8FB
:100C100000F024F8002010BD003C024070B50D4DDE
:100C200004464FF47A712878B1FBF0F00A4909685C
:100C3000B1FBF0F000F00AFB48B9102C07D20022FB
:100C40002146501E00F030F800206C6070BD01207D
:100C500070BD0000000000200C0000200A4808B50C
:100C6000016841F480410160006800F48040009018
:100C70000548001F016841F080510160006800F0E4
:100C80008050009008BD000044380240002809DB75
:100C900000F01F02012191404009800000F1E02096
:100CA000C0F8001170470000F0B40E4B1B680C46F2
:100CB000C3F30223C3F10705042D00D90425191D30
:100CC000072901D2002300E0DB1E012606FA05F108
:100CD000491E214099409E40761E16403143F0BC8B
:100CE00000F0BEBE0CED00E0064900F00702086807
:100CF0004FF6FF03184040EA0220034A1043086001
:100D0000704700000CED00E00000FA052DE9F04707
:100D10000E46050065D0DFF81481D8F80000F7B260
:100D200000F00700B04207D288F80070D8F8000041
:100D300000F00700B04254D128683D4C810712D51D
:100D4000400703D5206840F4E05020602878000771
:100D500003D5206840F4604020602068A96820F036
:100D6000F000084320602878C0072DD0304968681B
:100D70000839012812D0022813D0032811D009689D
:100D8000890700292DDA216821F003010143216040
:100D9000FFF71CFF814641F2883A0EE0096889039B
:100DA000EFE709688901ECE7FFF710FFA0EB090105
:100DB000514502D90320BDE8F0872068696800F03A
:100DC0000C00B0EB810FEFD1D8F80010404601F0D5
:100DD0000701B14207D90770006800F00700B04270
:100DE00001D00120E7E72878400705D52068E968A9
:100DF00020F4E050084320602878000706D52068DA
:100E0000296920F4604040EAC100206000F038F811
:100E10002168084AC1F30311515CC84006490860C3
:100E200006480068FFF7FAFE0020C4E7003C0240D5
:100E300008380240FC1C00080C00002004000020C0
:100E40000448054900680968044AC1F38221515CDD
:100E5000C84070470C000020083802400C1D0008F4
:100E60000448054900680968044AC1F34231515CED
:100E7000C84070470C000020083802400C1D0008D4
:100E8000154810B5006810F00C02144813D041103A
:100E9000042A0FD0082A0ED10F4C241F2268236881
:100EA00002F03F025B0207D52068C0F38810A0FB68
:100EB000010106E0084610BD2168C1F38811A1FBBD
:100EC00000010023FFF786F92168C1F30141491CA5
:100ED0004900B0FBF1F010BD083802400024F400D6
:100EE0002DE9F84F04006ED02078DFF84C93C0074E
:100EF000A9F104054AD009F104000168C1F3810198
:100F0000012908D00068C0F3810002280AD1D9F86D
:100F10000000400206D52868800337D560680028A5
:100F2000E1D033E06068B0F5803F10D0B0F5A02F7D
:100F3000286810D020F480302860286820F48020B1
:100F400028606068A8B1FFF741FE06460DE02868FA
:100F500040F48030F4E740F480202860F7E700BFD9
:100F6000FFF734FE801B642873D828688003F7D508
:100F70000CE0FFF72BFE064605E000BFFFF726FE5C
:100F8000801B6428F0D828688003F7D42078DFF825
:100F9000AC8280074FF0000A3ED5A748001D0168CB
:100FA00011F00C0F08D00068C0F3810002280BD1AB
:100FB000D9F80000400207D42868800716D5E068F9
:100FC000012800D112E033E1E068B8B10120C8F88F
:100FD0000000FFF7FBFD064605E000BFFFF7F6FD4A
:100FE000801B0228C0D828688007F7D528682169A7
:100FF00020F0F80040EAC10028600DE0C8F800A029
:10100000FFF7E4FD064604E0FFF7E0FD801B022841
:101010001FD828688007F7D42078000722D5864F8C
:1010200087486169703771B101210160FFF7CEFD1A
:10103000064604E0FFF7CAFD801B022809D838687D
:101040008007F7D50EE0C0F800A0FFF7BFFD064609
:1010500005E082E0FFF7BAFD801B02287DD83868E2
:101060008007F7D42078400768D5DFF8CCB1002797
:101070000BF13C0BDBF80000C0000BD4DBF80010D8
:1010800041F08051CBF80010DBF80000012700F0A0
:10109000805000906B4E3068C00510D4306840F42A
:1010A00080703060FFF792FD009005E0FFF78EFD45
:1010B0000099401A022850D83068C005F6D55E4E17
:1010C000A0686C3601280FD00528306810D020F0B9
:1010D00001003060306820F004003060A068B8B1D2
:1010E000FFF774FD00900FE0306840F00100F4E776
:1010F00040F004003060F7E7FFF768FD0099411AFF
:1011000041F28830814266D830688007F4D50EE01D
:10111000FFF75CFD009007E0FFF758FD0099411ACA
:1011200041F28830814256D830688007F4D42FB11C
:10113000DBF8001021F08051CBF80010A069C8B393
:101140003D49091D0968C1F3810102294AD00228DD
:10115000504607D0C8F8600000E03CE0FFF736FDDD
:1011600004463BE04746C8F86000FFF72FFD0646FF
:1011700005E000BFFFF72AFD801B02282BD8286856
:101180008001F7D4D4E907010843A16A2E4A49082F
:1011900002EB0141626A41EA8211084394F82C1083
:1011A00040EA0161C9F8001001203866FFF70EFD22
:1011B000044606E03EE000BFFFF708FD001B0228E2
:1011C00009D828688001F7D534E000BFFFF7FEFC9E
:1011D000001B022802D90320BDE8F88F286880018F
:1011E000F4D427E00128F7D0D9F80000E26900F430
:1011F000800191421CD1226A00F03F01914217D137
:1012000047F6C071626A0140B1EB821F10D1A26A39
:101210004FF0FF3300F4403103EB5202B1EB024FC9
:1012200006D194F82C1000F07060B0EB016F01D083
:101230000120D1E70020CFE70438024000004742F8
:10124000800E4742007000400000FFFF10B5401EB6
:10125000B0F1807F01D3012010BD4FF0E024606128
:101260000F21601700F0FCFB0020A0610720206127
:10127000002010BD70477047F8B501680446086843
:10128000CA684B6910F00F0F4FF0000559D003F0FA
:10129000010602F49077374365D0C10705D0D10528
:1012A00003D5216C41F001012164410705D5D9071F
:1012B00003D0216C41F002012164810705D5D907D3
:1012C00003D0216C41F004012164010707D502F02D
:1012D0002001314303D0216C41F008012164216CCD
:1012E00000293AD0800604D5900602D5204600F0A9
:1012F0007CFA20684069216CC0F38010090700D493
:1013000060B3204600F04AFA20684069400621D5C3
:101310002068143050E8001F21F0400140E800121E
:10132000002AF5D1A06BA8B16C490165A06BFFF74D
:1013300038FB002811D0A06B016D01B0BDE8F04072
:10134000084783060FD593060DD52046BDE8F84023
:1013500000F04BBA2046FFF78EFFF8BD2046FFF79E
:101360008AFF2564F8BD266B2023012E79D1C6069D
:1013700077D5D60675D50868486800904869400654
:1013800040D5A16B086840680004000CEAD0A28D2B
:101390008242E7D9E085C869B0F5807F2DD020680A
:1013A0000C3050E8001F21F4807140E80012002A40
:1013B000F5D12068143050E8001F21F0010140E809
:1013C0000012002AF5D12068143050E8001F21F0E7
:1013D000400140E80012002AF5D184F83E30256330
:1013E00020680C3050E8001F21F0100140E8001286
:1013F000002AF5D1A06BFFF78BFAA08DE18D401A82
:1014000081B229E0A08DE18D401A81B2E08D0028E3
:10141000A8D00029A6D020680C3050E8002F22F474
:10142000907240E80026002EF5D12068143050E874
:10143000002F22F0010240E80026002EF5D184F8AA
:101440003E30256320680C3050E8002F22F0100257
:1014500040E80023002BF5D12046FFF70BFFF8BD35
:10146000FFE705062BD5150629D594F83D00212860
:10147000F5D1A068B0F5805F01D12069B0B1206AD4
:10148000411C2162216800784860E08C401E000405
:10149000000CE084E3D12068C16821F08001C160C4
:1014A0002068C16841F04001C160D8E7206A008827
:1014B000C0F308004860206A801C2062E5E740060F
:1014C000CDD55006CBD5CA68204622F04002CA606E
:1014D00084F83D3000F0CFF8C1E700008D17000818
:1014E00070B5040004D094F83D00002510B106E06A
:1014F000012070BD84F83C50204600F023F82420E1
:1015000084F83D002068C16821F40051C160204684
:1015100000F0CCF92068016921F490410161206854
:10152000416921F02A0141612068C16841F40051FC
:10153000C1602564202084F83D0084F83E0000202E
:1015400070BD000010B586B0044614216846FEF751
:1015500079FE18492068884229D11748002102687D
:1015600042F010020260006800F01000059012487E
:101570001438026842F001020260006800F00100C5
:1015800005904FF4C06000900220CDE901010320D6
:1015900003900720049069460848FFF727FA0022C5
:1015A00011462520FFF780FB2520FFF76FFB06B0D3
:1015B00010BD00000010014044380240000002400D
:1015C000704700002DE9F843044690F83D001F469F
:1015D00016460D4620284CD1C5B1BEB194F83C004A
:1015E000012846D0012084F83C004FF00008C4F8E0
:1015F0004080212084F83D00FFF7E8FAA684814668
:10160000E684A068B0F5805F03D004E00120BDE867
:10161000F883206928B12E465FF0000584F83C80ED
:101620000EE00026FAE78021204600F0C5F9A0B9B7
:10163000AEB116F8010B21684860E08C401EE084D2
:10164000E08C4B464FF0000200970028EBD14FF0A2
:101650004001204600F0B0F930B10320D7E735F85B
:10166000020BC0F30800E6E7202084F83D000020CC
:10167000CDE70220CBE77047FEE700001FB5002151
:101680001448009101910291114A0391C0E900218F
:10169000816001240161047680F820100E4AC0E9BF
:1016A0000A21C461C16080F830104461FFF711F86D
:1016B00008B172B6FEE70520CDE900046946054889
:1016C0000294FEF7AFFE002801D072B6FEE71FBD00
:1016D00000200140140000200100000FFEE7FEE79B
:1016E00070477047FFF778BA30B593B0302168463D
:1016F000FEF7A8FD14210CA8FEF7A4FD1D48002547
:10170000016841F080510160006800F08050119044
:101710001948016841F4404101600068022400F466
:101720004040119001200090000401908001CDE91B
:10173000064008AA0420482182E813000B9068465E
:10174000FFF7CEFB08B172B6FEE70CA90F2081E8C7
:1017500031004FF480500F904FF4A05010900221B0
:101760000CA8FFF7D3FA002801D072B6FEE713B039
:1017700030BD00004038024000700040024801685F
:1017800041F470010160704788ED00E010B5806B96
:101790000021C185C184FFF76EFD10BD01680C31C9
:1017A00051E8002F22F4907241E80023002BF5D17C
:1017B0000168143151E8002F22F0010241E80023B2
:1017C000002BF5D1016B012909D101680C3151E8D9
:1017D000002F22F0100241E80023002BF5D1202138
:1017E00080F83E1000210163704708B590F83E1064
:1017F000222901D0022008BD82684FF480539A420A
:1018000001D1016921B1816A9A421BD04AB10AE033
:101810000268816A5268C2F308020A80816A891CE0
:1018200008E0026972B10268526802F07F020A7031
:10183000816A491C8162C18D491E0904090CC18558
:1018400003D019E002685268F1E70168CA6822F023
:101850002002CA600168CA6822F48072CA60016806
:101860004A6922F001024A61202180F83E10016B92
:10187000012903D0FFF7A4FE002008BD0021016369
:1018800001680C3151E8002F22F0100241E80023DA
:10189000002BF5D101680A68D20602D50A684968AA
:1018A0000091818DFFF7E6FCE6E7000070B5044685
:1018B00000680169E26821F4405111430161216926
:1018C000A068E26908436169114308432168CA6856
:1018D00049F20C639A430243CA6020684169A269D5
:1018E00021F440711143416131492068884202D09E
:1018F0003049884202D1FFF7B3FA01E0FFF7A0FABE
:10190000E2690023192164253226B2F5004F62688E
:1019100028D0A0FB0101930F9200FEF75BFC01466B
:10192000B0FBF5F06FF01802504301EB800006EBBE
:101930000010B0FBF5F000F0F002B1FBF5F002EBA7
:101940000012B1FBF5F06FF01803584301EB800073
:1019500006EB0010B0FBF5F000F00F00216810441A
:10196000886070BDA0FB010192185B41FEF732FC5C
:101970000146B0FBF5F00201B1FBF5F06FF0180382
:10198000584301EB800006EBC000B0FBF5F000F01F
:10199000F80002EB4002B1FBF5F0584301EB800088
:1019A00006EBC000B0FBF5F000F00700D6E7000042
:1019B00000100140001401402DE9F04198461746FF
:1019C0000E460446069D27E0681C25D02DB1FFF782
:1019D000FDF8A0EB0800A8421ED920680C3050E8A2
:1019E000001F21F4D07140E80012002AF5D12068D0
:1019F000143050E8001F21F0010140E80012002AD5
:101A0000F5D1202084F83D0084F83E00002084F8C1
:101A10003C000320BDE8F0812068006836EA000041
:101A200004D00020B842CFD00020F3E70120F9E72E
:101A30000148FFF721BC00005C000020FEE7000029
:101A40000FB4054B10B503A9044A029800F028F81A
:101A500010BC5DF814FB0000F51B0008100000200E
:101A60000907090E002804DB00F1E02080F80014CB
:101A7000704700F00F0000F1E02080F8141D70475F
:101A800002E008C8121F08C1002AFAD17047704747
:101A9000002001E001C1121F002AFBD170470000A5
:101AA0002DE9FF4F89B09B460446002506E0252816
:101AB0000BD05A460B999047641C6D1C2078002867
:101AC000F5D10DB02846BDE8F08F0027B8460122B9
:101AD000474900E0074314F8013F203B02FA03F0B6
:101AE0000842F7D120782E2819D114F8010F47F0B9
:101AF00004072A280ED06FF02F022078A0F13001C1
:101B000009290CD808EB880102EB410100EB010820
:101B1000641CF2E70A98641C50F8048B0A90207841
:101B20000028CED0642808D0692806D075281ED099
:101B30005A460B9990476D1C58E00A994FF00A09D4
:101B400001C90A91002802DA40422D2102E039053C
:101B500004D52B218DF82010012103E0F90704D0D2
:101B60002021F7E78A4608AE0DE00021FAE70A993E
:101B70004FF00A0901C90A91F7E74946FEF76DFBE4
:101B8000303106F8011D0028F7D1ADEB060000F159
:101B90002009780701D44FF00108C84502DDA8EB01
:101BA000090000E000208046002706E008A85A4609
:101BB000C05D0B9990476D1C7F1C5745F6DB04E018
:101BC00030205A460B9990476D1CB8F10001A8F1DE
:101BD0000108F5DC05E016F8010B5A460B99904711
:101BE0006D1CB9F10001A9F10109F4DC641C65E781
:101BF0000928010038B504468DF8000002230122AF
:101C000069460248FFF7DEFC204638BD5C00002034
:101C100088B0112102A8FEF715FB2B49D1E900017C
:101C2000CDE90001FEF7E0FFFFF75EFD2748002148
:101C3000026842F004020260026802F004020792A5
:101C4000026842F080020260026802F0800207929D
:101C5000026842F00102026000681D4A00F00100C3
:101C600007901C4802604FF4E132C0E901210C22C8
:101C7000C160C0E904128161C161FFF731FC08B1A4
:101C800072B6FEE7FFF7FAFC13A0FFF7D9FE4FF498
:101C9000FA6410484838FEF7D5FD0E48322148381E
:101CA000FEF77AFD0B484838FEF770FC8005F0D54A
:101CB00008484838FEF76CFC81B20AA0FFF7C0FE66
:101CC0002046FEF781FEE4E7F41C000830380240AD
:101CD000001001405C000020726563656976652133
:101CE000200A000056616C7565203D202564200A9D
:101CF0000000000073746D69736F6B0000000000DA
:101D000000000000010203040607080900000000AB
:101D100001020304341D000800000020140000002C
:101D2000801A0008481D0008140000208C040000E0
:101D3000901A0008010000001000000000000000E0
:081D40000024F4000000000083
:040000050800019955
:00000001FF
